:020000040800F2
:1000000000000120892D0008BD180008C318000851
:10001000C9180008CF180008D51800080000000013
:1000200000000000000000000000000091BB00087C
:10003000DB18000800000000E1BD000849BE000810
:10004000D92D0008D92D0008D92D0008D92D000878
:10005000D92D0008D92D0008D92D0008D92D000868
:10006000D92D0008D92D0008D92D0008D92D000858
:10007000D92D0008D92D0008D92D0008D92D000848
:10008000D92D0008D92D0008D92D0008D92D000838
:10009000D92D0008D92D0008D92D0008D92D000828
:1000A000E9180008D92D0008D92D000811190008F9
:1000B0002D1900084919000865190008D92D0008F4
:1000C000D92D0008D92D0008D92D0008D92D0008F8
:1000D000D92D0008D92D0008D92D0008D92D0008E8
:1000E000D92D0008D92D0008D92D0008D92D0008D8
:1000F000D92D0008D92D000881190008D92D000834
:10010000D92D00080000000000000000D92D0008D3
:100110009D190008D92D0008B1190008D92D000833
:10012000D92D0008D92D0008D92D0008D92D000897
:10013000D92D0008D92D00080000000000000000A3
:10014000D92D0008D92D0008D92D00080000000085
:10015000000000000000000000000000000000009F
:10016000D92D0008D92D0008D92D0008D92D000857
:10017000D92D0008D92D0008D92D0008D92D000847
:10018000D92D0008D92D0008000000000000000053
:04019000D92D00085D
:1001A00010B5054C237833B9044B13B10448AFF3B1
:1001B00000800123237010BD6802002000000000B1
:1001C0001CEE000808B5034B1BB103490348AFF30D
:1001D000008008BD000000006C0200201CEE00083A
:1001E00001F0FF01102A2BDB10F0070F08D010F8E8
:1001F000013B013A8B422DD010F0070F42B3F6D1EC
:10020000F0B441EA012141EA014122F007047FF004
:1002100000070023F0E80256083C85EA010586EA5B
:10022000010685FA47F5A3FA87F586FA47F6A5FA97
:1002300087F68EB9EED1F0BC01F0FF0102F00702A3
:1002400032B110F8013B013A83EA010313B1F8D14E
:100250000020704701387047002D06BF354603382F
:10026000073815F0010F07D1013015F4807F02BF68
:10027000013015F4C03F0130F0BC0138704700BFB9
:10028000034613F8012B002AFBD1181A01387047D6
:1002900081F0004102E000BF83F0004330B54FEA37
:1002A00041044FEA430594EA050F08BF90EA020FA4
:1002B0001FBF54EA000C55EA020C7FEA645C7FEA37
:1002C000655C00F0E2804FEA5454D4EB5555B8BF5A
:1002D0006D420CDD2C4480EA020281EA030382EACB
:1002E000000083EA010180EA020281EA0303362D5D
:1002F00088BF30BD11F0004F4FEA01314FF4801C30
:100300004CEA113102D0404261EB410113F0004F41
:100310004FEA03334CEA133302D0524263EB4303F8
:1003200094EA050F00F0A780A4F10104D5F1200E96
:100330000DDB02FA0EFC22FA05F2801841F10001F1
:1003400003FA0EF2801843FA05F359410EE0A5F1C5
:1003500020050EF1200E012A03FA0EFC28BF4CF0F6
:10036000020C43FA05F3C01851EBE37101F00045AC
:1003700007D54FF0000EDCF1000C7EEB00006EEBB9
:100380000101B1F5801F1BD3B1F5001F0CD3490843
:100390005FEA30004FEA3C0C04F101044FEA44529A
:1003A00012F5800F80F09A80BCF1004F08BF5FEA21
:1003B000500C50F1000041EB045141EA050130BD01
:1003C0005FEA4C0C404141EB0101013C28BFB1F513
:1003D000801FE9D291F0000F04BF01460020B1FA5E
:1003E00081F308BF2033A3F10B03B3F120020CDA31
:1003F0000C3208DD02F1140CC2F10C0201FA0CF00F
:1004000021FA02F10CE002F11402D8BFC2F1200C73
:1004100001FA02F120FA0CFCDCBF41EA0C01904029
:10042000E41AA2BF01EB0451294330BD6FEA040472
:100430001F3C1CDA0C340EDC04F11404C4F120025D
:1004400020FA04F001FA02F340EA030021FA04F36F
:1004500045EA030130BDC4F10C04C4F1200220FAC6
:1004600002F001FA04F340EA0300294630BD21FA04
:1004700004F0294630BD94F0000F83F4801306BFCA
:1004800081F480110134013D4EE77FEA645C18BFBE
:100490007FEA655C29D094EA050F08BF90EA020F55
:1004A00005D054EA000C04BF1946104630BD91EA4D
:1004B000030F1EBF0021002030BD5FEA545C05D150
:1004C0004000494128BF41F0004130BD14F580048F
:1004D0003CBF01F5801130BD01F0004545F0FE4103
:1004E00041F470014FF0000030BD7FEA645C1ABF38
:1004F000194610467FEA655C1CBF0B46024650EA6F
:10050000013406BF52EA033591EA030F41F400219A
:1005100030BD00BF90F0000F04BF0021704730B520
:100520004FF4806404F132044FF000054FF00001F5
:1005300050E700BF90F0000F04BF0021704730B5B6
:100540004FF4806404F1320410F0004548BF40428B
:100550004FF000013EE700BF42004FEAE2014FEAE0
:1005600031014FEA02701FBF12F07F4393F07F4FBB
:1005700081F06051704732F07F4208BF704793F0BE
:100580007F4F04BF41F40021704730B54FF46074D1
:1005900001F0004521F000411CE700BF50EA0102D4
:1005A00008BF704730B54FF000050AE050EA01027D
:1005B00008BF704730B511F0004502D5404261EBED
:1005C00041014FF4806404F132045FEA915C3FF42E
:1005D000D8AE4FF003025FEADC0C18BF03325FEACB
:1005E000DC0C18BF033202EBDC02C2F1200300FA7C
:1005F00003FC20FA02F001FA03FE40EA0E0021FAA1
:1006000002F11444BDE600BF70B54FF0FF0C4CF48E
:10061000E06C1CEA11541DBF1CEA135594EA0C0F40
:1006200095EA0C0F00F0DEF82C4481EA030621EA7B
:100630004C5123EA4C5350EA013518BF52EA0335B6
:1006400041F4801143F4801338D0A0FB02CE4FF068
:100650000005E1FB02E506F00042E0FB03E54FF098
:100660000006E1FB03569CF0000F18BF4EF0010E90
:10067000A4F1FF04B6F5007F64F5407404D25FEA8C
:100680004E0E6D4146EB060642EAC62141EA55513F
:100690004FEAC52040EA5E504FEACE2EB4F1FD0C81
:1006A00088BFBCF5E06F1ED8BEF1004F08BF5FEAFF
:1006B000500E50F1000041EB045170BD06F00046B1
:1006C00046EA010140EA020081EA0301B4EB5C045E
:1006D000C2BFD4EB0C0541EA045170BD41F4801156
:1006E0004FF0000E013C00F3AB8014F1360FDEBF7B
:1006F000002001F0004170BDC4F10004203C35DA57
:100700000C341BDC04F11404C4F1200500FA05F3D9
:1007100020FA04F001FA05F240EA020001F000427A
:1007200021F0004110EBD37021FA04F642EB0601F0
:100730005EEA430E08BF20EAD37070BDC4F10C041A
:10074000C4F1200500FA04F320FA05F001FA04F2DE
:1007500040EA020001F0004110EBD37041F10001CA
:100760005EEA430E08BF20EAD37070BDC4F12005D5
:1007700000FA05F24EEA020E20FA04F301FA05F23D
:1007800043EA020321FA04F001F0004121FA04F2E5
:1007900020EA020000EBD3705EEA430E08BF20EAB5
:1007A000D37070BD94F0000F0FD101F000464000EF
:1007B00041EB010111F4801F08BF013CF7D041EA71
:1007C000060195F0000F18BF704703F00046520075
:1007D00043EB030313F4801F08BF013DF7D043EA46
:1007E0000603704794EA0C0F0CEA135518BF95EAFC
:1007F0000C0F0CD050EA410618BF52EA4306D1D183
:1008000081EA030101F000414FF0000070BD50EAA1
:10081000410606BF1046194652EA430619D094EA2B
:100820000C0F02D150EA013613D195EA0C0F05D115
:1008300052EA03361CBF104619460AD181EA030169
:1008400001F0004141F0FE4141F470014FF0000021
:1008500070BD41F0FE4141F4780170BD70B54FF0BC
:10086000FF0C4CF4E06C1CEA11541DBF1CEA13553C
:1008700094EA0C0F95EA0C0F00F0A7F8A4EB05041E
:1008800081EA030E52EA03354FEA013100F0888015
:100890004FEA03334FF0805545EA131343EA1263DE
:1008A0004FEA022245EA111545EA10654FEA002693
:1008B0000EF000419D4208BF964244F1FD0404F54C
:1008C000407402D25B084FEA3202B61A65EB0305A8
:1008D0005B084FEA32024FF480104FF4002CB6EB65
:1008E000020E75EB030E22BFB61A754640EA0C00E5
:1008F0005B084FEA3202B6EB020E75EB030E22BF25
:10090000B61A754640EA5C005B084FEA3202B6EB65
:10091000020E75EB030E22BFB61A754640EA9C0024
:100920005B084FEA3202B6EB020E75EB030E22BFF4
:10093000B61A754640EADC0055EA060E18D04FEAB2
:10094000051545EA16754FEA06164FEAC30343EA52
:1009500052734FEAC2025FEA1C1CC0D111F4801F1F
:100960000BD141EA00014FF000004FF0004CB6E718
:1009700011F4801F04BF01430020B4F1FD0C88BFB7
:10098000BCF5E06F3FF6AFAEB5EB030C04BFB6EBC2
:10099000020C5FEA500C50F1000041EB045170BDB5
:1009A0000EF0004E4EEA113114EB5C04C2BFD4EBE2
:1009B0000C0541EA045170BD41F480114FF0000E66
:1009C000013C90E645EA060E8DE60CEA135594EAE2
:1009D0000C0F08BF95EA0C0F3FF43BAF94EA0C0FE5
:1009E0000AD150EA01347FF434AF95EA0C0F7FF45A
:1009F00025AF104619462CE795EA0C0F06D152EAAE
:100A000003353FF4FDAE1046194622E750EA410691
:100A100018BF52EA43067FF4C5AE50EA41047FF4A2
:100A20000DAF52EA43057FF4EBAE12E74FF0FF3C07
:100A300006E000BF4FF0010C02E000BF4FF0010CD8
:100A40004DF804CD4FEA410C7FEA6C5C4FEA430C51
:100A500018BF7FEA6C5C1BD001B050EA410C0CBFA0
:100A600052EA430C91EA030F02BF90EA020F002002
:100A7000704710F1000F91EA030F58BF994208BF69
:100A800090422CBFD8176FEAE37040F00100704726
:100A90004FEA410C7FEA6C5C02D150EA013C07D17D
:100AA0004FEA430C7FEA6C5CD6D152EA033CD3D0C8
:100AB0005DF8040B704700BF8446104662468C46C2
:100AC0001946634600E000BF01B5FFF7B7FF0028F5
:100AD00048BF10F1000F01BD4DF808EDFFF7F4FF1E
:100AE0000CBF012000205DF808FB00BF4DF808EDA9
:100AF000FFF7EAFF34BF012000205DF808FB00BFCC
:100B00004DF808EDFFF7E0FF94BF012000205DF8ED
:100B100008FB00BF4DF808EDFFF7CEFF94BF0120A2
:100B200000205DF808FB00BF4DF808EDFFF7C4FF9B
:100B300034BF012000205DF808FB00BF4FEA410CE4
:100B40007FEA6C5C02D150EA013C0AD14FEA430CC7
:100B50007FEA6C5C02D152EA033C02D14FF0000004
:100B600070474FF0010070474FEA410212F5001242
:100B700015D211D56FF47873B3EB625212D94FEAE4
:100B8000C12343F0004343EA505311F0004F23FACE
:100B900002F018BF404270474FF00000704750EA23
:100BA000013005D111F0004008BF6FF000407047E0
:100BB0004FF00000704700BF4A0011D212F500123A
:100BC00011D20DD56FF47873B3EB62520ED44FEAA5
:100BD000C12343F0004343EA505323FA02F0704725
:100BE0004FF00000704750EA013002D14FF0FF3063
:100BF00070474FF00000704780B500AF194808F00B
:100C000019FB0346184A1360184A0021184808F0D7
:100C100089F80346174A1360174A0021174808F05D
:100C200081F80346164A1360164A0021164808F058
:100C300079F80346154A1360154A0021154808F053
:100C400071F80346144A1360144808F0D1F90346BA
:100C5000134A1360134808F0CBF90346124A136095
:100C600000BF80BD80F2000894020020F0F100086F
:100C7000AD0C00088402002014F20008ED0C0008FE
:100C80008802002038F20008090E00088C020020BB
:100C90005CF20008B50E00089002002090F20008F7
:100CA00098020020A0F200089C02002080B582B0CB
:100CB00000AF78600A4802F0E3F80A4802F010F941
:100CC000094B1B68184608F0FDF808F0D5F80346F4
:100CD000184608F0F7F84FF47A7008F05BF9EFE780
:100CE00058000020480000209002002080B582B00B
:100CF00000AF7860324802F0DDF80346194631480B
:100D00000CF034F8304802F0D5F8034619462F4865
:100D10000CF02CF82E4B1B68184608F057FA0346C7
:100D200003F00203002B0CD12A4802F0F1FB2A4801
:100D300002F0EEFB294802F0EBFB294802F0E8FB49
:100D400015E0234B1B68184608F040FA034603F0F1
:100D50000203022B0BD1234802F0DAFB1E4802F0FB
:100D6000D7FB1E4802F0D4FB1F4802F0D1FB1F4BFB
:100D7000D3E900231E480BF0F9FF1C4BD3E90223F3
:100D80001C480BF0F3FF194BD3E904231A480BF06E
:100D9000EDFF164BD3E9062318480BF0E7FF134B82
:100DA000D3E9082316480BF0E1FF104BD3E90A23DF
:100DB00014480BF0DBFF462008F0ECF89AE700BF80
:100DC00068000020A8EE000870000020C0EE0008B7
:100DD0009802002018000020000000203C000020A5
:100DE0000C000020300000202400002068060020B5
:100DF000D8EE0008FCEE000824EF00084CEF0008D5
:100E000074EF000898EF000880B582B000AF7860FA
:100E1000234B1B78572B16D1224B1B6801211846F8
:100E200008F038F91F4B1B680221184608F08AF9B0
:100E30001D4B1B68184608F079F81C4B1B681846B8
:100E400008F040F819E0164B1B78552B15D1154BBF
:100E50001B680121184608F01DF9124B1B6802217E
:100E6000184608F017F9104B1B68184608F05EF892
:100E70000E4B1B68184608F025F80A4B1B681846ED
:100E800008F0A4F9034603F00103002B03D1044941
:100E9000074802F0EBF8962008F07CF8B8E700BFAE
:100EA0006400002098020020900200208C020020A4
:100EB00048000020B0B584B000AF78600023FB721A
:100EC0000023BB720023FB60BA4B1B78772B05D144
:100ED000B94B1B680121184608F034F9B64B1B6862
:100EE000184608F073F9034603F00103012B40F0A4
:100EF000BA82B2480BF0A0FFB149B24802F096F8AE
:100F0000AD4B1B68184608F061F9034603F0020375
:100F1000002B40F02B81AC480BF08EFFAB4BD3E99C
:100F2000022310461946FFF747FE0346FB72A74B04
:100F3000D3E9042310461946FFF73EFE0346BB7271
:100F400002F046F902E0A2480BF076FF9F4BD3E98E
:100F50000245FB7A0F331846FFF7ECFA02460B46C0
:100F600020462946FFF7C2FD0346002BEBD1974BE5
:100F7000D3E90445BB7A0F331846FFF7DBFA024684
:100F80000B4620462946FFF7B1FD0346002BDAD178
:100F900090480BF051FF05E08F480BF04DFFFB68C8
:100FA0000133FB60FB68B3F57F6F21D0874BD3E93A
:100FB0000245FB7A11331846FFF7BCFA02460B468E
:100FC00020462946FFF7B0FD0346002BE4D17F4BB6
:100FD000D3E90445BB7A0F331846FFF7ABFA024654
:100FE0000B4620462946FFF79FFD0346002BD3D131
:100FF00002F010F9052002F0F1FB02F0BDF977498B
:10100000704802F013F802F005F94FF4AF6002F0F7
:10101000E5FB02F0B1F902F067F902E070480BF06D
:101020000BFF6A4BD3E90A014FF000026D4BFFF74B
:101030007BFD0346002BF1D102F0CAF8052002F037
:10104000CDFB02F099F902F073F902E066480BF06B
:10105000F3FE5E4BD3E904014FF00002634BFFF750
:1010600063FD0346002B0AD0584BD3E90A014FF029
:1010700000025E4BFFF758FD0346002BE6D102F05D
:10108000A7F8052002F0AAFB02F076F94C494D487A
:1010900001F0CCFF02F0E0F802E055480BF0CCFE86
:1010A0004A4BD3E900014FF00002524BFFF73CFDE1
:1010B0000346002B0AD0454BD3E902014FF0000252
:1010C0004D4BFFF731FD0346002BE6D102F0A2F8AD
:1010D000052002F083FB02F04FF94049394801F046
:1010E000A5FF02F025F94FF4967002F077FB02F0AD
:1010F00043F902F08FF802E040480BF09DFE334BBD
:10110000D3E90A014FF000023D4BFFF70DFD034606
:10111000002BF1D102F05CF8052002F05FFB02F039
:101120002BF9284802F098F802E036480BF084FECC
:10113000264BD3E900014FF00002334BFFF7F4FCDC
:101140000346002B0AD0214BD3E902014FF00002E5
:101150002E4BFFF7E9FC0346002BE6D102F05AF8CC
:10116000052002F03BFB02F007F965E1124B1B681A
:10117000184608F02BF8034603F00203022B40F058
:101180005B8123480BF058FE104BD3E90623104631
:101190001946FFF711FD0346FB720C4BD3E90823F8
:1011A00010461946FFF708FD0346BB7202F010F81F
:1011B00033E000BF6400002098020020B8EF000870
:1011C000800000204800002004F00008680600208D
:1011D00018F0000834F000084CF0000888000020E7
:1011E0007CF0000800003E409CF000080000104029
:1011F000BCF000080000144000002A40DCF00008A9
:1012000000003440F4F000080000244000002240B8
:1012100010F1000896480BF00FFE964BD3E90645F7
:10122000FB7A0F331846FFF785F902460B46204636
:101230002946FFF75BFC0346002BEBD18D4BD3E92E
:101240000845BB7A0F331846FFF774F902460B4680
:1012500020462946FFF74AFC0346002BDAD1864890
:101260000BF0EAFD05E085480BF0E6FDFB68013375
:10127000FB60FB68B3F57F6F21D07E4BD3E9064559
:10128000FB7A11331846FFF755F902460B46204604
:101290002946FFF749FC0346002BE4D1754BD3E9FF
:1012A0000845BB7A0F331846FFF744F902460B4650
:1012B00020462946FFF738FC0346002BD3D101F026
:1012C000A9FF052002F08AFA02F056F86C496D4831
:1012D00001F0ACFE01F09EFF4FF4AF6002F07EFA29
:1012E00002F04AF802F024F802E067480BF0A4FD8F
:1012F000604BD3E90A014FF00002644BFFF714FC86
:101300000346002BF1D101F063FF052002F066FADD
:1013100002F032F801F0E8FF02E05D480BF08CFDCE
:10132000544BD3E908014FF000025A4BFFF7FCFB86
:101330000346002B0AD04F4BD3E90A014FF00002BD
:10134000544BFFF7F1FB0346002BE6D101F040FFC1
:10135000052002F043FA02F00FF84F49494801F026
:1013600065FE01F09DFF02E04C480BF065FD414B2E
:10137000D3E900014FF00002494BFFF7D5FB0346CC
:10138000002B0AD03B4BD3E906014FF00002454B3E
:10139000FFF7CAFB0346002BE6D101F03BFF052017
:1013A00002F01CFA01F0E8FF3549364801F03EFE34
:1013B00001F09AFF4FF4967002F010FA01F0DCFF92
:1013C00001F028FF02E038480BF036FD294BD3E945
:1013D0000A014FF00002354BFFF7A6FB0346002B36
:1013E000F1D101F0F5FE052002F0F8F901F0C4FF9B
:1013F000244801F055FF02E02D480BF01DFD1D4B68
:10140000D3E900014FF000022A4BFFF78DFB0346A2
:10141000002B0AD0174BD3E906014FF00002264BF0
:10142000FFF782FB0346002BE6D101F0F3FE052017
:1014300002F0D4F901F0A0FF20480BF0FDFC204B96
:101440001B680121184607F07DFE1E490D4801F07A
:10145000EDFD1D4B1B68184607F068FD1B4B1B6814
:10146000184607F02FFD1A4807F094FD2CE500BF41
:1014700018F000086806002034F000084CF000085E
:10148000880000204800002020F1000800003E40B5
:1014900040F10008000010408000002060F10008CA
:1014A0000000144000002A40DCF000080000344036
:1014B00080F1000800002440000022409CF1000858
:1014C00098020020780000208C020020900200206A
:1014D000C0D4010080B58AB000AF07F11403002228
:1014E0001A605A609A60DA601A61504B5B694F4A21
:1014F00043F4002353614D4B5B6903F400233B61CC
:101500003B694A4B5B69494A43F480035361474B4B
:101510005B6903F48003FB60FB68444B5B69434AEF
:1015200043F400335361414B5B6903F40033BB6008
:10153000BB683E4B5B693D4A43F4802353613B4BA0
:101540005B6903F480237B607B6800224FF4E461D5
:101550004FF0904002F062FC002243F60241344812
:1015600002F05CFC01220421314802F057FC002209
:101570004FF440712F4802F051FC4FF400537B614F
:101580004FF40413BB610023FB6107F114031946F8
:10159000284802F0A1FA4FF4E4637B610123BB61A8
:1015A0000023FB6100233B6207F1140319464FF04F
:1015B000904002F091FA01237B610023BB6100237C
:1015C000FB6107F114031946194802F085FA43F646
:1015D00006437B610123BB610023FB6100233B6267
:1015E00007F114031946124802F076FA4FF44073DB
:1015F0007B610123BB610023FB6100233B6207F198
:10160000140319460B4802F067FA4FF480537B61CC
:101610000023BB610023FB6107F114031946054851
:1016200002F05AFA00BF2837BD4680BD00100240C4
:10163000000400480008004880B500AF02F098F8A8
:1016400000F01EF8FFF746FF00F0BCFA00F08AFB3E
:1016500000F022FC00F0BCFC00F056FD00F024FE7F
:1016600000F0EAFE01F0E2FA01F0B0FA00F05EFFED
:1016700007F0F0FAFFF7C0FA07F020FBFEE70000E2
:1016800080B5A6B000AF07F17003282200211846EC
:101690000BF0B2FC07F15C0300221A605A609A60FA
:1016A000DA601A613B1D5822002118460BF0A4FC99
:1016B00002233B670123FB671023C7F88030002318
:1016C000C7F8883007F17003184602F0BFFB0346E5
:1016D000002B01D000F04AF80F23FB6500233B6686
:1016E00000237B660023BB660023FB6607F15C03D7
:1016F0000021184603F0FEFB0346002B01D000F04A
:1017000035F8104B7B6000233B610023BB61002355
:10171000BB630023BB640023FB6400233B65002301
:101720007B640023FB6300233B643B1D184603F0EE
:1017300049FE0346002B01D000F018F800BF98378F
:10174000BD4680BD0A30F00180B582B000AF786040
:101750007B681B68044A934201D102F01FF800BF66
:101760000837BD4680BD00BF0010004080B400AF08
:1017700072B600BFFEE7000080B582B000AF114B2B
:101780009B69104A43F0010393610E4B9B6903F080
:1017900001037B607B680B4BDB690A4A43F0805393
:1017A000D361084BDB6903F080533B603B68002248
:1017B0000F216FF0010002F0EDF800BF0837BD46C1
:1017C00080BD00BF0010024080B58EB000AF7860D1
:1017D0000023FB620023BB62334BDB69324A43F0D8
:1017E0001003D361304BDB6903F01003FB60FB682F
:1017F00007F1100207F114031146184603F0B0FD7B
:101800003B6AFB62FB6A002B03D103F065FD786342
:1018100004E003F061FD03465B007B637B6B234ABE
:10182000A2FB03239B0C013BBB62214B214A1A60A4
:101830001F4B40F2E732DA601D4ABB6A53601C4B13
:1018400000221A611A4B00229A60194B00229A61F9
:10185000174803F0D5FF034687F8333097F8333045
:10186000002B1BD1124804F023F8034687F83330CD
:1018700097F83330002B11D1362002F0A7F87B689F
:101880000F2B08D800227968362002F083F80A4A24
:101890007B68136002E0012387F8333097F8333018
:1018A00018463837BD4680BD0010024083DE1B431A
:1018B000A0020020001000409000002080B400AF83
:1018C000FEE780B400AFFEE780B400AFFEE780B46F
:1018D00000AFFEE780B400AFFEE780B400AF00BF0A
:1018E000BD465DF8047B704780B500AF054B05220F
:1018F0001A70054804F0C0FC044804F0BDFC00BFA9
:1019000080BD00BF98060020F00200206C0400207B
:1019100080B500AF034B00221A70034804F0ACFC02
:1019200000BF80BD98060020F002002080B500AF07
:10193000034B01221A70034804F09EFC00BF80BDD7
:10194000980600203C03002080B500AF034B022224
:101950001A70034804F090FC00BF80BD9806002078
:101960008803002080B500AF034B03221A700348A0
:1019700004F082FC00BF80BD98060020D403002044
:1019800080B500AF034B04221A70034804F074FCC6
:1019900000BF80BD980600202004002080B500AF65
:1019A000024805F0AFFF00BF80BD00BF500500201A
:1019B00080B500AF024804F05FFC00BF80BD00BFEF
:1019C000A002002080B483B000AF0346FB710F4B30
:1019D0001B680E4A43F0807313600D4B1B680C4A62
:1019E00043F00103136000BF4FF060431B6803F036
:1019F0000103002BF8D04FF06042FB79136000BF69
:101A00000C37BD465DF8047B704700BFFCED00E07D
:101A1000000E00E080B400AF01231846BD465DF81B
:101A2000047B704780B582B000AF786039600BF0FE
:101A30008BFB034616221A604FF0FF331846083717
:101A4000BD4680BD80B582B000AF78604FF0FF31F9
:101A50007868FFF7E7FFFEE780B586B000AFF86073
:101A6000B9607A6000237B610AE0AFF30080014631
:101A7000BB685A1CBA60CAB21A707B6901337B61B9
:101A80007A697B689A42F0DB7B6818461837BD4656
:101A900080BD80B586B000AFF860B9607A60002381
:101AA0007B6109E0BB685A1CBA601B781846FFF7D7
:101AB00089FF7B6901337B617A697B689A42F1DB3C
:101AC0007B6818461837BD4680BD80B483B000AF30
:101AD00078604FF0FF3318460C37BD465DF8047B45
:101AE000704780B483B000AF786039603B684FF4D2
:101AF00000525A60002318460C37BD465DF8047B3F
:101B0000704780B483B000AF7860012318460C376B
:101B1000BD465DF8047B704780B485B000AFF860C7
:101B2000B9607A60002318461437BD465DF8047B1F
:101B30007047000080B586B000AF7860144A154B3E
:101B4000D31A7B617B693B61134B1B68002B02D16D
:101B5000114B124A1A60104B1A687B6813443A6999
:101B60009A4207D20BF0F0FA03460C221A604FF0AB
:101B7000FF3309E0084B1B68FB60074B1A687B6862
:101B80001344054A1360FB6818461837BD4680BDEC
:101B90000000012000040000EC020020282A0020A0
:101BA00080B400AF064BD3F88830054A43F4700385
:101BB000C2F8883000BFBD465DF8047B704700BFA7
:101BC00000ED00E080B59EB000AF07F16803002291
:101BD0001A605A609A60DA6007F15C0300221A60AA
:101BE0005A609A6007F1400300221A605A609A60B6
:101BF000DA601A615A619A6107F1300300221A60B3
:101C00005A609A60DA603B1D2C22002118460BF0C6
:101C1000F3F9524B524A1A60504B07225A604F4B0D
:101C200000229A604D4B4FF6FF72DA604B4B002258
:101C30001A614A4B00225A61484B00229A61474878
:101C400003F0DEFD0346002B01D0FFF78FFD4FF4BC
:101C50008053BB6607F168031946404804F0DCFD79
:101C60000346002B01D0FFF781FD3C4803F090FEB6
:101C70000346002B01D0FFF779FD384804F092F8B5
:101C80000346002B01D0FFF771FD0023FB65002305
:101C90003B6600237B6607F15C0319462F4805F07D
:101CA0006FFC0346002B01D0FFF760FD60233B640F
:101CB00047F6BC737B640023BB640023FB640023F2
:101CC0003B6500237B650023BB6507F140030022D1
:101CD0001946224804F08CFC0346002B01D0FFF784
:101CE00045FD00233B6301237B630023BB6300238B
:101CF000FB6307F1300304221946184804F0DBFBAC
:101D00000346002B01D0FFF731FD00237B60002349
:101D1000BB600023FB6000233B6100237B614FF429
:101D20000053BB610023FB6100233B624FF0007353
:101D30007B620023BB620023FB623B1D1946074800
:101D400005F0AAFC0346002B01D0FFF70FFD034866
:101D500000F002FE00BF7837BD4680BDF0020020D3
:101D6000002C014080B592B000AF07F1380300228B
:101D70001A605A609A60DA6007F12C0300221A6038
:101D80005A609A6007F1100300221A605A609A6044
:101D9000DA601A615A619A613B4600221A605A6001
:101DA0009A60DA603B4B4FF080421A60394B072251
:101DB0005A60384B00229A60364B4FF6FF72DA6059
:101DC000344B00221A61334B00229A61314803F0F0
:101DD00017FD0346002B01D0FFF7C8FC4FF48053DA
:101DE000BB6307F1380319462A4804F015FD034682
:101DF000002B01D0FFF7BAFC264803F0C9FD0346CB
:101E0000002B01D0FFF7B2FC224803F0CBFF0346C2
:101E1000002B01D0FFF7AAFC0023FB6200237B63A9
:101E200007F12C0319461B4805F0AAFB0346002BBB
:101E300001D0FFF79BFC60233B6147F6BC737B61DD
:101E40000023BB6100233B6207F110030022194607
:101E5000104804F0CDFB0346002B01D0FFF786FCB1
:101E600000233B6001237B600023BB600023FB60F9
:101E70003B4604221946074804F01DFB0346002B8D
:101E800001D0FFF773FC034800F066FD00BF483740
:101E9000BD4680BD3C03002080B592B000AF07F185
:101EA000380300221A605A609A60DA6007F12C0346
:101EB00000221A605A609A6007F1100300221A602B
:101EC0005A609A60DA601A615A619A613B46002250
:101ED0001A605A609A60DA603B4B3C4A1A603A4B8F
:101EE00007225A60384B00229A60374B4FF6FF7238
:101EF000DA60354B00221A61334B00229A61324876
:101F000003F07EFC0346002B01D0FFF72FFC4FF4BB
:101F10008053BB6307F1380319462B4804F07CFC5F
:101F20000346002B01D0FFF721FC274803F030FDCA
:101F30000346002B01D0FFF719FC234803F032FFC2
:101F40000346002B01D0FFF711FC0023FB620023A6
:101F50007B6307F12C0319461B4805F011FB034670
:101F6000002B01D0FFF702FC60233B6147F6BC73F6
:101F70007B610023BB6100233B6207F11003002259
:101F80001946114804F034FB0346002B01D0FFF73B
:101F9000EDFB00233B6001237B600023BB6000233B
:101FA000FB603B4604221946074804F084FA0346C6
:101FB000002B01D0FFF7DAFB034800F0CDFC00BF97
:101FC0004837BD4680BD00BF8803002000040040A4
:101FD00080B592B000AF07F1380300221A605A6052
:101FE0009A60DA6007F12C0300221A605A609A6046
:101FF00007F1100300221A605A609A60DA601A61D1
:102000005A619A613B4600221A605A609A60DA600F
:102010003B4B3C4A1A603A4B07225A60384B00222D
:102020009A60374B4FF6FF72DA60354B00221A6127
:10203000334B00229A61324803F0E2FB0346002B47
:1020400001D0FFF793FB4FF48053BB6307F13803D4
:1020500019462B4804F0E0FB0346002B01D0FFF7A4
:1020600085FB274803F094FC0346002B01D0FFF7C3
:102070007DFB234803F096FE0346002B01D0FFF7BB
:1020800075FB0023FB6200237B6307F12C031946D9
:102090001B4805F075FA0346002B01D0FFF766FBDD
:1020A00060233B6147F6BC737B610023BB61002367
:1020B0003B6207F1100300221946114804F098FA18
:1020C0000346002B01D0FFF751FB00233B600123A7
:1020D0007B600023BB600023FB603B460422194663
:1020E000074804F0E8F90346002B01D0FFF73EFB58
:1020F000034800F031FC00BF4837BD4680BD00BF3B
:10210000D40300200008004080B59EB000AF07F166
:10211000680300221A605A609A60DA6007F15C0373
:1021200000221A605A609A6007F1400300221A6088
:102130005A609A60DA601A615A619A6107F1300355
:1021400000221A605A609A60DA603B1D2C2200213E
:1021500018460AF051FF524B524A1A60504B072260
:102160005A604F4B00229A604D4B4FF6FF72DA6077
:102170004B4B00221A614A4B00225A61484B002205
:102180009A61474803F03CFB0346002B01D0FFF760
:10219000EDFA4FF48053BB6607F1680319464048D7
:1021A00004F03AFB0346002B01D0FFF7DFFA3C486E
:1021B00003F0EEFB0346002B01D0FFF7D7FA3848B7
:1021C00003F0F0FD0346002B01D0FFF7CFFA002308
:1021D000FB6500233B6600237B6607F15C03194621
:1021E0002F4805F0CDF90346002B01D0FFF7BEFACA
:1021F00060233B6447F6BC737B640023BB6400230D
:10220000FB6400233B6500237B650023BB6507F16E
:10221000400300221946224804F0EAF90346002B45
:1022200001D0FFF7A3FA00233B6301237B63002364
:10223000BB630023FB6307F13003042219461848EF
:1022400004F039F90346002B01D0FFF78FFA002381
:102250007B600023BB600023FB6000233B61002305
:102260007B614FF40053BB610023FB6100233B62A1
:102270004FF000737B620023BB620023FB623B1DB7
:102280001946074805F008FA0346002B01D0FFF76E
:102290006DFA034800F060FB00BF7837BD4680BD93
:1022A000200400200034014080B59EB000AF07F14B
:1022B000680300221A605A609A60DA6007F15C03D2
:1022C00000221A605A609A6007F1400300221A60E7
:1022D0005A609A60DA601A615A619A6107F13003B4
:1022E00000221A605A609A60DA603B1D2C2200219D
:1022F00018460AF081FE4E4B4E4A1A604C4B07229C
:102300005A604B4B00229A60494B4FF6FF72DA60DD
:10231000474B00221A61464B00225A61444B00226F
:102320009A61434803F06CFA0346002B01D0FFF793
:102330001DFA4FF48053BB6607F1680319463C4809
:1023400004F06AFA0346002B01D0FFF70FFA384871
:1023500003F01EFB0346002B01D0FFF707FA3448B9
:1023600003F020FD0346002B01D0FFF7FFF9002307
:10237000FB6500237B6607F15C0319462C4805F0DA
:10238000FFF80346002B01D0FFF7F0F960233B6410
:1023900047F6BC737B640023BB640023FB6400230B
:1023A0003B6500237B650023BB6507F140030022EA
:1023B00019461F4804F01CF90346002B01D0FFF713
:1023C000D5F900233B6301237B630023BB63002318
:1023D000FB6307F1300304221946154804F06BF83B
:1023E0000346002B01D0FFF7C1F900237B600023D7
:1023F000BB600023FB6000233B6100237B614FF443
:102400000053BB610023FB610023FB623B1D1946A7
:10241000074805F041F90346002B01D0FFF7A6F964
:10242000034800F099FA00BF7837BD4680BD00BF71
:102430006C0400200040014080B592B000AF07F16D
:102440002C0300221A605A609A60DA601A615A619D
:102450009A613B462C22002118460AF0CDFD314BF3
:10246000314A1A602F4B07225A602E4B00229A6085
:102470002C4B4FF6FF72DA602A4B00221A61294B6F
:1024800000225A61274B00229A61264803F0B8F9CE
:102490000346002B01D0FFF769F9224803F078FAD0
:1024A0000346002B01D0FFF761F96023FB6247F67A
:1024B000BC733B6300237B630023BB630023FB638C
:1024C00000233B6400237B6407F12C0300221946A0
:1024D000144804F08DF80346002B01D0FFF746F9AD
:1024E00000233B6000237B600023BB600023FB6074
:1024F00000233B614FF400537B610023BB61002349
:10250000BB623B461946074805F0C6F80346002B58
:1025100001D0FFF72BF9034800F01EFA00BF48373F
:10252000BD4680BDB80400200044014080B592B093
:1025300000AF07F12C0300221A605A609A60DA603B
:102540001A615A619A613B462C22002118460AF012
:1025500053FD314B314A1A602F4B07225A602E4BE4
:1025600000229A602C4B4FF6FF72DA602A4B002251
:102570001A61294B00225A61274B00229A61264892
:1025800003F03EF90346002B01D0FFF7EFF8224895
:1025900003F0FEF90346002B01D0FFF7E7F86023B4
:1025A000FB6247F6BC733B6300237B630023BB6382
:1025B0000023FB6300233B6400237B6407F12C03AF
:1025C00000221946144804F013F80346002B01D0EA
:1025D000FFF7CCF800233B6000237B600023BB6047
:1025E0000023FB6000233B614FF400537B61002319
:1025F000BB610023BB623B461946074805F04CF817
:102600000346002B01D0FFF7B1F8034800F0A4F90E
:1026100000BF4837BD4680BD04050020004801408A
:1026200080B596B000AF786007F1440300221A60CD
:102630005A609A60DA601A617B681B68A74A934205
:1026400038D1A74B9B69A64A43F400639361A44B1E
:102650009B6903F400633B643B6CA14B5B69A04A3C
:1026600043F4002353619E4B5B6903F40023FB6337
:10267000FB6B02237B640223BB640023FB64002307
:102680003B6502237B6507F144031946954801F039
:1026900023FA00220521182001F07CF9182001F00E
:1026A00095F9002205211B2001F074F91B2001F08F
:1026B0008DF946E17B681B68B3F1804F31D1884BBF
:1026C000DB69874A43F00103D361854BDB6903F083
:1026D0000103BB63BB6B824B5B69814A43F40033EC
:1026E00053617F4B5B6903F400337B637B6B022395
:1026F0007B640223BB640023FB6400233B6501234E
:102700007B6507F1440319464FF0904001F0E4F96E
:10271000002205211C2001F03DF91C2001F056F992
:102720000FE17B681B68704A934231D16C4BDB69C7
:102730006B4A43F00203D361694BDB6903F0020388
:102740003B633B6B664B5B69654A43F40033536103
:10275000634B5B6903F40033FB62FB6A10237B6409
:102760000223BB640023FB6400233B6502237B65DB
:1027700007F1440319464FF0904001F0ADF90022F3
:1027800005211D2001F006F91D2001F01FF9D8E0F8
:102790007B681B68554A934232D1514BDB69504AE2
:1027A00043F00403D3614E4BDB6903F00403BB62C7
:1027B000BB6A4B4B5B694A4A43F400335361484B55
:1027C0005B6903F400337B627B6A4FF480537B6464
:1027D0000223BB640023FB6400233B650A237B6563
:1027E00007F1440319464FF0904001F075F90022BB
:1027F00005211E2001F0CEF81E2001F0E7F8A0E030
:102800007B681B683A4A934230D1354B9B69344A06
:1028100043F400539361324B9B6903F400533B62D2
:102820003B6A2F4B5B692E4A43F4002353612C4BC8
:102830005B6903F40023FB61FB6980237B64022353
:10284000BB640023FB6400233B6504237B6507F125
:1028500044031946234801F03FF9002205212E20A8
:1028600001F098F82E2001F0B1F86AE07B681B684F
:10287000204A934242D11A4B9B69194A43F4803350
:102880009361174B9B6903F48033BB61BB69144BA5
:102890005B69134A43F480235361114B5B6903F472
:1028A00080237B617B694FF400437B640223BB641C
:1028B0000023FB6400233B6501237B6507F1440390
:1028C00019460D4801F008F900220521182001F0F1
:1028D00061F8182001F07AF833E000BF002C0140C5
:1028E00000100240000800480004004000080040BA
:1028F0000034014000400140000400487B681B6830
:10290000124A93420CD1124B9B69114A43F4003393
:1029100093610F4B9B6903F400333B613B6910E00B
:102920007B681B680B4A93420BD1094B9B69084A91
:1029300043F480239361064B9B6903F48023FB607F
:10294000FB6800BF5837BD4680BD00BF0044014052
:10295000001002400048014080B590B000AF7860A0
:1029600007F12C0300221A605A609A60DA601A613B
:102970007B681B688B4A93421CD18B4B5B698A4AEC
:1029800043F400235361884B5B6903F40023BB626B
:10299000BB6A0123FB6202233B6302237B630323A5
:1029A000BB630223FB6307F12C0319467F4801F048
:1029B00093F8F2E07B681B68B3F1804F1DD17A4B2E
:1029C0005B69794A43F400335361774B5B6903F4E5
:1029D00000337B627B6A0123FB6202233B63022399
:1029E0007B630323BB630123FB6307F12C031946BD
:1029F0004FF0904001F070F8CFE07B681B686C4AA4
:102A000093421DD1684B5B69674A43F400335361BD
:102A1000654B5B6903F400333B623B6A4023FB6216
:102A200002233B6302237B630323BB630223FB6319
:102A300007F12C0319464FF0904001F04DF8ACE03F
:102A40007B681B685B4A93421ED1574B5B69564AB1
:102A500043F400335361544B5B6903F40033FB616F
:102A6000FB694FF40063FB6202233B6302237B6339
:102A70000323BB630A23FB6307F12C0319464FF0C2
:102A8000904001F029F888E07B681B684A4A93422D
:102A90001CD1454B5B69444A43F400235361424BCC
:102AA0005B6903F40023BB61BB694023FB62022323
:102AB0003B6302237B630323BB630423FB6307F1B4
:102AC0002C031946394801F007F866E07B681B685B
:102AD0003A4A93421DD1344B5B69334A43F4802315
:102AE0005361314B5B6903F480237B617B694FF455
:102AF0008043FB6202233B6302237B630323BB63AC
:102B00000123FB6307F12C0319462D4800F0E4FF75
:102B100043E07B681B682B4A93421CD1224B5B69C4
:102B2000214A43F4802353611F4B5B6903F48023E4
:102B30003B613B691023FB6202233B6302237B63FF
:102B40000323BB630123FB6307F12C0319461C48D5
:102B500000F0C2FF21E07B681B681B4A93421CD136
:102B6000114B5B69104A43F4003353610E4B5B69B0
:102B700003F40033FB60FB688023FB6202233B63AA
:102B800000237B630023BB630123FB6307F12C035A
:102B900019464FF0904000F09FFF00BF4037BD4600
:102BA00080BD00BF002C014000100240000800481A
:102BB0000004004000080040003401400040014093
:102BC00000040048004401400048014080B500AFC7
:102BD000144B154A1A60134B4FF416525A60114B9E
:102BE00000229A600F4B0022DA600E4B00221A611D
:102BF0000C4B0C225A610B4B00229A61094B0022AC
:102C0000DA61084B00221A62064B00225A6205481C
:102C100004F0E6FD0346002B01D0FEF7A7FD00BF40
:102C200080BD00BF50050020004C004080B500AFC3
:102C3000144B154A1A60134B4FF416425A60114B4D
:102C400000229A600F4B0022DA600E4B00221A61BC
:102C50000C4B0C225A610B4B00229A61094B00224B
:102C6000DA61084B00221A62064B00225A620548BC
:102C700004F0B6FD0346002B01D0FEF777FD00BF40
:102C800080BD00BFD80500200044004080B58CB056
:102C900000AF786007F11C0300221A605A609A6046
:102CA000DA601A617B681B68334A934231D1334B37
:102CB000DB69324A43F40023D361304BDB6903F410
:102CC0000023BB61BB692D4B5B692C4A43F4002395
:102CD00053612A4B5B6903F400237B617B694FF4EA
:102CE0004063FB6102233B6200237B620323BB62E0
:102CF0000523FB6207F11C031946214800F0ECFE96
:102D000000220521342000F045FE342000F05EFE54
:102D10002DE07B681B681B4A934228D1174BDB6967
:102D2000164A43F40033D361144BDB6903F40033D8
:102D30003B613B69114B5B69104A43F400335361BB
:102D40000E4B5B6903F40033FB60FB680C23FB61F3
:102D500002233B6200237B620023BB620723FB62EA
:102D600007F11C0319464FF0904000F0B5FE00BF7C
:102D70003037BD4680BD00BF004C0040001002400F
:102D80000008004800440040DFF834D0FEF708FF98
:102D90000C480D490D4A002302E0D458C4500433B6
:102DA000C4188C42F9D30A4A0A4C002301E013608C
:102DB0000432A242FBD30AF0CDF9FEF73DFCFEE758
:102DC00000000120000000206402002064F60008DA
:102DD00068020020242A0020FEE7000080B582B0AF
:102DE00000AF7860244B1B78462B37D0224B1B78E2
:102DF000422B33D0204B1B78472B2FD01E4B1B78F8
:102E0000492B2BD01C4B1B78482B27D01A4B1B78F7
:102E10004A2B23D0184B1B78522B1FD0164B1B78F4
:102E20004C2B1BD0144B1B78532B17D0124B1B78F9
:102E3000232B13D0104B1B78402B0FD00E4B1B783D
:102E4000212B0BD00C4B1B78572B07D00A4B1B7830
:102E5000552B03D0084B1B78772B03D1064B1A78E0
:102E6000064B1A7001220449786804F007FD00BF80
:102E70000837BD4680BD00BF60060020640000200A
:102E800080B582B000AF78607B68002B01D1012350
:102E900009E07B6818687B681B799BB21A46044975
:102EA00004F0ECFC002318460837BD4680BD00BF87
:102EB0006006002080B582B000AF78607B681A6839
:102EC0007B689B881946104600F090FF0346002B54
:102ED00014BF01230023DBB218460837BD4680BD6E
:102EE00080B584B000AF78600023FB607B68002B66
:102EF00001D101237EE07B685B68002B0AD17B68EF
:102F00001B6893F83E30DBB2012B14BF0123002372
:102F1000DBB245E07B685B68042B0AD17B681B68E9
:102F200093F83F30DBB2012B14BF01230023DBB247
:102F300036E07B685B68082B0AD17B681B6893F8D6
:102F40004030DBB2012B14BF01230023DBB227E0AA
:102F50007B685B680C2B0AD17B681B6893F8413057
:102F6000DBB2012B14BF01230023DBB218E07B6826
:102F70005B68102B0AD17B681B6893F84230DBB288
:102F8000012B14BF01230023DBB209E07B681B681F
:102F900093F84330DBB2012B14BF01230023DBB2D3
:102FA000002B01D0012325E07B689B68134AB2FB0C
:102FB000F3F3FB607B681B681B68FA68DA62FB68E6
:102FC00007EE903AB8EE677A7B68D3ED037A67EE46
:102FD000277A7B681B681B68FCEEE77A17EE902A5D
:102FE0005A637B681A687B685B681946104602F072
:102FF00031FD002318461037BD4680BD40420F000A
:1030000080B582B000AF78607B68002B01D10123CE
:1030100008E07B681A687B685B681946104602F016
:1030200025FE002318460837BD4680BD80B582B016
:1030300000AF786039607B68002B02D03B68002BC2
:1030400001D101230EE07868FFF7DAFF3B681A68C8
:103050007B689A603B685A687B68DA607868FFF73B
:103060003FFF002318460837BD4680BD80B582B0BB
:1030700000AF786039607B68002B02D03B68002B82
:1030800001D1012399E03B681B78213B322B00F2F0
:10309000908001A252F823F0AB310008B331000850
:1030A0009B310008B3310008B3310008B331000888
:1030B000B3310008B3310008B3310008B331000860
:1030C000B3310008B3310008B3310008B331000850
:1030D000B3310008B3310008B3310008B331000840
:1030E000B3310008B3310008B3310008B331000830
:1030F000B3310008B3310008B3310008B331000820
:10310000B3310008B3310008B3310008B33100080F
:10311000B3310008A3310008B33100086B31000857
:10312000B3310008B3310008B3310008653100083D
:10313000713100087D3100087731000883310008C3
:10314000B33100088F310008B3310008B3310008F3
:10315000B3310008B3310008B331000889310008E9
:103160009531000800F034F826E000F053F823E031
:1031700000F096F820E000F06FF81DE000F0D8F8BD
:103180001AE000F0B1F817E000F01AF914E000F0CE
:1031900041F911E000F0F0F80EE00A497868FFF715
:1031A00045FF09497868FFF741FF08497868FFF74C
:1031B0003DFF00F0E1F800BF002318460837BD4688
:1031C00080BD00BF78000020800000208800002023
:1031D00080B500AF00224FF480710D4800F01EFE54
:1031E00000224FF400710A4800F018FE01224FF44B
:1031F00000714FF0904000F011FE00224FF480610A
:103200004FF0904000F00AFE0023184680BD00BF3A
:103210000008004880B500AF00224FF480710D48CF
:1032200000F0FCFD00224FF400710A4800F0F6FDAA
:1032300000224FF400714FF0904000F0EFFD0122AA
:103240004FF480614FF0904000F0E8FD00231846F5
:1032500080BD00BF0008004880B500AF01224FF4D8
:1032600080710E4800F0DAFD00224FF400710B4827
:1032700000F0D4FD642000F0B1FA01224FF4007197
:103280004FF0904000F0CAFD00224FF480614FF0F3
:10329000904000F0C3FD0023184680BD00080048A0
:1032A00080B500AF00224FF480710E4800F0B6FDEB
:1032B00001224FF400710B4800F0B0FD642000F0D3
:1032C0008DFA01224FF400714FF0904000F0A6FDFE
:1032D00000224FF480614FF0904000F09FFD0023EA
:1032E000184680BD0008004880B500AF01224FF4A9
:1032F00080710E4800F092FD00224FF400710B48DF
:1033000000F08CFD642000F069FA00224FF4007197
:103310004FF0904000F082FD01224FF480614FF0A9
:10332000904000F07BFD0023184680BD0008004857
:1033300080B500AF00224FF480710E4800F06EFDA2
:1033400001224FF400710B4800F068FD642000F08A
:1033500045FA00224FF400714FF0904000F05EFDFE
:1033600001224FF480614FF0904000F057FD0023A0
:10337000184680BD0008004880B500AF00224FF419
:1033800080710E4800F04AFD00224FF400710B4896
:1033900000F044FD322000F021FA01224FF40071C8
:1033A0004FF0904000F03AFD01224FF480614FF061
:1033B000904000F033FD0023184680BD000800480F
:1033C00080B582B000AF78607B68002B01D101230B
:1033D0001AE001224FF480710D4800F01FFD002219
:1033E0004FF400710A4800F019FD00224FF40071FB
:1033F0004FF0904000F012FD00224FF480614FF03A
:10340000904000F00BFD002318460837BD4680BDF4
:103410000008004880B500AF00224FF480710D48CD
:1034200000F0FCFC01224FF400710A4800F0F6FCA9
:1034300000224FF400714FF0904000F0EFFC0022AA
:103440004FF480614FF0904000F0E8FC00231846F4
:1034500080BD00BF0008004890B585B002AF78601D
:103460007B681B7F022B45D1244B1B78DBB21A46AD
:10347000234B9B5C002B14D10021786802F0F6FBF3
:103480001E4B1B78DBB29B001E4A13441B4A12786A
:10349000D2B211461A4A0A441946786800F0E0F898
:1034A00028E0164B1B78DBB21A46154B9B5C012BB0
:1034B00020D1124B1B78DBB29B00124A99180F4B9C
:1034C0001B78DBB29B00104A1A440C4B1B78DBB212
:1034D0009B000E481844094B1B78DBB21C46084B76
:1034E000234400930346786800F0E4F804217868E8
:1034F00002F004FE00BF0C37BD4690BD98060020C8
:103500009C060020A4060020BC060020D406002053
:1035100080B582B000AF78607B68002B01D10123B9
:103520000FE09FED0A0A42F21071786800F010F87F
:103530007B681A687B689B681946104602F094FC09
:10354000002318460837BD4680BD00BF6F12833A7E
:1035500080B584B000AFF860B96087ED010AFB6800
:10356000002B01D1012377E0FB685B68002B0AD1B7
:10357000FB681B6893F83E30DBB2012B14BF0123BC
:103580000023DBB245E0FB685B68042B0AD1FB68D3
:103590001B6893F83F30DBB2012B14BF01230023DB
:1035A000DBB236E0FB685B68082B0AD1FB681B685E
:1035B00093F84030DBB2012B14BF01230023DBB2B0
:1035C00027E0FB685B680C2B0AD1FB681B6893F84B
:1035D0004130DBB2012B14BF01230023DBB218E022
:1035E000FB685B68102B0AD1FB681B6893F84230BC
:1035F000DBB2012B14BF01230023DBB209E0FB681F
:103600001B6893F84330DBB2012B14BF0123002366
:10361000DBB2002B01D001231EE0FB681B681B6896
:10362000BA68DA62BB6807EE903AB8EE677AD7ED0F
:10363000017A67EE277AFB681B681B68FCEEE77A65
:1036400017EE902A5A63FB681A68FB685B68194694
:10365000104602F0FFF9002318461037BD4680BD22
:1036600080B584B000AFF860B9607A600421F86872
:1036700003F09CF90246BB681A60FB681B684FF6B2
:10368000FF72DA627B6801221A70FB681B681A6A93
:10369000FB681B6822F0A0021A62FB681B681A6AAA
:1036A000FB681B6842F020021A6200BF1037BD465B
:1036B00080BD000090B585B000AFF860B9607A6059
:1036C0003B600421F86803F071F902467B681A60D8
:1036D000FB681B6800225A627B681A68BB681B681B
:1036E0009A4207D37B681A68BB681B68D21A3B688A
:1036F0001A6009E07B681A68BB681B68D31A03F577
:103700007F43FF333A6813603B681B6807EE903ACB
:10371000F8EE677A9FED137AC7EE876A124B1B7833
:10372000DBB21C4616EE900AFCF716FF02460B466B
:103730000E48E1000144C1E900233B6A00221A70EF
:10374000FB681B681A6AFB681B6822F0A0021A62F9
:10375000FB681A68FB681B68126A1A6200BF14379C
:10376000BD4690BD00006842980600206806002013
:1037700080B500AF084B1B68074A43F01003136085
:10378000032000F0FCF80F20FEF71EF8FDF7F4FF11
:103790000023184680BD00BF0020024080B400AF67
:1037A000064B1B781A46064B1B681344044A1360E9
:1037B00000BFBD465DF8047B704700BF9400002049
:1037C000EC06002080B400AF034B1B681846BD46D2
:1037D0005DF8047B704700BFEC06002080B584B024
:1037E00000AF7860FFF7EEFFB8607B68FB60FB68B6
:1037F000B3F1FF3F05D00A4B1B781A46FB68134410
:10380000FB6000BFFFF7DEFF0246BB68D31AFA6811
:103810009A42F7D800BF00BF1037BD4680BD00BF39
:103820009400002080B485B000AF78607B6803F01E
:103830000703FB600C4BDB68BB60BA684FF6FF0305
:103840001340BB60FB681A02BB68134343F0BF63BD
:1038500043F40033BB60044ABB68D36000BF143735
:10386000BD465DF8047B704700ED00E080B400AF1A
:10387000044BDB681B0A03F007031846BD465DF8DE
:10388000047B704700ED00E080B483B000AF0346D6
:10389000FB7197F90730002B0BDBFB7903F01F025C
:1038A000074997F907305B09012000FA02F241F855
:1038B000232000BF0C37BD465DF8047B704700BF76
:1038C00000E100E080B483B000AF03463960FB71D3
:1038D00097F90730002B0ADB3B68DAB20C4997F9FD
:1038E00007301201D2B20B4483F800230AE03B6890
:1038F000DAB20849FB7903F00F03043B1201D2B29C
:103900000B441A7600BF0C37BD465DF8047B704748
:1039100000E100E000ED00E080B489B000AFF860A5
:10392000B9607A60FB6803F00703FB61FB69C3F1D0
:103930000703042B28BF0423BB61FB690433062B58
:1039400002D9FB69033B00E000237B614FF0FF32AB
:10395000BB6902FA03F3DA43BB681A407B699A40F9
:103960004FF0FF317B6901FA03F3D9437B680B40C9
:10397000134318462437BD465DF8047B704780B575
:1039800082B000AF78607868FFF74CFF00BF08375F
:10399000BD4680BD80B586B000AF0346B9607A6091
:1039A000FB7300237B61FFF761FF78617A68B96878
:1039B0007869FFF7B1FF024697F90F3011461846B4
:1039C000FFF780FF00BF1837BD4680BD80B582B0CD
:1039D00000AF0346FB7197F907301846FFF754FF15
:1039E00000BF0837BD4680BD80B483B000AF7860AB
:1039F0007B6893F82130022B08D07B6804229A63FD
:103A00007B68002283F82020012320E07B681B686C
:103A10001A687B681B6822F00E021A607B681B68BC
:103A20001A687B681B6822F001021A607B681A6CB6
:103A30007B68DB6B012101FA02F25A607B6801228C
:103A400083F821207B68002283F820200023184679
:103A50000C37BD465DF8047B704780B584B000AF7D
:103A600078600023FB737B6893F82130022B05D02C
:103A70007B6804229A630123FB7327E07B681B6841
:103A80001A687B681B6822F00E021A607B681B684C
:103A90001A687B681B6822F001021A607B681A6C46
:103AA0007B68DB6B012101FA02F25A607B6801221C
:103AB00083F821207B68002283F820207B685B6BE1
:103AC000002B03D07B685B6B78689847FB7B1846BC
:103AD0001037BD4680BD000080B487B000AF78606D
:103AE000396000237B6160E13B681A6801217B69D2
:103AF00001FA03F31340FB60FB68002B00F05281D6
:103B00003B685B6803F00303012B05D03B685B68EF
:103B100003F00303022B30D17B689B683B617B6918
:103B20005B00032202FA03F3DB433A6913403B6173
:103B30003B68DA687B695B0002FA03F33A69134376
:103B40003B617B683A699A607B685B683B610122F4
:103B50007B6902FA03F3DB433A6913403B613B683C
:103B60005B681B0903F001027B6902FA03F33A69FF
:103B700013433B617B683A695A603B685B6803F0BA
:103B80000303032B17D07B68DB683B617B695B0019
:103B9000032202FA03F3DB433A6913403B613B68BB
:103BA0009A687B695B0002FA03F33A6913433B614D
:103BB0007B683A69DA603B685B6803F00303022BB9
:103BC00023D17B69DA087B68083253F822303B61E5
:103BD0007B6903F007039B000F2202FA03F3DB4328
:103BE0003A6913403B613B681A697B6903F007033C
:103BF0009B0002FA03F33A6913433B617B69DA08DD
:103C00007B680832396943F822107B681B683B6186
:103C10007B695B00032202FA03F3DB433A6913403A
:103C20003B613B685B6803F003027B695B0002FA5F
:103C300003F33A6913433B617B683A691A603B6856
:103C40005B6803F44033002B00F0AC805E4B9B6953
:103C50005D4A43F0010393615B4B9B6903F00103F1
:103C6000BB60BB68594A7B699B08023352F823301A
:103C70003B617B6903F003039B000F2202FA03F30D
:103C8000DB433A6913403B617B68B3F1904F25D029
:103C90007B684F4A93421FD07B684E4A934219D0AB
:103CA0007B684D4A934213D07B684C4A93420DD0B7
:103CB0007B684B4A934207D07B684A4A934201D1C2
:103CC00006230CE007230AE0052308E0042306E0AE
:103CD000032304E0022302E0012300E000237A69C9
:103CE00002F00302920093403A6913433B61374963
:103CF0007B699B0802333A6941F823203A4B9B6861
:103D00003B61FB68DB433A6913403B613B685B689E
:103D100003F48013002B03D03A69FB6813433B6123
:103D2000314A3B699360304BDB683B61FB68DB43A6
:103D30003A6913403B613B685B6803F40013002B56
:103D400003D03A69FB6813433B61274A3B69D36060
:103D5000254B5B683B61FB68DB433A6913403B6181
:103D60003B685B6803F40033002B03D03A69FB68BF
:103D700013433B611C4A3B6953601B4B1B683B610F
:103D8000FB68DB433A6913403B613B685B6803F4C3
:103D90008033002B03D03A69FB6813433B61124A1E
:103DA0003B6913607B6901337B613B681A687B69FF
:103DB00022FA03F3002B7FF497AE00BF00BF1C373D
:103DC000BD465DF8047B70470010024000000140D2
:103DD0000004004800080048000C0048001000489B
:103DE00000140048001800480004014080B485B069
:103DF00000AF78600B467B807B681A697B88134034
:103E0000002B02D00123FB7301E00023FB73FB7B3B
:103E100018461437BD465DF8047B704780B483B004
:103E200000AF78600B467B8013467B707B78002B5D
:103E300003D07A887B689A6102E07A887B689A620C
:103E400000BF0C37BD465DF8047B704780B5ADF50B
:103E5000027D00AF07F50273A3F50173186007F543
:103E60000273A3F501731B68002B02D1012301F03B
:103E70003AB807F50273A3F501731B681B6803F0DA
:103E80000103002B00F06F81B54B5B6803F00C035E
:103E9000042B0CD0B24B5B6803F00C03082B5CD1F5
:103EA000AF4B5B6803F4C033B3F5803F55D14FF49B
:103EB0000033C7F8F431D7F8F43193FAA3F3C7F815
:103EC000F031D7F8F031B3FA83F3DBB25B09DBB240
:103ED00043F00103DBB2012B02D1A14B1B6815E0BB
:103EE0004FF40033C7F8EC31D7F8EC3193FAA3F371
:103EF000C7F8E8314FF40033C7F8E431D7F8E431BC
:103F000093FAA3F3C7F8E031954B5B6A4FF40032A4
:103F1000C7F8DC21D7F8DC2192FAA2F2C7F8D82141
:103F2000D7F8D821B2FA82F2D2B242F02002D2B24D
:103F300002F01F02012101FA02F21340002B00F0EF
:103F4000118107F50273A3F501731B685B68002BF1
:103F500040F00881012300F0C6BF07F50273A3F506
:103F600001731B685B68B3F5803F06D17C4B1B680F
:103F70007B4A43F48033136036E007F50273A3F500
:103F800001731B685B68002B0CD1754B1B68744A6E
:103F900023F480331360724B1B68714A23F480232F
:103FA000136021E007F50273A3F501731B685B68DA
:103FB000B3F5A02F0CD16A4B1B68694A43F48023E8
:103FC0001360674B1B68664A43F4803313600BE051
:103FD000634B1B68624A23F480331360604B1B6899
:103FE0005F4A23F48023136007F50273A3F501737E
:103FF0001B685B68002B59D0FFF7E4FBC7F8000291
:104000000AE0FFF7DFFB0246D7F80032D31A642B31
:1040100002D9032300F067BF4FF40033C7F8D4314F
:10402000D7F8D43193FAA3F3C7F8D031D7F8D03109
:10403000B3FA83F3DBB25B09DBB243F00103DBB21B
:10404000012B02D1464B1B6815E04FF40033C7F833
:10405000CC31D7F8CC3193FAA3F3C7F8C8314FF479
:104060000033C7F8C431D7F8C43193FAA3F3C7F8C3
:10407000C0313B4B5B6A4FF40032C7F8BC21D7F824
:10408000BC2192FAA2F2C7F8B821D7F8B821B2FA47
:1040900082F2D2B242F02002D2B202F01F0201211B
:1040A00001FA02F21340002BABD05CE0FFF78AFB71
:1040B000C7F800020AE0FFF785FB0246D7F8003296
:1040C000D31A642B02D9032300F00DBF4FF4003341
:1040D000C7F8B431D7F8B43193FAA3F3C7F8B031C5
:1040E000D7F8B031B3FA83F3DBB25B09DBB243F04C
:1040F0000103DBB2012B02D1194B1B6815E04FF411
:104100000033C7F8AC31D7F8AC3193FAA3F3C7F852
:10411000A8314FF40033C7F8A431D7F8A43193FA8B
:10412000A3F3C7F8A0310E4B5B6A4FF40032C7F817
:104130009C21D7F89C2192FAA2F2C7F89821D7F8CF
:104140009821B2FA82F2D2B242F02002D2B202F048
:104150001F02012101FA02F21340002BABD102E051
:104160000010024000BF07F50273A3F501731B683E
:104170001B6803F00203002B00F07F81A74B5B68F4
:1041800003F00C03002B0CD0A44B5B6803F00C0372
:10419000082B73D1A14B5B6803F4C033B3F5004F18
:1041A0006CD10223C7F89431D7F8943193FAA3F372
:1041B000C7F89031D7F89031B3FA83F3DBB25B09DB
:1041C000DBB243F00103DBB2012B02D1934B1B683E
:1041D00013E00223C7F88C31D7F88C3193FAA3F39C
:1041E000C7F888310223C7F88431D7F8843193FAAD
:1041F000A3F3C7F88031894B5B6A0222C7F87C21A0
:10420000D7F87C2192FAA2F2C7F87821D7F8782162
:10421000B2FA82F2D2B242F02002D2B202F01F020F
:10422000012101FA02F21340002B0AD007F50273B4
:10423000A3F501731B68DB68012B02D0012300F09A
:1042400052BE764B1B6823F0F80207F50273A3F504
:1042500001731B681B69F821C7F87411D7F8741132
:1042600091FAA1F1C7F87011D7F87011B1FA81F184
:10427000C9B28B40694913430B60FEE007F5027336
:10428000A3F501731B68DB68002B00F08880012315
:10429000C7F86C31D7F86C3193FAA3F3C7F86831DB
:1042A000D7F86831B3FA83F3DBB203F1845303F533
:1042B00084139B001A4601231360FFF783FAC7F8A3
:1042C00000020AE0FFF77EFA0246D7F80032D31A5E
:1042D000022B02D9032300F006BE0223C7F8643183
:1042E000D7F8643193FAA3F3C7F86031D7F8603197
:1042F000B3FA83F3DBB25B09DBB243F00103DBB259
:10430000012B02D1454B1B6813E00223C7F85C3137
:10431000D7F85C3193FAA3F3C7F858310223C7F8F2
:104320005431D7F8543193FAA3F3C7F850313B4BCB
:104330005B6A0222C7F84C21D7F84C2192FAA2F20C
:10434000C7F84821D7F84821B2FA82F2D2B242F037
:104350002002D2B202F01F02012101FA02F2134040
:10436000002BAFD02D4B1B6823F0F80207F502732A
:10437000A3F501731B681B69F821C7F84411D7F82E
:10438000441191FAA1F1C7F84011D7F84011B1FAE0
:1043900081F1C9B28B40214913430B606DE00123C9
:1043A000C7F83C31D7F83C3193FAA3F3C7F838315A
:1043B000D7F83831B3FA83F3DBB203F1845303F552
:1043C00084139B001A4600231360FFF7FBF9C7F81C
:1043D00000020AE0FFF7F6F90246D7F80032D31AD6
:1043E000022B02D9032300F07EBD0223C7F834312B
:1043F000D7F8343193FAA3F3C7F83031D7F8303116
:10440000B3FA83F3DBB25B09DBB243F00103DBB247
:10441000012B05D1014B1B6816E000BF00100240C4
:104420000223C7F82C31D7F82C3193FAA3F3C7F83D
:1044300028310223C7F82431D7F8243193FAA3F3A3
:10444000C7F82031BF4B5B6A0222C7F81C21D7F89E
:104450001C2192FAA2F2C7F81821D7F81821B2FA53
:1044600082F2D2B242F02002D2B202F01F02012147
:1044700001FA02F21340002BACD107F50273A3F549
:1044800001731B681B6803F00803002B00F0138105
:1044900007F50273A3F501731B685B69002B7CD0E1
:1044A0000123C7F81431D7F8143193FAA3F3C7F8EE
:1044B0001031D7F81031B3FA83F3DBB21A46A24BAE
:1044C00013449B001A4601231360FFF77BF9C7F8DA
:1044D00000020AE0FFF776F90246D7F80032D31A55
:1044E000022B02D9032300F0FEBC0223C7F80C31D3
:1044F000D7F80C3193FAA3F207F50273A3F5807392
:104500001A6007F50273A3F5827302221A6007F599
:104510000273A3F582731B6893FAA3F207F5027383
:10452000A3F584731A6007F50273A3F5867302225C
:104530001A6007F50273A3F586731B6893FAA3F25A
:1045400007F50273A3F588731A607E4B5A6A07F564
:104550000273A3F58A730221196007F50273A3F5AC
:104560008A731B6893FAA3F107F50273A3F58C73A2
:10457000196007F50273A3F58C731B68B3FA83F314
:10458000DBB243F06003DBB203F01F03012101FA49
:1045900003F31340002B9DD08DE007F50273A3F5C4
:1045A0008E7301221A6007F50273A3F58E731B68E0
:1045B00093FAA3F207F50273A3F590731A6007F557
:1045C0000273A3F590731B68B3FA83F3DBB21A4648
:1045D0005D4B13449B001A4600231360FFF7F2F86B
:1045E000C7F800020AE0FFF7EDF80246D7F80032FC
:1045F000D31A022B02D9032300F075BC07F502730E
:10460000A3F5927302221A6007F50273A3F5927361
:104610001B6893FAA3F207F50273A3F594731A606B
:1046200007F50273A3F5967302221A6007F5027369
:10463000A3F596731B6893FAA3F207F50273A3F52B
:1046400098731A6007F50273A3F59A7302221A6031
:1046500007F50273A3F59A731B6893FAA3F207F5A3
:104660000273A3F59C731A60364B5A6A07F50273FE
:10467000A3F59E730221196007F50273A3F59E73DB
:104680001B6893FAA3F107F50273A3F5A0731960F1
:1046900007F50273A3F5A0731B68B3FA83F3DBB2CB
:1046A00043F06003DBB203F01F03012101FA03F3BF
:1046B0001340002B97D107F50273A3F501731B6814
:1046C0001B6803F00403002B00F0A581002387F88A
:1046D00007321C4BDB6903F08053002B16D1194BBA
:1046E000DB69184A43F08053D361164BDB6903F052
:1046F000805207F50273A3F5FE731A6007F5027383
:10470000A3F5FE731B68012387F807320F4B1B6864
:1047100003F48073002B21D10C4B1B680B4A43F42C
:1047200080731360FFF74EF8C7F8000210E0FFF740
:1047300049F80246D7F80032D31A642B08D903236C
:10474000D1E300BF001002402081901000700040B3
:104750008D4B1B6803F48073002BE8D007F50273C0
:10476000A3F501731B689B68012B06D1874B1B6A5D
:10477000864A43F00103136235E007F50273A3F59F
:1047800001731B689B68002B0CD1804B1B6A7F4A0E
:1047900023F0010313627D4B1B6A7C4A23F0040360
:1047A000136220E007F50273A3F501731B689B6891
:1047B000052B0CD1754B1B6A744A43F0040313623A
:1047C000724B1B6A714A43F0010313620BE06F4B9B
:1047D0001B6A6E4A23F0010313626C4B1B6A6B4A1F
:1047E00023F00403136207F50273A3F501731B683A
:1047F0009B68002B00F08180FEF7E4FFC7F8000201
:104800000BE0FEF7DFFF0246D7F80032D31A41F281
:104810008832934201D9032365E307F50273A3F5B8
:10482000A27302221A6007F50273A3F5A2731B6834
:1048300093FAA3F207F50273A3F5A4731A6007F5C0
:104840000273A3F5A67302221A6007F50273A3F59B
:10485000A6731B6893FAA3F207F50273A3F5A87376
:104860001A6007F50273A3F5A8731B68B3FA83F304
:10487000DBB25B09DBB243F00203DBB2022B02D1F5
:10488000424B1B6A13E007F50273A3F5AA730222D9
:104890001A6007F50273A3F5AA731B6893FAA3F2D3
:1048A00007F50273A3F5AC731A60384B5B6A07F522
:1048B0000272A2F5AE720221116007F50272A2F532
:1048C000AE72126892FAA2F107F50272A2F5B07206
:1048D000116007F50272A2F5B0721268B2FA82F2A4
:1048E000D2B242F04002D2B202F01F02012101FA1C
:1048F00002F21340002B84D083E0FEF763FFC7F879
:1049000000020BE0FEF75EFF0246D7F80032D31A32
:1049100041F28832934201D90323E4E207F502739E
:10492000A3F5B27302221A6007F50273A3F5B273FE
:104930001B6893FAA3F207F50273A3F5B4731A6028
:1049400007F50273A3F5B67302221A6007F5027326
:10495000A3F5B6731B6893FAA3F207F50273A3F5E8
:10496000B8731A6007F50273A3F5B8731B68B3FA3E
:1049700083F3DBB25B09DBB243F00203DBB2022B51
:1049800006D1024B1B6A17E0007000400010024085
:1049900007F50273A3F5BA7302221A6007F50273D2
:1049A000A3F5BA731B6893FAA3F207F50273A3F594
:1049B000BC731A60B34B5B6A07F50272A2F5BE7254
:1049C0000221116007F50272A2F5BE72126892FA16
:1049D000A2F107F50272A2F5C072116007F502722A
:1049E000A2F5C0721268B2FA82F2D2B242F040026C
:1049F000D2B202F01F02012101FA02F21340002B91
:104A000080D197F80732012B05D19E4BDB699D4A77
:104A100023F08053D36107F50273A3F501731B687C
:104A20009B69002B00F05E82964B5B6803F00C03E1
:104A3000082B00F01F8207F50273A3F501731B68B2
:104A40009B69022B40F0708107F50273A3F5C273D6
:104A50004FF080721A6007F50273A3F5C2731B68EA
:104A600093FAA3F207F50273A3F5C4731A6007F56E
:104A70000273A3F5C4731B68B3FA83F3DBB203F1CB
:104A8000845303F584139B001A4600231360FEF73A
:104A900099FEC7F8000209E0FEF794FE0246D7F837
:104AA0000032D31A022B01D903231CE207F502734B
:104AB000A3F5C6734FF000721A6007F50273A3F5F1
:104AC000C6731B6893FAA3F207F50273A3F5C873C4
:104AD0001A6007F50273A3F5C8731B68B3FA83F372
:104AE000DBB25B09DBB243F00103DBB2012B02D185
:104AF000644B1B6827E007F50273A3F5CA734FF0F8
:104B000000721A6007F50273A3F5CA731B6893FA63
:104B1000A3F207F50273A3F5CC731A6007F50273CD
:104B2000A3F5CE734FF000721A6007F50273A3F578
:104B3000CE731B6893FAA3F207F50273A3F5D07343
:104B40001A60504B5B6A07F50272A2F5D2724FF001
:104B50000071116007F50272A2F5D272126892FA22
:104B6000A2F107F50272A2F5D472116007F5027284
:104B7000A2F5D4721268B2FA82F2D2B242F02002E6
:104B8000D2B202F01F02012101FA02F21340002BFF
:104B900082D13C4BDB6A23F00F0207F50273A3F5C9
:104BA00001731B685B6A37491343CB62354B5B6803
:104BB00023F4761207F50273A3F501731B68196AD3
:104BC00007F50273A3F501731B68DB690B432D49DD
:104BD00013434B6007F50273A3F5D6734FF0807251
:104BE0001A6007F50273A3F5D6731B6893FAA3F254
:104BF00007F50273A3F5D8731A6007F50273A3F5DE
:104C0000D8731B68B3FA83F3DBB203F1845303F563
:104C100084139B001A4601231360FEF7D3FDC7F8E7
:104C2000000209E0FEF7CEFD0246D7F80032D31AA3
:104C3000022B01D9032356E107F50273A3F5DA73BA
:104C40004FF000721A6007F50273A3F5DA731B6860
:104C500093FAA3F207F50273A3F5DC731A6007F564
:104C60000273A3F5DC731B68B3FA83F3DBB25B0951
:104C7000DBB243F00103DBB2012B05D1014B1B6812
:104C80002AE000BF0010024007F50273A3F5DE73AF
:104C90004FF000721A6007F50273A3F5DE731B680C
:104CA00093FAA3F207F50273A3F5E0731A6007F510
:104CB0000273A3F5E2734FF000721A6007F50273F6
:104CC000A3F5E2731B6893FAA3F207F50273A3F549
:104CD000E4731A60864B5B6A07F50272A2F5E6720E
:104CE0004FF00071116007F50272A2F5E6721268CA
:104CF00092FAA2F107F50272A2F5E872116007F5C7
:104D00000272A2F5E8721268B2FA82F2D2B242F0EE
:104D10002002D2B202F01F02012101FA02F2134076
:104D2000002B3FF47FAFDDE007F50273A3F5EA73D4
:104D30004FF080721A6007F50273A3F5EA731B68DF
:104D400093FAA3F207F50273A3F5EC731A6007F563
:104D50000273A3F5EC731B68B3FA83F3DBB203F1C0
:104D6000845303F584139B001A4600231360FEF757
:104D700029FDC7F8000209E0FEF724FD0246D7F836
:104D80000032D31A022B01D90323ACE007F50273DA
:104D9000A3F5EE734FF000721A6007F50273A3F5E6
:104DA000EE731B6893FAA3F207F50273A3F5F07391
:104DB0001A6007F50273A3F5F0731B68B3FA83F367
:104DC000DBB25B09DBB243F00103DBB2012B02D1A2
:104DD000474B1B6827E007F50273A3F5F2734FF00A
:104DE00000721A6007F50273A3F5F2731B6893FA59
:104DF000A3F207F50273A3F5F4731A6007F50273C3
:104E0000A3F5F6734FF000721A6007F50273A3F56D
:104E1000F6731B6893FAA3F207F50273A3F5F87310
:104E20001A60334B5B6A07F50272A2F5FA724FF013
:104E30000071116007F50272A2F5FA72126892FA17
:104E4000A2F107F50272A2F5FC72116007F5027279
:104E5000A2F5FC721268B2FA82F2D2B242F02002DB
:104E6000D2B202F01F02012101FA02F21340002B1C
:104E700082D137E007F50273A3F501731B689B69C4
:104E8000012B01D101232EE0194B5B68C7F8FC31DF
:104E9000174BDB6AC7F8F831D7F8FC3103F4C0329E
:104EA00007F50273A3F501731B68DB699A4217D1FA
:104EB000D7F8FC3103F4701207F50273A3F5017300
:104EC0001B681B6A9A420BD1D7F8F83103F00F0226
:104ED00007F50273A3F501731B685B6A9A4201D060
:104EE000012300E00023184607F50277BD4680BD88
:104EF0000010024080B59EB000AF7860396000239A
:104F00007B677B68002B01D1012362E1904B1B681A
:104F100003F007033A689A4210D98D4B1B6823F0BF
:104F200007028B493B6813430B60894B1B6803F0F6
:104F300007033A689A4201D001234AE17B681B6863
:104F400003F00203002B08D0824B5B6823F0F002D1
:104F50007B689B687F4913434B607B681B6803F049
:104F60000103002B00F0DC807B685B68012B3CD1E7
:104F70004FF400333B673B6F93FAA3F3FB66FB6E82
:104F8000B3FA83F3DBB25B09DBB243F00103DBB2BC
:104F9000012B02D16F4B1B680FE04FF40033BB664F
:104FA000BB6E93FAA3F37B664FF400333B663B6E14
:104FB00093FAA3F3FB65674B5B6A4FF40032BA6563
:104FC000BA6D92FAA2F27A657A6DB2FA82F2D2B230
:104FD00042F02002D2B202F01F02012101FA02F2D5
:104FE0001340002B7BD10123F3E07B685B68022B2D
:104FF0003CD14FF000733B653B6D93FAA3F3FB6428
:10500000FB6CB3FA83F3DBB25B09DBB243F0010361
:10501000DBB2012B02D14F4B1B680FE04FF0007346
:10502000BB64BB6C93FAA3F37B644FF000733B64E7
:105030003B6C93FAA3F3FB63464B5B6A4FF0007241
:10504000BA63BA6B92FAA2F27A637A6BB2FA82F21C
:10505000D2B242F02002D2B202F01F02012101FAC4
:1050600002F21340002B3AD10123B2E002233B634A
:105070003B6B93FAA3F3FB62FB6AB3FA83F3DBB2F5
:105080005B09DBB243F00103DBB2012B02D1314BF0
:105090001B680DE00223BB62BB6A93FAA3F37B6239
:1050A00002233B623B6A93FAA3F3FB61294B5B6AE1
:1050B0000222BA61BA6992FAA2F27A617A69B2FA04
:1050C00082F2D2B242F02002D2B202F01F020121DB
:1050D00001FA02F21340002B01D1012379E01D4BAC
:1050E0005B6823F003027B685B681A4913434B60DB
:1050F000FEF768FB78670AE0FEF764FB02467B6F09
:10510000D31A41F28832934201D9032361E0114B53
:105110005B6803F00C027B685B689B009A42EBD1F2
:105120000B4B1B6803F007033A689A4214D2084BF2
:105130001B6823F0070206493B6813430B60044BCE
:105140001B6803F007033A689A4205D0012340E048
:1051500000200240001002407B681B6803F004033B
:10516000002B08D01D4B5B6823F4E0627B68DB6892
:105170001A4913434B607B681B6803F00803002B3C
:1051800009D0164B5B6823F460527B681B69DB0017
:10519000124913434B6000F029F801460F4B5B683E
:1051A00003F0F003F0223A613A6992FAA2F2FA604F
:1051B000FA68B2FA82F2D2B2D340094AD35C21FA39
:1051C00003F3084A1360084B1B681846FCF7FCFA07
:1051D000002318467837BD4680BD00BF001002404E
:1051E000B0F20008600000209000002080B48BB076
:1051F00000AF0023FB610023BB6100237B6200231F
:105200007B6100233B622A4B5B68FB61FB6903F017
:105210000C03042B02D0082B03D03FE0254B3B624C
:105220003FE0FB6903F470134FF47012BA60BA6880
:1052300092FAA2F27A607A68B2FA82F2D2B2D340DB
:105240001D4AD35C7B611A4BDB6A03F00F030F220C
:105250003A613A6992FAA2F2FA60FA68B2FA82F214
:10526000D2B2D340154AD35CBB61FB6903F48033EF
:10527000002B08D00F4ABB69B2FBF3F27B6902FB3B
:1052800003F37B6207E00B4ABB69B2FBF3F27B6975
:1052900002FB03F37B627B6A3B6202E0054B3B62ED
:1052A00000BF3B6A18462C37BD465DF8047B70474B
:1052B0000010024000127A00C8F20008D8F200087C
:1052C00080B400AF034B1B681846BD465DF8047BF5
:1052D000704700BF6000002080B582B000AFFFF7CC
:1052E000EFFF01460B4B5B6803F4E0634FF4E062B1
:1052F0007A607A6892FAA2F23A603A68B2FA82F276
:10530000D2B2D340044AD35C21FA03F318460837DB
:10531000BD4680BD00100240C0F2000880B582B0DA
:1053200000AFFFF7CDFF01460B4B5B6803F4605302
:105330004FF460527A607A6892FAA2F23A603A6860
:10534000B2FA82F2D2B2D340044AD35C21FA03F318
:1053500018460837BD4680BD00100240C0F2000864
:1053600080B483B000AF786039607B680F221A6028
:10537000124B5B6803F003027B685A600F4B5B685B
:1053800003F0F0027B689A600C4B5B6803F4E06208
:105390007B68DA60094B5B68DB0803F4E0627B68DA
:1053A0001A61074B1B6803F007023B681A6000BFD5
:1053B0000C37BD465DF8047B704700BF001002400B
:1053C0000020024080B592B000AF786000233B64BB
:1053D0000023FB63002387F847307B681B6803F4D6
:1053E0008033002B00F0D4804E4BDB6903F08053F8
:1053F000002B0ED14B4BDB694A4A43F08053D361FB
:10540000484BDB6903F08053BB60BB68012387F81E
:105410004730454B1B6803F48073002B18D1424B77
:105420001B68414A43F480731360FEF7CBF938647C
:1054300008E0FEF7C7F902463B6CD31A642B01D98A
:105440000323D6E1384B1B6803F48073002BF0D0A4
:10545000344B1B6A03F44073FB63FB6B002B00F0BF
:1054600084807B685B6803F44073FA6B9A427CD05B
:105470002C4B1B6A23F44073FB634FF480333B6374
:105480003B6B93FAA3F3FB62FB6AB3FA83F3DBB2E1
:105490001A46264B13449B001A46012313604FF40F
:1054A0008033BB63BB6B93FAA3F37B637B6BB3FA71
:1054B00083F3DBB21A461D4B13449B001A460023AC
:1054C0001360184AFB6B1362FB6B03F00103002BA4
:1054D0004BD0FEF777F938640AE0FEF773F902461D
:1054E0003B6CD31A41F28832934201D9032380E105
:1054F0000223BB62BB6A93FAA3F37B6202233B6283
:105500003B6A93FAA3F3FB61FB69B3FA83F3DBB263
:105510005B09DBB243F00203DBB2022B08D1014B83
:105520001B6A0DE0001002400070004000819010E6
:105530000223BB61BB6993FAA3F37B619A4B5B6A5D
:1055400002223A613A6992FAA2F2FA60FA68B2FA71
:1055500082F2D2B242F04002D2B202F01F02012126
:1055600001FA02F21340002BB7D08F4B1B6A23F4D1
:1055700040727B685B688C4913430B6297F8473035
:10558000012B05D1884BDB69874A23F08053D36117
:105590007B681B6803F00103002B08D0824B1B6B58
:1055A00023F003027B689B687F4913430B637B688E
:1055B0001B6803F00203002B08D07B4B1B6B23F40A
:1055C00040327B68DB68784913430B637B681B6858
:1055D00003F00403002B08D0734B1B6B23F4402211
:1055E0007B681B69704913430B637B681B6803F07E
:1055F0002003002B08D06C4B1B6B23F010027B6840
:10560000DB69694913430B637B681B6803F4003350
:10561000002B08D0644B5B6823F480027B685B6DD1
:10562000614913434B607B681B6803F04003002B08
:1056300008D05D4B1B6B23F020027B681B6A5A4924
:1056400013430B637B681B6803F48023002B08D093
:10565000554B1B6B23F040027B685B6A5249134336
:105660000B637B681B6803F00803002B08D04E4BCC
:105670001B6B23F440127B685B694B4913430B633C
:105680007B681B6803F01003002B08D0464B1B6B94
:1056900023F440027B689B69434913430B637B6897
:1056A0001B6803F40073002B08D03F4B5B6823F4A6
:1056B00000027B681B6B3C4913434B607B681B6893
:1056C00003F08003002B08D0374BDB6A23F4F87219
:1056D0007B689B6A34491343CB627B681B6803F485
:1056E0008073002B08D0304BDB6A23F478527B6840
:1056F000DB6A2D491343CB627B681B6803F480533C
:10570000002B08D0284B1B6B23F480727B685B6BEB
:10571000254913430B637B681B6803F40053002B7C
:1057200008D0214B1B6B23F400727B681B6C1E4955
:1057300013430B637B681B6803F48013002B08D0B2
:10574000194B1B6B23F080727B689B6B16491343CC
:105750000B637B681B6803F40013002B08D0124B0B
:105760001B6B23F000727B68DB6B0F4913430B63E9
:105770007B681B6803F48003002B08D00A4B1B6B6B
:1057800023F480627B685B6C074913430B637B687F
:105790001B6803F40003002B0CD0034B1B6B23F49A
:1057A00000627B6802E000BF001002409B6C13495E
:1057B00013430B637B681B6803F08073002B08D0D6
:1057C0000E4B1B6B23F400527B68DB6C0B491343BD
:1057D0000B637B681B6803F00073002B08D0074B3A
:1057E0001B6B23F400427B681B6D044913430B635E
:1057F000002318464837BD4680BD00BF0010024058
:1058000080B582B000AF78607B68002B01D10123A6
:1058100049E07B6893F83D30DBB2002B06D17B6812
:10582000002283F83C207868FCF7FAFE7B680222AD
:1058300083F83D207B681A687B680433194610465C
:1058400001F016F97B68012283F848207B68012269
:1058500083F83E207B68012283F83F207B68012289
:1058600083F840207B68012283F841207B68012275
:1058700083F842207B68012283F843207B68012261
:1058800083F844207B68012283F845207B6801224D
:1058900083F846207B68012283F847207B68012239
:1058A00083F83D20002318460837BD4680BD000020
:1058B00080B485B000AF78607B6893F83D30DBB290
:1058C000012B01D001234FE07B68022283F83D20A9
:1058D0007B681B68DA687B681B6842F00102DA604B
:1058E0007B681B68234A93421DD07B681B68B3F119
:1058F000804F18D07B681B681F4A934213D07B6887
:105900001B681E4A93420ED07B681B681C4A934258
:1059100009D07B681B681B4A934204D07B681B68D4
:10592000194A934215D17B681B689A68174B13403C
:10593000FB60FB68062B15D0FB68B3F5803F11D0E8
:105940007B681B681A687B681B6842F001021A605A
:1059500008E07B681B681A687B681B6842F00102DC
:105960001A6000E000BF002318461437BD465DF8FA
:10597000047B7047002C01400004004000080040F8
:105980000034014000400140005001400700010088
:1059900080B582B000AF78607B68002B01D1012315
:1059A00049E07B6893F83D30DBB2002B06D17B6881
:1059B000002283F83C20786800F041F87B680222DE
:1059C00083F83D207B681A687B68043319461046CB
:1059D00001F04EF87B68012283F848207B680122A1
:1059E00083F83E207B68012283F83F207B680122F8
:1059F00083F840207B68012283F841207B680122E4
:105A000083F842207B68012283F843207B680122CF
:105A100083F844207B68012283F845207B680122BB
:105A200083F846207B68012283F847207B680122A7
:105A300083F83D20002318460837BD4680BD80B45A
:105A400083B000AF786000BF0C37BD465DF8047BC3
:105A50007047000080B584B000AF786039603B6863
:105A6000002B09D17B6893F83E30DBB2012B14BFC9
:105A700001230023DBB23CE03B68042B09D17B68A7
:105A800093F83F30DBB2012B14BF01230023DBB2BC
:105A90002FE03B68082B09D17B6893F84030DBB2DC
:105AA000012B14BF01230023DBB222E03B680C2B47
:105AB00009D17B6893F84130DBB2012B14BF01237D
:105AC0000023DBB215E03B68102B09D17B6893F80B
:105AD0004230DBB2012B14BF01230023DBB208E00C
