:020000040800F2
:100000000000012085210008FD0C0008030D0008F8
:10001000090D00080F0D0008150D00080000000074
:1000200000000000000000000000000091AF000888
:100030001B0D000800000000E1B1000849B20008F3
:10004000D5210008D5210008D5210008D5210008B8
:10005000D5210008D5210008D5210008D5210008A8
:10006000D5210008D5210008D5210008D521000898
:10007000D5210008D5210008D5210008D521000888
:10008000D5210008D5210008D5210008D521000878
:10009000D5210008D5210008D5210008D521000868
:1000A000290D0008D5210008D5210008510D0008B0
:1000B0006D0D0008890D0008A50D0008D521000868
:1000C000D5210008D5210008D5210008D521000838
:1000D000D5210008D5210008D5210008D521000828
:1000E000D5210008D5210008D5210008D521000818
:1000F000D5210008D5210008C10D0008D521000830
:10010000D52100080000000000000000D5210008F3
:10011000DD0D0008D5210008F10D0008D5210008EB
:10012000D5210008D5210008D5210008D5210008D7
:10013000D5210008D52100080000000000000000C3
:10014000D5210008D5210008D521000800000000B5
:10015000000000000000000000000000000000009F
:10016000D5210008D5210008D5210008D521000897
:10017000D5210008D5210008D5210008D521000887
:10018000D5210008D5210008000000000000000073
:04019000D52100086D
:1001A00010B5054C237833B9044B13B10448AFF3B1
:1001B00000800123237010BDF80000200000000023
:1001C00008C7000808B5034B1BB103490348AFF348
:1001D000008008BD00000000FC00002008C70008E7
:1001E00001F0FF01102A2BDB10F0070F08D010F8E8
:1001F000013B013A8B422DD010F0070F42B3F6D1EC
:10020000F0B441EA012141EA014122F007047FF004
:1002100000070023F0E80256083C85EA010586EA5B
:10022000010685FA47F5A3FA87F586FA47F6A5FA97
:1002300087F68EB9EED1F0BC01F0FF0102F00702A3
:1002400032B110F8013B013A83EA010313B1F8D14E
:100250000020704701387047002D06BF354603382F
:10026000073815F0010F07D1013015F4807F02BF68
:10027000013015F4C03F0130F0BC0138704700BFB9
:1002800080B500AF194808F0CFF90346184A13604B
:10029000184A0021184807F03FFF0346174A136029
:1002A000174A0021174807F037FF0346164A136024
:1002B000164A0021164807F02FFF0346154A13601F
:1002C000154A0021154807F027FF0346144A13601A
:1002D000144808F087F80346134A1360134808F0DF
:1002E00081F80346124A136000BF80BD5CCB000852
:1002F00024010020CCCA00083503000814010020A6
:10030000F0CA0008750300081801002014CB00088B
:10031000910400081C01002038CB00083D050008AE
:10032000200100206CCB0008280100207CCB0008B5
:100330002C01002080B582B000AF78600A4801F03F
:100340009DFF0A4801F0CAFF094B1B68184607F0D9
:10035000B3FF07F08BFF0346184607F0ADFF4FF4DD
:100360007A7008F011F8EFE75800002048000020EC
:100370002001002080B582B000AF7860324801F0E3
:1003800097FF0346194631480BF08AFA304801F0CE
:100390008FFF034619462F480BF082FA2E4B1B683D
:1003A000184608F00DF9034603F00203002B0CD1A8
:1003B0002A4802F0ABFA2A4802F0A8FA294802F0CB
:1003C000A5FA294802F0A2FA15E0234B1B6818464B
:1003D00008F0F6F8034603F00203022B0BD1234882
:1003E00002F094FA1E4802F091FA1E4802F08EFACA
:1003F0001F4802F08BFA1F4B1B6819461E480BF072
:100400004FFA1C4B5B6819461C480BF049FA194B14
:100410009B6819461A480BF043FA164BDB681946DD
:1004200018480BF03DFA134B1B69194616480BF0A0
:1004300037FA104B5B69194614480BF031FA462025
:1004400007F0A2FF9AE700BF6800002090C70008ED
:1004500070000020A8C70008280100201800002014
:10046000000000203C0000200C0000203000002094
:1004700024000020F4040020C0C70008E4C70008DE
:100480000CC8000834C800085CC8000884C800080C
:1004900080B582B000AF7860234B1B78572B16D104
:1004A000224B1B680121184607F0EEFF1F4B1B680B
:1004B0000221184608F040F81D4B1B68184607F04B
:1004C0002FFF1C4B1B68184607F0F6FE19E0164B71
:1004D0001B78552B15D1154B1B680121184607F0C9
:1004E000D3FF124B1B680221184607F0CDFF104BBB
:1004F0001B68184607F014FF0E4B1B68184607F0E0
:10050000DBFE0A4B1B68184608F05AF8034603F056
:100510000103002B03D10449074801F0A5FF9620F1
:1005200007F032FFB8E700BF640000202801002078
:10053000200100201C0100204800002080B584B06C
:1005400000AF78600023FB730023BB73A64B1B78BE
:10055000772B05D1A54B1B680121184607F0ECFF4E
:10056000A24B1B68184608F02BF8034603F0010362
:10057000012B40F0B1819E480BF0F8F99D499E484F
:1005800001F052FF994B1B68184608F019F8034612
:1005900003F00203002B40F0E58098480BF0E6F9E9
:1005A000974B5B68FB73964B9B68BB7302F00EF82E
:1005B0000EE0934B5B68194692480BF071F9904B33
:1005C0009B68194690480BF06BF990480BF0CEF9F8
:1005D0008B4B5B68FA7B0F329342EAD3884B9B6864
:1005E000BA7B0F329342E4D389480BF0BFF902E0A3
:1005F00088480BF0BBF9824B5B68FA7B0F32934261
:10060000F6D87F4B9B68BA7B0F329342F0D801F04B
:10061000FFFF052002F0DCFA02F0ACF87E497648D4
:1006200001F002FF01F0F4FF4FF4487002F0D0FA3D
:1006300002F058F80EE0724B9B68194672480BF0B6
:100640002FF96F4B5B69194674480BF029F9744810
:100650000BF08CF96A4B5B691E2BECD8684B9B68DE
:10066000194669480BF01CF9654B5B6919466B48E4
:100670000BF016F901F0AAFF052002F0A9FA02F02A
:1006800079F802F053F80EE05D4B5B691946634858
:100690000BF006F95A4B9B6819465B480BF000F9C2
:1006A00060480BF063F9564B9B68042B03D9544BFD
:1006B0005B69042BE8D8524B5B69194657480BF02D
:1006C000EFF84F4B9B6819464F480BF0E9F801F0E3
:1006D0007DFF052002F07CFA02F04CF845494648BF
:1006E00001F0A2FE01F0B6FF02E04F480BF03EF928
:1006F000434B1B68052B03D9414B5B680B2BF4D88C
:1007000001F086FF052002F063FA02F033F8424957
:10071000394801F089FE02F009F84FF4967002F0B2
:1007200057FA02F027F801F073FF02E03F480BF0A0
:100730001DF9334B5B69142BF8D801F047FF0520F6
:1007400002F046FA02F016F839480BF00FF9274B81
:100750001B680121184607F0EFFE3649264801F0D4
:1007600063FEAFE0214B1B68184607F029FF0346E4
:1007700003F00203022B40F0A5802F480BF0F6F89F
:100780001F4BDB68FB731E4B1B69BB7301F01EFF25
:1007900002E01E480BF0EAF8194BDB68FA7B0C32DA
:1007A0009342F6D3164B1B69BA7B0C329342F0D3BB
:1007B00017480BF0DBF802E020480BF0D7F8104B9D
:1007C000DB68FA7B0C329342F6D80D4B1B69BA7B7F
:1007D0000C329342F0D801F0CDFF0F49064801F0EA
:1007E00023FE01F0A3FF2EE064000020280100207A
:1007F000A8C800088000002048000020F4C80008B5
:10080000F4040020E4C700080CC8000808C9000868
:1008100024C900083CC900088800002084C80008DA
:100820006CC900088CC90008ACC90008CCC9000814
:10083000E4C900087800002020CA000830CA000877
:1008400027480BF093F8274B1B690C2B03D9254B3A
:100850005B690F2BF4D801F08DFF01F043FF02E03C
:1008600021480BF083F81F4B5B690A2BF8D801F085
:10087000ADFE052002F0ACF91C491D4801F0D4FD85
:1008800001F078FF01F00AFF02E01A480BF06EF861
:10089000144BDB68042BF8D8124B1B69042BF4D8DB
:1008A00001F068FF14480BF061F8144B1B6801213C
:1008B000184607F041FE12490D4801F0B5FD114BF5
:1008C00053221A70104B1B68184607F029FD0F4B76
:1008D0001B68184607F0F0FC0D4807F055FD35E69B
:1008E00060CA0008F40400207CCA000880000020D0
:1008F0004800002098CA0008E4C900082801002028
:1009000078000020640000201C010020200100204D
:10091000C0D4010080B58AB000AF07F114030022F3
:100920001A605A609A60DA601A61504B5B694F4AEC
:1009300043F4002353614D4B5B6903F400233B6197
:100940003B694A4B5B69494A43F480035361474B17
:100950005B6903F48003FB60FB68444B5B69434ABB
:1009600043F400335361414B5B6903F40033BB60D4
:10097000BB683E4B5B693D4A43F4802353613B4B6C
:100980005B6903F480237B607B6800224FF4E461A1
:100990004FF0904002F03CFC002243F60241344804
:1009A00002F036FC01220421314802F031FC002221
:1009B0004FF440712F4802F02BFC4FF400537B6141
:1009C0004FF40413BB610023FB6107F114031946C4
:1009D000284802F07BFA4FF4E4637B610123BB619A
:1009E0000023FB6100233B6207F1140319464FF01B
:1009F000904002F06BFA01237B610023BB6100236E
:100A0000FB6107F114031946194802F05FFA43F637
:100A100006437B610123BB610023FB6100233B6232
:100A200007F114031946124802F050FA4FF44073CC
:100A30007B610123BB610023FB6100233B6207F163
:100A4000140319460B4802F041FA4FF480537B61BE
:100A50000023BB610023FB6107F11403194605481D
:100A600002F034FA00BF2837BD4680BD00100240B6
:100A7000000400480008004880B500AF02F072F89A
:100A800000F01EF8FFF746FF00F09AFA00F068FB4E
:100A900000F000FC00F09AFC00F034FD00F002FED3
:100AA00000F0C8FE01F0C0FA01F08EFA00F03CFF41
:100AB00007F0CAFAFFF7E4FB07F0FAFAFEE70000D6
:100AC00080B5A6B000AF07F17003282200211846B8
:100AD0000BF02CF807F15C0300221A605A609A6050
:100AE000DA601A613B1D5822002118460BF01EF8EF
:100AF00002233B670123FB671023C7F880300023E4
:100B0000C7F8883007F17003184602F099FB0346D6
:100B1000002B01D000F04AF80F23FB6500233B6651
:100B200000237B660023BB660023FB6607F15C03A2
:100B30000021184603F0D8FB0346002B01D000F03B
:100B400035F8104B7B6000233B610023BB61002321
:100B5000BB630023BB640023FB6400233B650023CD
:100B60007B640023FB6300233B643B1D184603F0BA
:100B700023FE0346002B01D000F018F800BF983781
:100B8000BD4680BD0A30F00180B582B000AF78600C
:100B90007B681B68044A934201D101F0F9FF00BF52
:100BA0000837BD4680BD00BF0010004080B400AFD4
:100BB00072B600BFFEE7000080B582B000AF114BF7
:100BC0009B69104A43F0010393610E4B9B6903F04C
:100BD00001037B607B680B4BDB690A4A43F080535F
:100BE000D361084BDB6903F080533B603B68002214
:100BF0000F216FF0010002F0C7F800BF0837BD46B3
:100C000080BD00BF0010024080B58EB000AF78609C
:100C10000023FB620023BB62334BDB69324A43F0A3
:100C20001003D361304BDB6903F01003FB60FB68FA
:100C300007F1100207F114031146184603F08AFD6C
:100C40003B6AFB62FB6A002B03D103F03FFD786334
:100C500004E003F03BFD03465B007B637B6B234AB0
:100C6000A2FB03239B0C013BBB62214B214A1A6070
:100C70001F4B40F2E732DA601D4ABB6A53601C4BDF
:100C800000221A611A4B00229A60194B00229A61C5
:100C9000174803F0AFFF034687F8333097F8333037
:100CA000002B1BD1124803F0FDFF034687F83330B9
:100CB00097F83330002B11D1362002F081F87B6891
:100CC0000F2B08D800227968362002F05DF80A4A16
:100CD0007B68136002E0012387F8333097F83330E4
:100CE00018463837BD4680BD0010024083DE1B43E6
:100CF00030010020001000409000002080B400AFC0
:100D0000FEE780B400AFFEE780B400AFFEE780B43A
:100D100000AFFEE780B400AFFEE780B400AF00BFD5
:100D2000BD465DF8047B704780B500AF054B0522DA
:100D30001A70054804F09AFC044804F097FC00BFC0
:100D400080BD00BF0C05002080010020FC020020B7
:100D500080B500AF034B00221A70034804F086FCF4
:100D600000BF80BD0C0500208001002080B500AFD1
:100D7000034B01221A70034804F078FC00BF80BDC9
:100D80000C050020CC01002080B500AF034B0222EF
:100D90001A70034804F06AFC00BF80BD0C050020F7
:100DA0001802002080B500AF034B03221A700348DD
:100DB00004F05CFC00BF80BD0C0500206402002034
:100DC00080B500AF034B04221A70034804F04EFCB8
:100DD00000BF80BD0C050020B002002080B500AF30
:100DE000024805F089FF00BF80BD00BFE00300207E
:100DF00080B500AF024804F039FC00BF80BD00BFE1
:100E00003001002080B483B000AF0346FB710F4B6C
:100E10001B680E4A43F0807313600D4B1B680C4A2D
:100E200043F00103136000BF4FF060431B6803F001
:100E30000103002BF8D04FF06042FB79136000BF34
:100E40000C37BD465DF8047B704700BFFCED00E049
:100E5000000E00E080B586B000AFF860B9607A603F
:100E600000237B610AE0AFF300800146BB685A1C97
:100E7000BA60CAB21A707B6901337B617A697B6898
:100E80009A42F0DB7B6818461837BD4680BD80B5B6
:100E900086B000AFF860B9607A6000237B6109E03A
:100EA000BB685A1CBA601B781846FFF7ABFF7B691A
:100EB00001337B617A697B689A42F1DB7B68184673
:100EC0001837BD4680BD80B483B000AF78604FF066
:100ED000FF3318460C37BD465DF8047B704780B47D
:100EE00083B000AF786039603B684FF400525A60BD
:100EF000002318460C37BD465DF8047B704780B46C
:100F000083B000AF7860012318460C37BD465DF80A
:100F1000047B704780B485B000AFF860B9607A6038
:100F2000002318461437BD465DF8047B7047000067
:100F300080B586B000AF7860144A154BD31A7B6138
:100F40007B693B61134B1B68002B02D1114B124A8A
:100F50001A60104B1A687B6813443A699A4207D2A8
:100F60000AF088FE03460C221A604FF0FF3309E0B6
:100F7000084B1B68FB60074B1A687B681344054AE3
:100F80001360FB6818461837BD4680BD000001207D
:100F9000000400007C0100209828002080B400AFED
:100FA000064BD3F88830054A43F47003C2F8883002
:100FB00000BFBD465DF8047B704700BF00ED00E058
:100FC00080B59EB000AF07F1680300221A605A6036
:100FD0009A60DA6007F15C0300221A605A609A6036
:100FE00007F1400300221A605A609A60DA601A61C1
:100FF0005A619A6107F1300300221A605A609A60C0
:10100000DA603B1D2C22002118460AF08FFD524B5E
:10101000524A1A60504B07225A604F4B00229A6086
:101020004D4B4FF6FF72DA604B4B00221A614A4B70
:1010300000225A61484B00229A61474803F0DAFDCA
:101040000346002B01D0FFF7B1FD4FF48053BB6680
:1010500007F168031946404804F0D8FD0346002B09
:1010600001D0FFF7A3FD3C4803F08CFE0346002BA4
:1010700001D0FFF79BFD384804F08EF80346002BA3
:1010800001D0FFF793FD0023FB6500233B6600239F
:101090007B6607F15C0319462F4805F06BFC03469D
:1010A000002B01D0FFF782FD60233B6447F6BC7341
:1010B0007B640023BB640023FB6400233B650023A7
:1010C0007B650023BB6507F14003002219462248D7
:1010D00004F088FC0346002B01D0FFF767FD0023D6
:1010E0003B6301237B630023BB630023FB6307F1A6
:1010F000300304221946184804F0D7FB0346002B9E
:1011000001D0FFF753FD00237B600023BB60002369
:10111000FB6000233B6100237B614FF40053BB6104
:101120000023FB6100233B624FF000737B620023CE
:10113000BB620023FB623B1D1946074805F0A6FC75
:101140000346002B01D0FFF731FD034800F002FEFB
:1011500000BF7837BD4680BD80010020002C0140D3
:1011600080B592B000AF07F1380300221A605A60D0
:101170009A60DA6007F12C0300221A605A609A60C4
:1011800007F1100300221A605A609A60DA601A614F
:101190005A619A613B4600221A605A609A60DA608E
:1011A0003B4B4FF080421A60394B07225A60384B54
:1011B00000229A60364B4FF6FF72DA60344B002201
:1011C0001A61334B00229A61314803F013FD034644
:1011D000002B01D0FFF7EAFC4FF48053BB6307F10B
:1011E000380319462A4804F011FD0346002B01D0AC
:1011F000FFF7DCFC264803F0C5FD0346002B01D0B9
:10120000FFF7D4FC224803F0C7FF0346002B01D0B0
:10121000FFF7CCFC0023FB6200237B6307F12C0368
:1012200019461B4805F0A6FB0346002B01D0FFF72B
:10123000BDFC60233B6147F6BC737B610023BB614F
:1012400000233B6207F1100300221946104804F006
:10125000C9FB0346002B01D0FFF7A8FC00233B602D
:1012600001237B600023BB600023FB603B4604221C
:101270001946074804F019FB0346002B01D0FFF77D
:1012800095FC034800F066FD00BF4837BD4680BDB1
:10129000CC01002080B592B000AF07F138030022E6
:1012A0001A605A609A60DA6007F12C0300221A6013
:1012B0005A609A6007F1100300221A605A609A601F
:1012C000DA601A615A619A613B4600221A605A60DC
:1012D0009A60DA603B4B3C4A1A603A4B07225A60EC
:1012E000384B00229A60374B4FF6FF72DA60354B6D
:1012F00000221A61334B00229A61324803F07AFCD3
:101300000346002B01D0FFF751FC4FF48053BB6321
:1013100007F1380319462B4804F078FC0346002BEC
:1013200001D0FFF743FC274803F02CFD0346002BB8
:1013300001D0FFF73BFC234803F02EFF0346002BB0
:1013400001D0FFF733FC0023FB6200237B6307F12E
:101350002C0319461B4805F00DFB0346002B01D05A
:10136000FFF724FC60233B6147F6BC737B610023DD
:10137000BB6100233B6207F11003002219461148AC
:1013800004F030FB0346002B01D0FFF70FFC0023D5
:101390003B6001237B600023BB600023FB603B4676
:1013A00004221946074804F080FA0346002B01D0B6
:1013B000FFF7FCFB034800F0CDFC00BF4837BD46FB
:1013C00080BD00BF180200200004004080B592B02C
:1013D00000AF07F1380300221A605A609A60DA60A1
:1013E00007F12C0300221A605A609A6007F110037B
:1013F00000221A605A609A60DA601A615A619A6132
:101400003B4600221A605A609A60DA603B4B3C4AC5
:101410001A603A4B07225A60384B00229A60374BC9
:101420004FF6FF72DA60354B00221A61334B00220F
:101430009A61324803F0DEFB0346002B01D0FFF730
:10144000B5FB4FF48053BB6307F1380319462B48B3
:1014500004F0DCFB0346002B01D0FFF7A7FB274875
:1014600003F090FC0346002B01D0FFF79FFB2348BD
:1014700003F092FE0346002B01D0FFF797FB0023F9
:10148000FB6200237B6307F12C0319461B4805F020
:1014900071FA0346002B01D0FFF788FB60233B6104
:1014A00047F6BC737B610023BB6100233B6207F1FD
:1014B000100300221946114804F094FA0346002B49
:1014C00001D0FFF773FB00233B6001237B60002307
:1014D000BB600023FB603B4604221946074804F02A
:1014E000E4F90346002B01D0FFF760FB034800F04E
:1014F00031FC00BF4837BD4680BD00BF64020020FC
:101500000008004080B59EB000AF07F168030022DC
:101510001A605A609A60DA6007F15C0300221A6070
:101520005A609A6007F1400300221A605A609A607C
:10153000DA601A615A619A6107F1300300221A6079
:101540005A609A60DA603B1D2C22002118460AF08E
:10155000EDFA524B524A1A60504B07225A604F4BD9
:1015600000229A604D4B4FF6FF72DA604B4B00221F
:101570001A614A4B00225A61484B00229A6147483F
:1015800003F038FB0346002B01D0FFF70FFB4FF4AD
:101590008053BB6607F168031946404804F036FBE8
:1015A0000346002B01D0FFF701FB3C4803F0EAFBA8
:1015B0000346002B01D0FFF7F9FA384803F0ECFDA1
:1015C0000346002B01D0FFF7F1FA0023FB6500234F
:1015D0003B6600237B6607F15C0319462F4805F044
:1015E000C9F90346002B01D0FFF7E0FA60233B6402
:1015F00047F6BC737B640023BB640023FB640023B9
:101600003B6500237B650023BB6507F14003002297
:101610001946224804F0E6F90346002B01D0FFF7F3
:10162000C5FA00233B6301237B630023BB630023D4
:10163000FB6307F1300304221946184804F035F91A
:101640000346002B01D0FFF7B1FA00237B60002393
:10165000BB600023FB6000233B6100237B614FF4F0
:101660000053BB610023FB6100233B624FF000731A
:101670007B620023BB620023FB623B1D19460748C7
:1016800005F004FA0346002B01D0FFF78FFA034858
:1016900000F060FB00BF7837BD4680BDB00200207F
:1016A0000034014080B59EB000AF07F1680300220E
:1016B0001A605A609A60DA6007F15C0300221A60CF
:1016C0005A609A6007F1400300221A605A609A60DB
:1016D000DA601A615A619A6107F1300300221A60D8
:1016E0005A609A60DA603B1D2C22002118460AF0ED
:1016F0001DFA4E4B4E4A1A604C4B07225A604B4B18
:1017000000229A60494B4FF6FF72DA60474B002285
:101710001A61464B00225A61444B00229A614348A9
:1017200003F068FA0346002B01D0FFF73FFA4FF4AD
:101730008053BB6607F1680319463C4804F066FA1B
:101740000346002B01D0FFF731FA384803F01AFBAB
:101750000346002B01D0FFF729FA344803F01CFDA3
:101760000346002B01D0FFF721FA0023FB6500237D
:101770007B6607F15C0319462C4805F0FBF803462D
:10178000002B01D0FFF712FA60233B6447F6BC73CD
:101790007B640023BB640023FB6400233B650023C0
:1017A0007B650023BB6507F14003002219461F48F3
:1017B00004F018F90346002B01D0FFF7F7F90023D6
:1017C0003B6301237B630023BB630023FB6307F1BF
:1017D000300304221946154804F067F80346002B2D
:1017E00001D0FFF7E3F900237B600023BB600023F7
:1017F000FB6000233B6100237B614FF40053BB611E
:101800000023FB610023FB623B1D1946074805F0DE
:101810003DF90346002B01D0FFF7C8F9034800F05B
:1018200099FA00BF7837BD4680BD00BFFC0200209A
:101830000040014080B592B000AF07F12C030022B8
:101840001A605A609A60DA601A615A619A613B467E
:101850002C22002118460AF069F9314B314A1A60EE
:101860002F4B07225A602E4B00229A602C4B4FF6CA
:10187000FF72DA602A4B00221A61294B00225A615A
:10188000274B00229A61264803F0B4F90346002B47
:1018900001D0FFF78BF9224803F074FA0346002BBE
:1018A00001D0FFF783F96023FB6247F6BC733B630B
:1018B00000237B630023BB630023FB6300233B64A3
:1018C00000237B6407F12C0300221946144804F01E
:1018D00089F80346002B01D0FFF768F900233B602D
:1018E00000237B600023BB600023FB6000233B617F
:1018F0004FF400537B610023BB610023BB623B4676
:101900001946074805F0C2F80346002B01D0FFF73F
:101910004DF9034800F01EFA00BF4837BD4680BDB0
:10192000480300200044014080B592B000AF07F1A9
:101930002C0300221A605A609A60DA601A615A61B8
:101940009A613B462C22002118460AF0EFF8314BF1
:10195000314A1A602F4B07225A602E4B00229A60A0
:101960002C4B4FF6FF72DA602A4B00221A61294B8A
:1019700000225A61274B00229A61264803F03AF967
:101980000346002B01D0FFF711F9224803F0FAF9C2
:101990000346002B01D0FFF709F96023FB6247F6ED
:1019A000BC733B6300237B630023BB630023FB63A7
:1019B00000233B6400237B6407F12C0300221946BB
:1019C000144804F00FF80346002B01D0FFF7EEF89F
:1019D00000233B6000237B600023BB600023FB608F
:1019E00000233B614FF400537B610023BB61002364
:1019F000BB623B461946074805F048F80346002BF2
:101A000001D0FFF7D3F8034800F0A4F900BF48372E
:101A1000BD4680BD940300200048014080B596B0CB
:101A200000AF786007F1440300221A605A609A60A0
:101A3000DA601A617B681B68A74A934238D1A74BCA
:101A40009B69A64A43F400639361A44B9B6903F42A
:101A500000633B643B6CA14B5B69A04A43F40023E9
:101A600053619E4B5B6903F40023FB63FB6B022312
:101A70007B640223BB640023FB6400233B650223D9
:101A80007B6507F144031946954801F01FFA0022CF
:101A90000521182001F078F9182001F091F90022B1
:101AA00005211B2001F070F91B2001F089F946E1A6
:101AB0007B681B68B3F1804F31D1884BDB69874A63
:101AC00043F00103D361854BDB6903F00103BB6382
:101AD000BB6B824B5B69814A43F4003353617F4B9C
:101AE0005B6903F400337B637B6B02237B6402231B
:101AF000BB640023FB6400233B6501237B6507F186
:101B0000440319464FF0904001F0E0F9002205210E
:101B10001C2001F039F91C2001F052F90FE17B681B
:101B20001B68704A934231D16C4BDB696B4A43F0BE
:101B30000203D361694BDB6903F002033B633B6B38
:101B4000664B5B69654A43F400335361634B5B69E1
:101B500003F40033FB62FB6A10237B640223BB6443
:101B60000023FB6400233B6502237B6507F14403EC
:101B700019464FF0904001F0A9F9002205211D20DF
:101B800001F002F91D2001F01BF9D8E07B681B6809
:101B9000554A934232D1514BDB69504A43F004031A
:101BA000D3614E4BDB6903F00403BB62BB6A4B4B52
:101BB0005B694A4A43F400335361484B5B6903F461
:101BC00000337B627B6A4FF480537B640223BB64E7
:101BD0000023FB6400233B650A237B6507F1440374
:101BE00019464FF0904001F071F9002205211E20A6
:101BF00001F0CAF81E2001F0E3F8A0E07B681B6842
:101C00003A4A934230D1354B9B69344A43F40053EE
:101C10009361324B9B6903F400533B623B6A2F4B49
:101C20005B692E4A43F4002353612C4B5B6903F438
:101C30000023FB61FB6980237B640223BB640023D8
:101C4000FB6400233B6504237B6507F144031946CD
:101C5000234801F03BF9002205212E2001F094F8E1
:101C60002E2001F0ADF86AE07B681B68204A9342A1
:101C700042D11A4B9B69194A43F480339361174B45
:101C80009B6903F48033BB61BB69144B5B69134AE6
:101C900043F480235361114B5B6903F480237B6120
:101CA0007B694FF400437B640223BB640023FB6425
:101CB00000233B6501237B6507F1440319460D486A
:101CC00001F004F900220521182001F05DF8182028
:101CD00001F076F833E000BF002C01400010024014
:101CE00000080048000400400008004000340140A3
:101CF00000400140000400487B681B68124A934280
:101D00000CD1124B9B69114A43F4003393610F4B82
:101D10009B6903F400333B613B6910E07B681B68FF
:101D20000B4A93420BD1094B9B69084A43F4802329
:101D30009361064B9B6903F48023FB60FB6800BF43
:101D40005837BD4680BD00BF00440140001002402E
:101D50000048014080B590B000AF786007F12C03D7
:101D600000221A605A609A60DA601A617B681B6808
:101D70008B4A93421CD18B4B5B698A4A43F4002304
:101D80005361884B5B6903F40023BB62BB6A012388
:101D9000FB6202233B6302237B630323BB630223B7
:101DA000FB6307F12C0319467F4801F08FF8F2E03E
:101DB0007B681B68B3F1804F1DD17A4B5B69794A10
:101DC00043F400335361774B5B6903F400337B6268
:101DD0007B6A0123FB6202233B6302237B630323B1
:101DE000BB630123FB6307F12C0319464FF09040BE
:101DF00001F06CF8CFE07B681B686C4A93421DD100
:101E0000684B5B69674A43F400335361654B5B6918
:101E100003F400333B623B6A4023FB6202233B63D3
:101E200002237B630323BB630223FB6307F12C03C1
:101E300019464FF0904001F049F8ACE07B681B6810
:101E40005B4A93421ED1574B5B69564A43F40033B9
:101E50005361544B5B6903F40033FB61FB694FF43E
:101E60000063FB6202233B6302237B630323BB63A8
:101E70000A23FB6307F12C0319464FF0904001F051
:101E800025F888E07B681B684A4A93421CD1454B81
:101E90005B69444A43F400235361424B5B6903F49A
:101EA0000023BB61BB694023FB6202233B63022327
:101EB0007B630323BB630423FB6307F12C031946F5
:101EC000394801F003F866E07B681B683A4A9342A0
:101ED0001DD1344B5B69334A43F480235361314B4A
:101EE0005B6903F480237B617B694FF48043FB6271
:101EF00002233B6302237B630323BB630123FB6356
:101F000007F12C0319462D4800F0E0FF43E07B6801
:101F10001B682B4A93421CD1224B5B69214A43F434
:101F2000802353611F4B5B6903F480233B613B6952
:101F30001023FB6202233B6302237B630323BB6307
:101F40000123FB6307F12C0319461C4800F0BEFF78
:101F500021E07B681B681B4A93421CD1114B5B69D3
:101F6000104A43F4003353610E4B5B6903F40033B2
:101F7000FB60FB688023FB6202233B6300237B63DF
:101F80000023BB630123FB6307F12C0319464FF0C9
:101F9000904000F09BFF00BF4037BD4680BD00BFB2
:101FA000002C0140001002400008004800040040DE
:101FB0000008004000340140004001400004004897
:101FC000004401400048014080B500AF144B154A61
:101FD0001A60134B4FF416525A60114B00229A604C
:101FE0000F4B0022DA600E4B00221A610C4B0C22C0
:101FF0005A610B4B00229A61094B0022DA61084BAF
:1020000000221A62064B00225A62054804F0E2FDE3
:102010000346002B01D0FEF7C9FD00BF80BD00BF05
:10202000E0030020004C004080B500AF144B154A7F
:102030001A60134B4FF416425A60114B00229A60FB
:102040000F4B0022DA600E4B00221A610C4B0C225F
:102050005A610B4B00229A61094B0022DA61084B4E
:1020600000221A62064B00225A62054804F0B2FDB3
:102070000346002B01D0FEF799FD00BF80BD00BFD5
:10208000680400200044004080B58CB000AF786048
:1020900007F11C0300221A605A609A60DA601A6124
:1020A0007B681B68334A934231D1334BDB69324A38
:1020B00043F40023D361304BDB6903F40023BB619D
:1020C000BB692D4B5B692C4A43F4002353612A4BB7
:1020D0005B6903F400237B617B694FF44063FB6120
:1020E00002233B6200237B620323BB620523FB6266
:1020F00007F11C031946214800F0E8FE00220521E3
:10210000342000F041FE342000F05AFE2DE07B68C0
:102110001B681B4A934228D1174BDB69164A43F4CC
:102120000033D361144BDB6903F400333B613B693B
:10213000114B5B69104A43F4003353610E4B5B69EA
:1021400003F40033FB60FB680C23FB6102233B625A
:1021500000237B620023BB620723FB6207F11C03A1
:1021600019464FF0904000F0B1FE00BF3037BD4639
:1021700080BD00BF004C0040001002400008004835
:1021800000440040DFF834D0FEF708FF0C480D494A
:102190000D4A002302E0D458C4500433C4188C42C2
:1021A000F9D30A4A0A4C002301E013600432A24228
:1021B000FBD309F065FDFEF75FFCFEE700000120A0
:1021C00000000020F800002000CC0008F8000020EB
:1021D00098280020FEE7000080B582B000AF78604C
:1021E000244B1B78462B37D0224B1B78422B33D005
:1021F000204B1B78472B2FD01E4B1B78492B2BD005
:102200001C4B1B78482B27D01A4B1B784A2B23D00A
:10221000184B1B78522B1FD0164B1B784C2B1BD006
:10222000144B1B78532B17D0124B1B78232B13D036
:10223000104B1B78402B0FD00E4B1B78212B0BD053
:102240000C4B1B78572B07D00A4B1B78552B03D010
:10225000084B1B78772B03D1064B1A78064B1A7064
:1022600001220449786804F003FD00BF0837BD4629
:1022700080BD00BFF00400206400002080B582B063
:1022800000AF78607B68002B01D1012309E07B68F7
:1022900018687B681B799BB21A46044904F0E8FC75
:1022A000002318460837BD4680BD00BFF00400205B
:1022B00080B582B000AF78607B681A687B689B88C5
:1022C0001946104600F08CFF0346002B14BF012373
:1022D0000023DBB218460837BD4680BD80B584B008
:1022E00000AF78600023FB607B68002B01D10123E5
:1022F0007EE07B685B68002B0AD17B681B6893F8E3
:102300003E30DBB2012B14BF01230023DBB245E0DA
:102310007B685B68042B0AD17B681B6893F83F30AD
:10232000DBB2012B14BF01230023DBB236E07B6854
:102330005B68082B0AD17B681B6893F84030DBB2DE
:10234000012B14BF01230023DBB227E07B685B680D
:102350000C2B0AD17B681B6893F84130DBB2012B50
:1023600014BF01230023DBB218E07B685B68102BED
:102370000AD17B681B6893F84230DBB2012B14BF93
:1023800001230023DBB209E07B681B6893F843302C
:10239000DBB2012B14BF01230023DBB2002B01D0E1
:1023A000012325E07B689B68134AB2FBF3F3FB60D3
:1023B0007B681B681B68FA68DA62FB6807EE903A74
:1023C000B8EE677A7B68D3ED037A67EE277A7B688D
:1023D0001B681B68FCEEE77A17EE902A5A637B684D
:1023E0001A687B685B681946104602F02DFD0023D1
:1023F00018461037BD4680BD40420F0080B582B000
:1024000000AF78607B68002B01D1012308E07B6876
:102410001A687B685B681946104602F021FE0023AB
:1024200018460837BD4680BD80B582B000AF7860E1
:1024300039607B68002B02D03B68002B01D101235F
:102440000EE07868FFF7DAFF3B681A687B689A60ED
:102450003B685A687B68DA607868FFF73FFF0023C3
:1024600018460837BD4680BD80B582B000AF7860A1
:1024700039607B68002B02D03B68002B01D101231F
:1024800099E03B681B78213B322B00F2908001A23F
:1024900052F823F0A7250008AF250008972500086B
:1024A000AF250008AF250008AF250008AF250008BC
:1024B000AF250008AF250008AF250008AF250008AC
:1024C000AF250008AF250008AF250008AF2500089C
:1024D000AF250008AF250008AF250008AF2500088C
:1024E000AF250008AF250008AF250008AF2500087C
:1024F000AF250008AF250008AF250008AF2500086C
:10250000AF250008AF250008AF250008AF2500085B
:102510009F250008AF25000867250008AF250008A3
:10252000AF250008AF250008612500086D250008CB
:1025300079250008732500087F250008AF250008CD
:102540008B250008AF250008AF250008AF2500083F
:10255000AF250008AF250008852500089125000853
:1025600000F034F826E000F053F823E000F096F88D
:1025700020E000F06FF81DE000F0D8F81AE000F05D
:10258000B1F817E000F01AF914E000F041F911E099
:1025900000F0F0F80EE00A497868FFF745FF0949B6
:1025A0007868FFF741FF08497868FFF73DFF00F0C2
:1025B000E1F800BF002318460837BD4680BD00BFC4
:1025C00078000020800000208800002080B500AF47
:1025D00000224FF480710D4800F01AFE00224FF4E3
:1025E00000710A4800F014FE01224FF400714FF010
:1025F000904000F00DFE00224FF480614FF09040BB
:1026000000F006FE0023184680BD00BF0008004809
:1026100080B500AF00224FF480710D4800F0F8FD46
:1026200000224FF400710A4800F0F2FD00224FF43E
:1026300000714FF0904000F0EBFD01224FF48061FB
:102640004FF0904000F0E4FD0023184680BD00BF2D
:102650000008004880B500AF01224FF480710E4899
:1026600000F0D6FD00224FF400710B4800F0D0FDC1
:10267000642000F0ADFA01224FF400714FF0904059
:1026800000F0C6FD00224FF480614FF0904000F052
:10269000BFFD0023184680BD0008004880B500AF8C
:1026A00000224FF480710E4800F0B2FD01224FF479
:1026B00000710B4800F0ACFD642000F089FA0122A3
:1026C0004FF400714FF0904000F0A2FD00224FF453
:1026D00080614FF0904000F09BFD0023184680BDC4
:1026E0000008004880B500AF01224FF480710E4809
:1026F00000F08EFD00224FF400710B4800F088FDC1
:10270000642000F065FA00224FF400714FF0904011
:1027100000F07EFD01224FF480614FF0904000F008
:1027200077FD0023184680BD0008004880B500AF43
:1027300000224FF480710E4800F06AFD01224FF430
:1027400000710B4800F064FD642000F041FA0022A3
:102750004FF400714FF0904000F05AFD01224FF409
:1027600080614FF0904000F053FD0023184680BD7B
:102770000008004880B500AF00224FF480710E4879
:1027800000F046FD00224FF400710B4800F040FDC0
:10279000322000F01DFA01224FF400714FF09040FA
:1027A00000F036FD01224FF480614FF0904000F0C0
:1027B0002FFD0023184680BD0008004880B582B078
:1027C00000AF78607B68002B01D101231AE0012261
:1027D0004FF480710D4800F01BFD00224FF4007192
:1027E0000A4800F015FD00224FF400714FF09040B0
:1027F00000F00EFD00224FF480614FF0904000F099
:1028000007FD002318460837BD4680BD0008004874
:1028100080B500AF00224FF480710D4800F0F8FC45
:1028200001224FF400710A4800F0F2FC00224FF43C
:1028300000714FF0904000F0EBFC00224FF48061FB
:102840004FF0904000F0E4FC0023184680BD00BF2C
:102850000008004890B585B002AF78607B681B7FA8
:10286000022B45D1244B1B78DBB21A46234B9B5CD1
:10287000002B14D10021786802F0F2FB1E4B1B786C
:10288000DBB29B001E4A13441B4A1278D2B2114697
:102890001A4A0A441946786800F0E0F828E0164B16
:1028A0001B78DBB21A46154B9B5C012B20D1124BD7
:1028B0001B78DBB29B00124A99180F4B1B78DBB2D6
:1028C0009B00104A1A440C4B1B78DBB29B000E484D
:1028D0001844094B1B78DBB21C46084B2344009379
:1028E0000346786800F0E4F80421786802F000FEFE
:1028F00000BF0C37BD4690BD0C0500201005002020
:1029000018050020300500204805002080B582B061
:1029100000AF78607B68002B01D101230FE09FEDB1
:102920000A0A42F21071786800F010F87B681A68A1
:102930007B689B681946104602F090FC00231846FD
:102940000837BD4680BD00BF6F12833A80B584B0A2
:1029500000AFF860B96087ED010AFB68002B01D178
:10296000012377E0FB685B68002B0AD1FB681B68DA
:1029700093F83E30DBB2012B14BF01230023DBB2FE
:1029800045E0FB685B68042B0AD1FB681B6893F881
:102990003F30DBB2012B14BF01230023DBB236E052
:1029A000FB685B68082B0AD1FB681B6893F8403012
:1029B000DBB2012B14BF01230023DBB227E0FB684D
:1029C0005B680C2B0AD1FB681B6893F84130DBB2C3
:1029D000012B14BF01230023DBB218E0FB685B6806
:1029E000102B0AD1FB681B6893F84230DBB2012B35
:1029F00014BF01230023DBB209E0FB681B6893F8D6
:102A00004330DBB2012B14BF01230023DBB2002BC8
:102A100001D001231EE0FB681B681B68BA68DA62FC
:102A2000BB6807EE903AB8EE677AD7ED017A67EEA9
:102A3000277AFB681B681B68FCEEE77A17EE902A82
:102A40005A63FB681A68FB685B681946104602F017
:102A5000FBF9002318461037BD4680BD80B584B011
:102A600000AFF860B9607A600421F86803F098F963
:102A70000246BB681A60FB681B684FF6FF72DA6299
:102A80007B6801221A70FB681B681A6AFB681B6866
:102A900022F0A0021A62FB681B681A6AFB681B68B6
:102AA00042F020021A6200BF1037BD4680BD000010
:102AB00080B584B000AFF860B9607A603B600421F3
:102AC000F86803F06DF902467B681A60FB681B68C2
:102AD00000225A627B681A68BB681B689A4207D357
:102AE0007B681A68BB681B68D21A3B681A6009E0E9
:102AF0007B681A68BB681B68D31A03F57F43FF33F2
:102B00003A6813603B681B6807EE903AB8EE677A44
:102B1000DFED116AC7EE267A104B1B78DBB21A463E
:102B2000FCEEE77A17EE901A0D4B43F82210BB69C2
:102B300000221A70FB681B681A6AFB681B6822F087
:102B4000A0021A62FB681A68FB681B68126A1A62A4
:102B500000BF1037BD4680BD000068420C05002054
:102B6000F404002080B500AF084B1B68074A43F00F
:102B700010031360032000F0FCF80F20FEF744F868
:102B8000FEF71AF80023184680BD00BF002002405F
:102B900080B400AF064B1B781A46064B1B681344E3
:102BA000044A136000BFBD465DF8047B704700BF58
:102BB000940000206005002080B400AF034B1B6828
:102BC0001846BD465DF8047B704700BF60050020D5
:102BD00080B584B000AF7860FFF7EEFFB8607B6827
:102BE000FB60FB68B3F1FF3F05D00A4B1B781A4628
:102BF000FB681344FB6000BFFFF7DEFF0246BB68C3
:102C0000D31AFA689A42F7D800BF00BF1037BD4602
:102C100080BD00BF9400002080B485B000AF786014
:102C20007B6803F00703FB600C4BDB68BB60BA6892
:102C30004FF6FF031340BB60FB681A02BB681343E7
:102C400043F0BF6343F40033BB60044ABB68D36006
:102C500000BF1437BD465DF8047B704700ED00E00F
:102C600080B400AF044BDB681B0A03F0070318466F
:102C7000BD465DF8047B704700ED00E080B483B092
:102C800000AF0346FB7197F90730002B0BDBFB7994
:102C900003F01F02074997F907305B09012000FA8A
:102CA00002F241F8232000BF0C37BD465DF8047BDB
:102CB000704700BF00E100E080B483B000AF03467E
:102CC0003960FB7197F90730002B0ADB3B68DAB2F9
:102CD0000C4997F907301201D2B20B4483F8002354
:102CE0000AE03B68DAB20849FB7903F00F03043BC2
:102CF0001201D2B20B441A7600BF0C37BD465DF804
:102D0000047B704700E100E000ED00E080B489B092
:102D100000AFF860B9607A60FB6803F00703FB61FD
:102D2000FB69C3F10703042B28BF0423BB61FB69C4
:102D30000433062B02D9FB69033B00E000237B61CF
:102D40004FF0FF32BB6902FA03F3DA43BB681A4063
:102D50007B699A404FF0FF317B6901FA03F3D94355
:102D60007B680B40134318462437BD465DF8047B4F
:102D7000704780B582B000AF78607868FFF74CFF8D
:102D800000BF0837BD4680BD80B586B000AF0346A2
:102D9000B9607A60FB7300237B61FFF761FF7861A4
:102DA0007A68B9687869FFF7B1FF024697F90F3082
:102DB00011461846FFF780FF00BF1837BD4680BD9B
:102DC00080B582B000AF0346FB7197F90730184613
:102DD000FFF754FF00BF0837BD4680BD80B483B005
:102DE00000AF78607B6893F82130022B08D07B68B5
:102DF00004229A637B68002283F82020012320E0CC
:102E00007B681B681A687B681B6822F00E021A60D8
:102E10007B681B681A687B681B6822F001021A60D5
:102E20007B681A6C7B68DB6B012101FA02F25A6045
:102E30007B68012283F821207B68002283F8202010
:102E4000002318460C37BD465DF8047B704780B5FB
:102E500084B000AF78600023FB737B6893F8213067
:102E6000022B05D07B6804229A630123FB7327E0C1
:102E70007B681B681A687B681B6822F00E021A6068
:102E80007B681B681A687B681B6822F001021A6065
:102E90007B681A6C7B68DB6B012101FA02F25A60D5
:102EA0007B68012283F821207B68002283F82020A0
:102EB0007B685B6B002B03D07B685B6B7868984703
:102EC000FB7B18461037BD4680BD000080B487B03C
:102ED00000AF7860396000237B6160E13B681A686D
:102EE00001217B6901FA03F31340FB60FB68002BAF
:102EF00000F052813B685B6803F00303012B05D0AF
:102F00003B685B6803F00303022B30D17B689B684E
:102F10003B617B695B00032202FA03F3DB433A69FE
:102F200013403B613B68DA687B695B0002FA03F39C
:102F30003A6913433B617B683A699A607B685B68D6
:102F40003B6101227B6902FA03F3DB433A691340D8
:102F50003B613B685B681B0903F001027B6902FA75
:102F600003F33A6913433B617B683A695A603B68F3
:102F70005B6803F00303032B17D07B68DB683B61BE
:102F80007B695B00032202FA03F3DB433A691340D7
:102F90003B613B689A687B695B0002FA03F33A691C
:102FA00013433B617B683A69DA603B685B6803F016
:102FB0000303022B23D17B69DA087B68083253F8BC
:102FC00022303B617B6903F007039B000F2202FA6A
:102FD00003F3DB433A6913403B613B681A697B6941
:102FE00003F007039B0002FA03F33A6913433B61C2
:102FF0007B69DA087B680832396943F822107B68FC
:103000001B683B617B695B00032202FA03F3DB432D
:103010003A6913403B613B685B6803F003027B69DC
:103020005B0002FA03F33A6913433B617B683A6938
:103030001A603B685B6803F44033002B00F0AC80FF
:103040005E4B9B695D4A43F0010393615B4B9B6957
:1030500003F00103BB60BB68594A7B699B080233DC
:1030600052F823303B617B6903F003039B000F227E
:1030700002FA03F3DB433A6913403B617B68B3F127
:10308000904F25D07B684F4A93421FD07B684E4AB1
:10309000934219D07B684D4A934213D07B684C4AC7
:1030A00093420DD07B684B4A934207D07B684A4AD3
:1030B000934201D106230CE007230AE0052308E030
:1030C000042306E0032304E0022302E0012300E0DE
:1030D00000237A6902F00302920093403A69134395
:1030E0003B6137497B699B0802333A6941F82320E9
:1030F0003A4B9B683B61FB68DB433A6913403B6199
:103100003B685B6803F48013002B03D03A69FB68CB
:1031100013433B61314A3B699360304BDB683B6151
:10312000FB68DB433A6913403B613B685B6803F42F
:103130000013002B03D03A69FB6813433B61274A15
:103140003B69D360254B5B683B61FB68DB433A69B5
:1031500013403B613B685B6803F40033002B03D0F2
:103160003A69FB6813433B611C4A3B6953601B4B44
:103170001B683B61FB68DB433A6913403B613B687A
:103180005B6803F48033002B03D03A69FB68134378
:103190003B61124A3B6913607B6901337B613B6889
:1031A0001A687B6922FA03F3002B7FF497AE00BF05
:1031B00000BF1C37BD465DF8047B7047001002401D
:1031C000000001400004004800080048000C0048CE
:1031D0000010004800140048001800480004014096
:1031E00080B485B000AF78600B467B807B681A693D
:1031F0007B881340002B02D00123FB7301E00023E6
:10320000FB73FB7B18461437BD465DF8047B7047A3
:1032100080B483B000AF78600B467B8013467B7030
:103220007B78002B03D07A887B689A6102E07A88E9
:103230007B689A6200BF0C37BD465DF8047B70471F
:1032400080B5ADF5027D00AF07F50273A3F50173FC
:10325000186007F50273A3F501731B68002B02D1F8
:10326000012301F03AB807F50273A3F501731B6857
:103270001B6803F00103002B00F06F81B54B5B6806
:1032800003F00C03042B0CD0B24B5B6803F00C036F
:10329000082B5CD1AF4B5B6803F4C033B3F5803FC0
:1032A00055D14FF40033C7F8F431D7F8F43193FA1D
:1032B000A3F3C7F8F031D7F8F031B3FA83F3DBB2F8
:1032C0005B09DBB243F00103DBB2012B02D1A14B5E
:1032D0001B6815E04FF40033C7F8EC31D7F8EC3138
:1032E00093FAA3F3C7F8E8314FF40033C7F8E43199
:1032F000D7F8E43193FAA3F3C7F8E031954B5B6A52
:103300004FF40032C7F8DC21D7F8DC2192FAA2F2A0
:10331000C7F8D821D7F8D821B2FA82F2D2B242F057
:103320002002D2B202F01F02012101FA02F2134080
:10333000002B00F0118107F50273A3F501731B68E0
:103340005B68002B40F00881012300F0C6BF07F541
:103350000273A3F501731B685B68B3F5803F06D168
:103360007C4B1B687B4A43F48033136036E007F5DF
:103370000273A3F501731B685B68002B0CD1754BBE
:103380001B68744A23F480331360724B1B68714AC4
:1033900023F48023136021E007F50273A3F5017382
:1033A0001B685B68B3F5A02F0CD16A4B1B68694A98
:1033B00043F480231360674B1B68664A43F48033F1
:1033C00013600BE0634B1B68624A23F48033136085
:1033D000604B1B685F4A23F48023136007F5027378
:1033E000A3F501731B685B68002B59D0FFF7E4FB62
:1033F000C7F800020AE0FFF7DFFB0246D7F8003209
:10340000D31A642B02D9032300F067BF4FF40033B3
:10341000C7F8D431D7F8D43193FAA3F3C7F8D03131
:10342000D7F8D031B3FA83F3DBB25B09DBB243F0F8
:103430000103DBB2012B02D1464B1B6815E04FF4B0
:103440000033C7F8CC31D7F8CC3193FAA3F3C7F8DF
:10345000C8314FF40033C7F8C431D7F8C43193FAF8
:10346000A3F3C7F8C0313B4B5B6A4FF40032C7F897
:10347000BC21D7F8BC2192FAA2F2C7F8B821D7F83C
:10348000B821B2FA82F2D2B242F02002D2B202F0F5
:103490001F02012101FA02F21340002BABD05CE0C5
:1034A000FFF78AFBC7F800020AE0FFF785FB024638
:1034B000D7F80032D31A642B02D9032300F00DBFD2
:1034C0004FF40033C7F8B431D7F8B43193FAA3F30B
:1034D000C7F8B031D7F8B031B3FA83F3DBB25B0988
:1034E000DBB243F00103DBB2012B02D1194B1B68A5
:1034F00015E04FF40033C7F8AC31D7F8AC3193FA8C
:10350000A3F3C7F8A8314FF40033C7F8A431D7F8B4
:10351000A43193FAA3F3C7F8A0310E4B5B6A4FF4C2
:103520000032C7F89C21D7F89C2192FAA2F2C7F882
:103530009821D7F89821B2FA82F2D2B242F0200252
:10354000D2B202F01F02012101FA02F21340002B55
:10355000ABD102E00010024000BF07F50273A3F5F3
:1035600001731B681B6803F00203002B00F07F81CE
:10357000A74B5B6803F00C03002B0CD0A44B5B68DB
:1035800003F00C03082B73D1A14B5B6803F4C03329
:10359000B3F5004F6CD10223C7F89431D7F89431BA
:1035A00093FAA3F3C7F89031D7F89031B3FA83F3C5
:1035B000DBB25B09DBB243F00103DBB2012B02D1CA
:1035C000934B1B6813E00223C7F88C31D7F88C317A
:1035D00093FAA3F3C7F888310223C7F88431D7F8E8
:1035E000843193FAA3F3C7F88031894B5B6A0222D6
:1035F000C7F87C21D7F87C2192FAA2F2C7F878218B
:10360000D7F87821B2FA82F2D2B242F02002D2B2D6
:1036100002F01F02012101FA02F21340002B0AD02E
:1036200007F50273A3F501731B68DB68012B02D059
:10363000012300F052BE764B1B6823F0F80207F519
:103640000273A3F501731B681B69F821C7F8741195
:10365000D7F8741191FAA1F1C7F87011D7F8701169
:10366000B1FA81F1C9B28B40694913430B60FEE0A6
:1036700007F50273A3F501731B68DB68002B00F0EC
:1036800088800123C7F86C31D7F86C3193FAA3F323
:10369000C7F86831D7F86831B3FA83F3DBB203F1C6
:1036A000845303F584139B001A4601231360FFF72C
:1036B00083FAC7F800020AE0FFF77EFA0246D7F85D
:1036C0000032D31A022B02D9032300F006BE0223D4
:1036D000C7F86431D7F8643193FAA3F3C7F86031BF
:1036E000D7F86031B3FA83F3DBB25B09DBB243F0A6
:1036F0000103DBB2012B02D1454B1B6813E002230F
:10370000C7F85C31D7F85C3193FAA3F3C7F85831A6
:103710000223C7F85431D7F8543193FAA3F3C7F80A
:1037200050313B4B5B6A0222C7F84C21D7F84C2141
:1037300092FAA2F2C7F84821D7F84821B2FA82F2E9
:10374000D2B242F02002D2B202F01F02012101FAED
:1037500002F21340002BAFD02D4B1B6823F0F80270
:1037600007F50273A3F501731B681B69F821C7F8FD
:103770004411D7F8441191FAA1F1C7F84011D7F8D4
:103780004011B1FA81F1C9B28B40214913430B605A
:103790006DE00123C7F83C31D7F83C3193FAA3F32D
:1037A000C7F83831D7F83831B3FA83F3DBB203F115
:1037B000845303F584139B001A4600231360FFF71C
:1037C000FBF9C7F800020AE0FFF7F6F90246D7F85E
:1037D0000032D31A022B02D9032300F07EBD02234C
:1037E000C7F83431D7F8343193FAA3F3C7F830313E
:1037F000D7F83031B3FA83F3DBB25B09DBB243F0C5
:103800000103DBB2012B05D1014B1B6816E000BFA1
:10381000001002400223C7F82C31D7F82C3193FA5C
:10382000A3F3C7F828310223C7F82431D7F824318D
:1038300093FAA3F3C7F82031BF4B5B6A0222C7F8A3
:103840001C21D7F81C2192FAA2F2C7F81821D7F848
:103850001821B2FA82F2D2B242F02002D2B202F0C1
:103860001F02012101FA02F21340002BACD107F52F
:103870000273A3F501731B681B6803F00803002B98
:1038800000F0138107F50273A3F501731B685B69F0
:10389000002B7CD00123C7F81431D7F8143193FAE8
:1038A000A3F3C7F81031D7F81031B3FA83F3DBB2C2
:1038B0001A46A24B13449B001A4601231360FFF7DC
:1038C0007BF9C7F800020AE0FFF776F90246D7F85D
:1038D0000032D31A022B02D9032300F0FEBC0223CC
:1038E000C7F80C31D7F80C3193FAA3F207F502733D
:1038F000A3F580731A6007F50273A3F582730222A1
:103900001A6007F50273A3F582731B6893FAA3F29A
:1039100007F50273A3F584731A6007F50273A3F524
:10392000867302221A6007F50273A3F586731B687B
:1039300093FAA3F207F50273A3F588731A607E4B1E
:103940005A6A07F50273A3F58A730221196007F515
:103950000273A3F58A731B6893FAA3F107F5027348
:10396000A3F58C73196007F50273A3F58C731B68BC
:10397000B3FA83F3DBB243F06003DBB203F01F035F
:10398000012101FA03F31340002B9DD08DE007F5D0
:103990000273A3F58E7301221A6007F50273A3F573
:1039A0008E731B6893FAA3F207F50273A3F5907365
:1039B0001A6007F50273A3F590731B68B3FA83F3DB
:1039C000DBB21A465D4B13449B001A46002313607A
:1039D000FFF7F2F8C7F800020AE0FFF7EDF8024639
:1039E000D7F80032D31A022B02D9032300F075BC9A
:1039F00007F50273A3F5927302221A6007F50273AA
:103A0000A3F592731B6893FAA3F207F50273A3F56B
:103A100094731A6007F50273A3F5967302221A6075
:103A200007F50273A3F596731B6893FAA3F207F5E3
:103A30000273A3F598731A6007F50273A3F59A73DE
:103A400002221A6007F50273A3F59A731B6893FAB2
:103A5000A3F207F50273A3F59C731A60364B5A6AFA
:103A600007F50273A3F59E730221196007F502732F
:103A7000A3F59E731B6893FAA3F107F50273A3F5F0
:103A8000A073196007F50273A3F5A0731B68B3FA5E
:103A900083F3DBB243F06003DBB203F01F030121C9
:103AA00001FA03F31340002B97D107F50273A3F536
:103AB00001731B681B6803F00403002B00F0A58151
:103AC000002387F807321C4BDB6903F08053002B7F
:103AD00016D1194BDB69184A43F08053D361164B5A
:103AE000DB6903F0805207F50273A3F5FE731A60D9
:103AF00007F50273A3F5FE731B68012387F80732ED
:103B00000F4B1B6803F48073002B21D10C4B1B68F7
:103B10000B4A43F480731360FFF74EF8C7F80002B6
:103B200010E0FFF749F80246D7F80032D31A642BA9
:103B300008D90323D1E300BF001002402081901078
:103B4000007000408D4B1B6803F48073002BE8D09D
:103B500007F50273A3F501731B689B68012B06D15F
:103B6000874B1B6A864A43F00103136235E007F571
:103B70000273A3F501731B689B68002B0CD1804B6B
:103B80001B6A7F4A23F0010313627D4B1B6A7C4A48
:103B900023F00403136220E007F50273A3F5017319
:103BA0001B689B68052B0CD1754B1B6A744A43F04C
:103BB00004031362724B1B6A714A43F001031362E0
:103BC0000BE06F4B1B6A6E4A23F0010313626C4BD0
:103BD0001B6A6B4A23F00403136207F50273A3F513
:103BE00001731B689B68002B00F08180FEF7E4FFE7
:103BF000C7F800020BE0FEF7DFFF0246D7F80032FD
:103C0000D31A41F28832934201D9032365E307F5C1
:103C10000273A3F5A27302221A6007F50273A3F5DB
:103C2000A2731B6893FAA3F207F50273A3F5A473BA
:103C30001A6007F50273A3F5A67302221A6007F54E
:103C40000273A3F5A6731B6893FAA3F207F5027338
:103C5000A3F5A8731A6007F50273A3F5A8731B6890
:103C6000B3FA83F3DBB25B09DBB243F00203DBB2EE
:103C7000022B02D1424B1B6A13E007F50273A3F536
:103C8000AA7302221A6007F50273A3F5AA731B68D0
:103C900093FAA3F207F50273A3F5AC731A60384BDD
:103CA0005B6A07F50272A2F5AE720221116007F598
:103CB0000272A2F5AE72126892FAA2F107F50272D0
:103CC000A2F5B072116007F50272A2F5B072126827
:103CD000B2FA82F2D2B242F04002D2B202F01F0235
:103CE000012101FA02F21340002B84D083E0FEF799
:103CF00063FFC7F800020BE0FEF75EFF0246D7F84D
:103D00000032D31A41F28832934201D90323E4E20C
:103D100007F50273A3F5B27302221A6007F5027366
:103D2000A3F5B2731B6893FAA3F207F50273A3F528
:103D3000B4731A6007F50273A3F5B67302221A6012
:103D400007F50273A3F5B6731B6893FAA3F207F5A0
:103D50000273A3F5B8731A6007F50273A3F5B8737D
:103D60001B68B3FA83F3DBB25B09DBB243F00203F7
:103D7000DBB2022B06D1024B1B6A17E00070004039
:103D80000010024007F50273A3F5BA7302221A600D
:103D900007F50273A3F5BA731B6893FAA3F207F54C
:103DA0000273A3F5BC731A60B34B5B6A07F502722A
:103DB000A2F5BE720221116007F50272A2F5BE7271
:103DC000126892FAA2F107F50272A2F5C0721160B0
:103DD00007F50272A2F5C0721268B2FA82F2D2B28C
:103DE00042F04002D2B202F01F02012101FA02F2B7
:103DF0001340002B80D197F80732012B05D19E4B41
:103E0000DB699D4A23F08053D36107F50273A3F564
:103E100001731B689B69002B00F05E82964B5B6808
:103E200003F00C03082B00F01F8207F50273A3F5C3
:103E300001731B689B69022B40F0708107F50273C8
:103E4000A3F5C2734FF080721A6007F50273A3F5F1
:103E5000C2731B6893FAA3F207F50273A3F5C47348
:103E60001A6007F50273A3F5C4731B68B3FA83F3F2
:103E7000DBB203F1845303F584139B001A4600233D
:103E80001360FEF799FEC7F8000209E0FEF794FE02
:103E90000246D7F80032D31A022B01D903231CE2C1
:103EA00007F50273A3F5C6734FF000721A6007F5A9
:103EB0000273A3F5C6731B6893FAA3F207F50273A6
:103EC000A3F5C8731A6007F50273A3F5C8731B68DE
:103ED000B3FA83F3DBB25B09DBB243F00103DBB27D
:103EE000012B02D1644B1B6827E007F50273A3F591
:103EF000CA734FF000721A6007F50273A3F5CA7314
:103F00001B6893FAA3F207F50273A3F5CC731A604A
:103F100007F50273A3F5CE734FF000721A6007F530
:103F20000273A3F5CE731B6893FAA3F207F502732D
:103F3000A3F5D0731A60504B5B6A07F50272A2F5C5
:103F4000D2724FF00071116007F50272A2F5D272C1
:103F5000126892FAA2F107F50272A2F5D47211600A
:103F600007F50272A2F5D4721268B2FA82F2D2B2E6
:103F700042F02002D2B202F01F02012101FA02F245
:103F80001340002B82D13C4BDB6A23F00F0207F574
:103F90000273A3F501731B685B6A37491343CB6255
:103FA000354B5B6823F4761207F50273A3F50173B2
:103FB0001B68196A07F50273A3F501731B68DB69B7
:103FC0000B432D4913434B6007F50273A3F5D673DA
:103FD0004FF080721A6007F50273A3F5D6731B6861
:103FE00093FAA3F207F50273A3F5D8731A6007F5E5
:103FF0000273A3F5D8731B68B3FA83F3DBB203F142
:10400000845303F584139B001A4601231360FEF7C3
:10401000D3FDC7F8000209E0FEF7CEFD0246D7F84F
:104020000032D31A022B01D9032356E107F502739C
:10403000A3F5DA734FF000721A6007F50273A3F567
:10404000DA731B6893FAA3F207F50273A3F5DC7326
:104050001A6007F50273A3F5DC731B68B3FA83F3E8
:10406000DBB25B09DBB243F00103DBB2012B05D10C
:10407000014B1B682AE000BF0010024007F50273E5
:10408000A3F5DE734FF000721A6007F50273A3F513
:10409000DE731B6893FAA3F207F50273A3F5E073CE
:1040A0001A6007F50273A3F5E2734FF000721A600D
:1040B00007F50273A3F5E2731B6893FAA3F207F501
:1040C0000273A3F5E4731A60864B5B6A07F502720C
:1040D000A2F5E6724FF00071116007F50272A2F5C9
:1040E000E672126892FAA2F107F50272A2F5E8727E
:1040F000116007F50272A2F5E8721268B2FA82F254
:10410000D2B242F02002D2B202F01F02012101FA23
:1041100002F21340002B3FF47FAFDDE007F502739E
:10412000A3F5EA734FF080721A6007F50273A3F5E6
:10413000EA731B6893FAA3F207F50273A3F5EC7315
:104140001A6007F50273A3F5EC731B68B3FA83F3E7
:10415000DBB203F1845303F584139B001A4600235A
:104160001360FEF729FDC7F8000209E0FEF724FD01
:104170000246D7F80032D31A022B01D90323ACE050
:1041800007F50273A3F5EE734FF000721A6007F59E
:104190000273A3F5EE731B6893FAA3F207F502739B
:1041A000A3F5F0731A6007F50273A3F5F0731B68AB
:1041B000B3FA83F3DBB25B09DBB243F00103DBB29A
:1041C000012B02D1474B1B6827E007F50273A3F5CB
:1041D000F2734FF000721A6007F50273A3F5F273E1
:1041E0001B6893FAA3F207F50273A3F5F4731A6040
:1041F00007F50273A3F5F6734FF000721A6007F526
:104200000273A3F5F6731B6893FAA3F207F5027322
:10421000A3F5F8731A60334B5B6A07F50272A2F5D7
:10422000FA724FF00071116007F50272A2F5FA728E
:10423000126892FAA2F107F50272A2F5FC721160FF
:1042400007F50272A2F5FC721268B2FA82F2D2B2DB
:1042500042F02002D2B202F01F02012101FA02F262
:104260001340002B82D137E007F50273A3F50173E9
:104270001B689B69012B01D101232EE0194B5B6860
:10428000C7F8FC31174BDB6AC7F8F831D7F8FC31B7
:1042900003F4C03207F50273A3F501731B68DB69F1
:1042A0009A4217D1D7F8FC3103F4701207F5027364
:1042B000A3F501731B681B6A9A420BD1D7F8F8313A
:1042C00003F00F0207F50273A3F501731B685B6A25
:1042D0009A4201D0012300E00023184607F5027737
:1042E000BD4680BD0010024080B59EB000AF786032
:1042F000396000237B677B68002B01D1012362E1D9
:10430000904B1B6803F007033A689A4210D98D4B13
:104310001B6823F007028B493B6813430B60894BF2
:104320001B6803F007033A689A4201D001234AE16F
:104330007B681B6803F00203002B08D0824B5B688C
:1043400023F0F0027B689B687F4913434B607B68D6
:104350001B6803F00103002B00F0DC807B685B68C6
:10436000012B3CD14FF400333B673B6F93FAA3F32F
:10437000FB66FB6EB3FA83F3DBB25B09DBB243F09F
:104380000103DBB2012B02D16F4B1B680FE04FF42E
:104390000033BB66BB6E93FAA3F37B664FF4003326
:1043A0003B663B6E93FAA3F3FB65674B5B6A4FF486
:1043B0000032BA65BA6D92FAA2F27A657A6DB2FAF3
:1043C00082F2D2B242F02002D2B202F01F020121E8
:1043D00001FA02F21340002B7BD10123F3E07B684A
:1043E0005B68022B3CD14FF000733B653B6D93FA49
:1043F000A3F3FB64FB6CB3FA83F3DBB25B09DBB2C0
:1044000043F00103DBB2012B02D14F4B1B680FE0DD
:104410004FF00073BB64BB6C93FAA3F37B644FF063
:1044200000733B643B6C93FAA3F3FB63464B5B6AFC
:104430004FF00072BA63BA6B92FAA2F27A637A6BA7
:10444000B2FA82F2D2B242F02002D2B202F01F02DD
:10445000012101FA02F21340002B3AD10123B2E00C
:1044600002233B633B6B93FAA3F3FB62FB6AB3FA51
:1044700083F3DBB25B09DBB243F00103DBB2012B58
:1044800002D1314B1B680DE00223BB62BB6A93FA79
:10449000A3F37B6202233B623B6A93FAA3F3FB61C3
:1044A000294B5B6A0222BA61BA6992FAA2F27A6176
:1044B0007A69B2FA82F2D2B242F02002D2B202F0AB
:1044C0001F02012101FA02F21340002B01D1012346
:1044D00079E01D4B5B6823F003027B685B681A4937
:1044E00013434B60FEF768FB78670AE0FEF764FB56
:1044F00002467B6FD31A41F28832934201D90323DB
:1045000061E0114B5B6803F00C027B685B689B0009
:104510009A42EBD10B4B1B6803F007033A689A42AF
:1045200014D2084B1B6823F0070206493B6813436B
:104530000B60044B1B6803F007033A689A4205D0EE
:10454000012340E000200240001002407B681B680D
:1045500003F00403002B08D01D4B5B6823F4E062DA
:104560007B68DB681A4913434B607B681B6803F068
:104570000803002B09D0164B5B6823F460527B685C
:104580001B69DB00124913434B6000F029F8014618
:104590000F4B5B6803F0F003F0223A613A6992FA3C
:1045A000A2F2FA60FA68B2FA82F2D2B2D340094AB1
:1045B000D35C21FA03F3084A1360084B1B681846C2
:1045C000FCF722FB002318467837BD4680BD00BFAC
:1045D000001002408CCB00086000002090000020FA
:1045E00080B48BB000AF0023FB610023BB610023CC
:1045F0007B6200237B6100233B622A4B5B68FB618B
:10460000FB6903F00C03042B02D0082B03D03FE01E
:10461000254B3B623FE0FB6903F470134FF47012CB
:10462000BA60BA6892FAA2F27A607A68B2FA82F252
:10463000D2B2D3401D4AD35C7B611A4BDB6A03F0D4
:104640000F030F223A613A6992FAA2F2FA60FA680D
:10465000B2FA82F2D2B2D340154AD35CBB61FB6995
:1046600003F48033002B08D00F4ABB69B2FBF3F28E
:104670007B6902FB03F37B6207E00B4ABB69B2FB79
:10468000F3F27B6902FB03F37B627B6A3B6202E02D
:10469000054B3B6200BF3B6A18462C37BD465DF8B0
:1046A000047B70470010024000127A00A4CB00087F
:1046B000B4CB000880B400AF034B1B681846BD465E
:1046C0005DF8047B704700BF6000002080B582B0B9
:1046D00000AFFFF7EFFF01460B4B5B6803F4E063AD
:1046E0004FF4E0627A607A6892FAA2F23A603A682D
:1046F000B2FA82F2D2B2D340044AD35C21FA03F375
:1047000018460837BD4680BD001002409CCB00080B
:1047100080B582B000AFFFF7CDFF01460B4B5B6861
:1047200003F460534FF460527A607A6892FAA2F20E
:104730003A603A68B2FA82F2D2B2D340044AD35C09
:1047400021FA03F318460837BD4680BD0010024029
:104750009CCB000880B483B000AF786039607B6880
:104760000F221A60124B5B6803F003027B685A60E9
:104770000F4B5B6803F0F0027B689A600C4B5B6840
:1047800003F4E0627B68DA60094B5B68DB0803F4E2
:10479000E0627B681A61074B1B6803F007023B6805
:1047A0001A6000BF0C37BD465DF8047B704700BF40
:1047B000001002400020024080B592B000AF786047
:1047C00000233B640023FB63002387F847307B68AA
:1047D0001B6803F48033002B00F0D4804E4BDB6960
:1047E00003F08053002B0ED14B4BDB694A4A43F058
:1047F0008053D361484BDB6903F08053BB60BB68D7
:10480000012387F84730454B1B6803F48073002B66
:1048100018D1424B1B68414A43F480731360FEF782
:10482000CBF9386408E0FEF7C7F902463B6CD31AAF
:10483000642B01D90323D6E1384B1B6803F4807342
:10484000002BF0D0344B1B6A03F44073FB63FB6B0B
:10485000002B00F084807B685B6803F44073FA6B84
:104860009A427CD02C4B1B6A23F44073FB634FF4B9
:1048700080333B633B6B93FAA3F3FB62FB6AB3FAAF
:1048800083F3DBB21A46264B13449B001A460123DE
:1048900013604FF48033BB63BB6B93FAA3F37B636A
:1048A0007B6BB3FA83F3DBB21A461D4B13449B00B8
:1048B0001A4600231360184AFB6B1362FB6B03F06C
:1048C0000103002B4BD0FEF777F938640AE0FEF7BE
:1048D00073F902463B6CD31A41F28832934201D9F4
:1048E000032380E10223BB62BB6A93FAA3F37B62DA
:1048F00002233B623B6A93FAA3F3FB61FB69B3FAC1
:1049000083F3DBB25B09DBB243F00203DBB2022BC1
:1049100008D1014B1B6A0DE00010024000700040FE
:10492000008190100223BB61BB6993FAA3F37B6102
:104930009A4B5B6A02223A613A6992FAA2F2FA60F1
:10494000FA68B2FA82F2D2B242F04002D2B202F077
:104950001F02012101FA02F21340002BB7D08F4B46
:104960001B6A23F440727B685B688C4913430B62BB
:1049700097F84730012B05D1884BDB69874A23F034
:104980008053D3617B681B6803F00103002B08D0C0
:10499000824B1B6B23F003027B689B687F491343A8
:1049A0000B637B681B6803F00203002B08D07B4B72
:1049B0001B6B23F440327B68DB68784913430B633D
:1049C0007B681B6803F00403002B08D0734B1B6B40
:1049D00023F440227B681B69704913430B637B6897
:1049E0001B6803F02003002B08D06C4B1B6B23F0DB
:1049F00010027B68DB69694913430B637B681B68A2
:104A000003F40033002B08D0644B5B6823F480026E
:104A10007B685B6D614913434B607B681B6803F0E7
:104A20004003002B08D05D4B1B6B23F020027B68FA
:104A30001B6A5A4913430B637B681B6803F480238A
:104A4000002B08D0554B1B6B23F040027B685B6A40
:104A5000524913430B637B681B6803F00803002B68
:104A600008D04E4B1B6B23F440127B685B694B49AB
:104A700013430B637B681B6803F01003002B08D003
:104A8000464B1B6B23F440027B689B6943491343ED
:104A90000B637B681B6803F40073002B08D03F4B4B
:104AA0005B6823F400027B681B6B3C4913434B603B
:104AB0007B681B6803F08003002B08D0374BDB6A50
:104AC00023F4F8727B689B6A34491343CB627B689A
:104AD0001B6803F48073002B08D0304BDB6A23F48F
:104AE00078527B68DB6A2D491343CB627B681B6875
:104AF00003F48053002B08D0284B1B6B23F48072E7
:104B00007B685B6B254913430B637B681B6803F46D
:104B10000053002B08D0214B1B6B23F400727B68E1
:104B20001B6C1E4913430B637B681B6803F48013E3
:104B3000002B08D0194B1B6B23F080727B689B6B9A
:104B4000164913430B637B681B6803F40013002BA7
:104B500008D0124B1B6B23F000727B68DB6B0F4994
:104B600013430B637B681B6803F48003002B08D09E
:104B70000A4B1B6B23F480627B685B6C0749134311
:104B80000B637B681B6803F40003002B0CD0034B02
:104B90001B6B23F400627B6802E000BF0010024040
:104BA0009B6C134913430B637B681B6803F0807392
:104BB000002B08D00E4B1B6B23F400527B68DB6C80
:104BC0000B4913430B637B681B6803F00073002BD6
:104BD00008D0074B1B6B23F400427B681B6D044914
:104BE00013430B63002318464837BD4680BD00BF02
:104BF0000010024080B582B000AF78607B68002B67
:104C000001D1012349E07B6893F83D30DBB2002BF2
:104C100006D17B68002283F83C207868FCF7FEFE12
:104C20007B68022283F83D207B681A687B68043326
:104C30001946104601F016F97B68012283F84820D6
:104C40007B68012283F83E207B68012283F83F20A5
:104C50007B68012283F840207B68012283F8412091
:104C60007B68012283F842207B68012283F843207D
:104C70007B68012283F844207B68012283F8452069
:104C80007B68012283F846207B68012283F8472055
:104C90007B68012283F83D20002318460837BD4673
:104CA00080BD000080B485B000AF78607B6893F869
:104CB0003D30DBB2012B01D001234FE07B680222A3
:104CC00083F83D207B681B68DA687B681B6842F0CC
:104CD0000102DA607B681B68234A93421DD07B681F
:104CE0001B68B3F1804F18D07B681B681F4A934242
:104CF00013D07B681B681E4A93420ED07B681B68EA
:104D00001C4A934209D07B681B681B4A934204D01B
:104D10007B681B68194A934215D17B681B689A68A7
:104D2000174B1340FB60FB68062B15D0FB68B3F5EF
:104D3000803F11D07B681B681A687B681B6842F053
:104D400001021A6008E07B681B681A687B681B68B0
:104D500042F001021A6000E000BF00231846143739
:104D6000BD465DF8047B7047002C01400004004004
:104D70000008004000340140004001400050014064
:104D80000700010080B582B000AF78607B68002B1F
:104D900001D1012349E07B6893F83D30DBB2002B61
:104DA00006D17B68002283F83C20786800F041F847
:104DB0007B68022283F83D207B681A687B68043395
:104DC0001946104601F04EF87B68012283F848200E
:104DD0007B68012283F83E207B68012283F83F2014
:104DE0007B68012283F840207B68012283F8412000
:104DF0007B68012283F842207B68012283F84320EC
:104E00007B68012283F844207B68012283F84520D7
:104E10007B68012283F846207B68012283F84720C3
:104E20007B68012283F83D20002318460837BD46E1
:104E300080BD80B483B000AF786000BF0C37BD4642
:104E40005DF8047B7047000080B584B000AF7860E7
:104E500039603B68002B09D17B6893F83E30DBB2A8
:104E6000012B14BF01230023DBB23CE03B68042B81
:104E700009D17B6893F83F30DBB2012B14BF0123CB
:104E80000023DBB22FE03B68082B09D17B6893F845
:104E90004030DBB2012B14BF01230023DBB222E040
:104EA0003B680C2B09D17B6893F84130DBB2012BB6
:104EB00014BF01230023DBB215E03B68102B09D19E
:104EC0007B6893F84230DBB2012B14BF012300232F
:104ED000DBB208E07B6893F84330DBB2012B14BFF0
:104EE00001230023DBB2002B01D00123A1E03B68AA
:104EF000002B04D17B68022283F83E2023E03B682C
:104F0000042B04D17B68022283F83F201BE03B681E
:104F1000082B04D17B68022283F8402013E03B6811
:104F20000C2B04D17B68022283F841200BE03B6804
:104F3000102B04D17B68022283F8422003E07B68B7
:104F4000022283F843207B681B68012239681846D7
:104F500001F0EAFC7B681B68384A934218D07B68F2
:104F60001B68374A934213D07B681B68354A9342CB
:104F70000ED07B681B68344A934209D07B681B685B
:104F8000324A934204D07B681B68314A934201D174
:104F9000012300E00023002B07D07B681B685A6CBC
:104FA0007B681B6842F400425A647B681B68234A92
:104FB00093421DD07B681B68B3F1804F18D07B688B
:104FC0001B68244A934213D07B681B68224A934291
:104FD0000ED07B681B681A4A934209D07B681B6815
:104FE000184A934204D07B681B68194A934215D132
:104FF0007B681B689A68194B1340FB60FB68062BA3
:1050000015D0FB68B3F5803F11D07B681B681A6828
:105010007B681B6842F001021A6008E07B681B682D
:105020001A687B681B6842F001021A6000E000BF4A
:10503000002318461037BD4680BD00BF002C01403C
:10504000003401400040014000440140004801405C
:10505000005001400004004000080040070001002B
:1050600080B582B000AF786039607B681B68002231
:105070003968184601F058FC7B681B68404A934227
:1050800018D07B681B683F4A934213D07B681B682B
:105090003D4A93420ED07B681B683C4A934209D03C
:1050A0007B681B683A4A934204D07B681B68394A84
:1050B000934201D1012300E00023002B17D07B682D
:1050C0001B681A6A41F211131340002B0FD17B6841
:1050D0001B681A6A40F244431340002B07D17B68D7
:1050E0001B685A6C7B681B6822F400425A647B6818
:1050F0001B681A6A41F211131340002B0FD17B6811
:105100001B681A6A40F244431340002B07D17B68A6
:105110001B681A687B681B6822F001021A603B68F2
:10512000002B04D17B68012283F83E2023E03B68FA
:10513000042B04D17B68012283F83F201BE03B68ED
:10514000082B04D17B68012283F8402013E03B68E0
:105150000C2B04D17B68012283F841200BE03B68D3
:10516000102B04D17B68012283F8422003E07B6886
:10517000012283F84320002318460837BD4680BD2E
:10518000002C014000340140004001400044014037
:10519000004801400050014080B582B000AF786007
:1051A0007B68002B01D1012349E07B6893F83D30F7
:1051B000DBB2002B06D17B68002283F83C207868A4
:1051C00000F041F87B68022283F83D207B681A6872
:1051D0007B6804331946104600F044FE7B680122C8
:1051E00083F848207B68012283F83E207B680122F7
:1051F00083F83F207B68012283F840207B680122EE
:1052000083F841207B68012283F842207B680122D9
:1052100083F843207B68012283F844207B680122C5
:1052200083F845207B68012283F846207B680122B1
:1052300083F847207B68012283F83D20002318462D
:105240000837BD4680BD80B483B000AF786000BF32
:105250000C37BD465DF8047B7047000080B584B014
:1052600000AF786039600023FB733B68002B04D1EA
:105270007B6893F83E30DBB223E03B68042B04D11B
:105280007B6893F83F30DBB21BE03B68082B04D10E
:105290007B6893F84030DBB213E03B680C2B04D101
:1052A0007B6893F84130DBB20BE03B68102B04D1F4
:1052B0007B6893F84230DBB203E07B6893F84330BD
:1052C000DBB2BB733B68002B04D17B6893F844309E
:1052D000DBB213E03B68042B04D17B6893F84530C4
:1052E000DBB20BE03B68082B04D17B6893F84630B7
:1052F000DBB203E07B6893F84730DBB27B73BB7BA8
:10530000012B02D17B7B012B01D00123DDE03B6827
:10531000002B04D17B68022283F83E2023E03B6807
:10532000042B04D17B68022283F83F201BE03B68FA
:10533000082B04D17B68022283F8402013E03B68ED
:105340000C2B04D17B68022283F841200BE03B68E0
:10535000102B04D17B68022283F8422003E07B6893
:10536000022283F843203B68002B04D17B68022291
:1053700083F8442013E03B68042B04D17B680222AD
:1053800083F845200BE03B68082B04D17B680222A0
:1053900083F8462003E07B68022283F847203B68BD
:1053A0000C2B41D801A252F823F000BFE1530008B2
:1053B000295400082954000829540008F353000810
:1053C00029540008295400082954000805540008ED
:1053D00029540008295400082954000817540008CB
:1053E0007B681B68DA687B681B6842F00202DA603F
:1053F0001DE07B681B68DA687B681B6842F004026A
:10540000DA6014E07B681B68DA687B681B6842F02E
:105410000802DA600BE07B681B68DA687B681B684F
:1054200042F01002DA6002E00123FB7300BFFB7B55
:10543000002B49D17B681B6801223968184601F0AE
:1054400073FA7B681B68234A93421DD07B681B68F4
:10545000B3F1804F18D07B681B681F4A934213D06A
:105460007B681B681D4A93420ED07B681B681C4AF0
:10547000934209D07B681B681A4A934204D07B6828
:105480001B68194A934215D17B681B689A68174BB1
:105490001340BB60BB68062B15D0BB68B3F5803FDB
:1054A00011D07B681B681A687B681B6842F0010298
:1054B0001A6008E07B681B681A687B681B6842F00A
:1054C00001021A6000E000BFFB7B18461037BD46A2
:1054D00080BD00BF002C01400004004000080040D7
:1054E000003401400040014000500140070001002D
:1054F00080B584B000AF786039600023FB733B68EF
:105500000C2B41D801A252F823F000BF41550008EE
:105510008955000889550008895500085355000829
:105520008955000889550008895500086555000807
:1055300089550008895500088955000877550008E5
:105540007B681B68DA687B681B6822F00202DA60FD
:105550001DE07B681B68DA687B681B6822F0040228
:10556000DA6014E07B681B68DA687B681B6822F0ED
:105570000802DA600BE07B681B68DA687B681B68EE
:1055800022F01002DA6002E00123FB7300BFFB7B14
:10559000002B66D17B681B6800223968184601F031
:1055A000C3F97B681B681A6A41F211131340002B80
:1055B0000FD17B681B681A6A40F244431340002BEA
:1055C00007D17B681B681A687B681B6822F00102A0
:1055D0001A603B68002B04D17B68012283F83E20CF
:1055E00023E03B68042B04D17B68012283F83F2031
:1055F0001BE03B68082B04D17B68012283F8402024
:1056000013E03B680C2B04D17B68012283F8412016
:105610000BE03B68102B04D17B68012283F8422009
:1056200003E07B68012283F843203B68002B04D110
:105630007B68012283F8442013E03B68042B04D1EB
:105640007B68012283F845200BE03B68082B04D1DE
:105650007B68012283F8462003E07B68012283F8FF
:105660004720FB7B18461037BD4680BD80B582B011
:1056700000AF78607B681B681B6903F00203022B94
:1056800022D17B681B68DB6803F00203022B1BD16D
:105690007B681B686FF002021A617B6801221A772F
:1056A0007B681B689B6903F00303002B03D07868B9
:1056B000FDF7D0F805E0786800F0B6FB786800F0F8
:1056C000BDFB7B6800221A777B681B681B6903F0AF
:1056D0000403042B22D17B681B68DB6803F00403FE
:1056E000042B1BD17B681B686FF004021A617B6876
:1056F00002221A777B681B689B6903F44073002BB6
:1057000003D07868FDF7A6F805E0786800F08CFB18
:10571000786800F093FB7B6800221A777B681B682F
:105720001B6903F00803082B22D17B681B68DB6828
:1057300003F00803082B1BD17B681B686FF008027D
:105740001A617B6804221A777B681B68DB6903F0A7
:105750000303002B03D07868FDF77CF805E0786838
:1057600000F062FB786800F069FB7B6800221A7722
:105770007B681B681B6903F01003102B22D17B6828
:105780001B68DB6803F01003102B1BD17B681B68C0
:105790006FF010021A617B6808221A777B681B6819
:1057A000DB6903F44073002B03D07868FDF752F8EF
:1057B00005E0786800F038FB786800F03FFB7B6814
:1057C00000221A777B681B681B6903F00103012B19
:1057D0000ED17B681B68DB6803F00103012B07D146
:1057E0007B681B686FF001021A617868FBF7CCF9DF
:1057F0007B681B681B6903F08003802B0ED17B68DC
:105800001B68DB6803F08003802B07D17B681B6873
:105810006FF080021A61786801F0C8F97B681B6834
:105820001B6903F48073B3F5807F0ED17B681B681E
:10583000DB6803F08003802B07D17B681B686FF463
:1058400080721A61786801F0BBF97B681B681B697C
:1058500003F04003402B0ED17B681B68DB6803F02C
:105860004003402B07D17B681B686FF040021A6130
:10587000786800F0EDFA7B681B681B6903F0200371
:10588000202B0ED17B681B68DB6803F02003202BE4
:1058900007D17B681B686FF020021A61786801F0FD
:1058A0007BF900BF0837BD4680BD80B586B000AF2C
:1058B000F860B9607A600023FB75FB6893F83C30B0
:1058C000012B01D1022388E0FB68012283F83C20F0
:1058D0007B68002B1BD1FB681868BB681968BB6824
:1058E0005A68BB68DB6800F061FEFB681B689A6958
:1058F000FB681B6822F00C029A61FB681B689969BF
:10590000BB689A68FB681B680A439A6160E07B6821
:10591000042B1CD1FB681868BB681968BB685A68FF
:10592000BB68DB6800F0DFFEFB681B689A69FB68F8
:105930001B6822F440629A61FB681B689969BB6826
:105940009B681A02FB681B680A439A6140E07B6807
:10595000082B1BD1FB681868BB681968BB685A68BC
:10596000BB68DB6800F02CFFFB681B68DA69FB682A
:105970001B6822F00C02DA61FB681B68D969BB68FE
:105980009A68FB681B680A43DA6121E07B680C2B8C
:105990001CD1FB681868BB681968BB685A68BB688B
:1059A000DB6800F049FFFB681B68DA69FB681B686D
:1059B00022F44062DA61FB681B68D969BB689B68A6
:1059C0001A02FB681B680A43DA6101E00123FB75D8
:1059D000FB68002283F83C20FB7D18461837BD4643
:1059E00080BD000080B586B000AFF860B9607A6015
:1059F0000023FB75FB6893F83C30012B01D1022397
:105A0000FFE0FB68012283F83C207B68142B00F246
:105A1000F08001A252F823F06D5A0008F35B0008F1
:105A2000F35B0008F35B0008AD5A0008F35B000865
:105A3000F35B0008F35B0008EF5A0008F35B000813
:105A4000F35B0008F35B00082F5B0008F35B0008C2
:105A5000F35B0008F35B0008715B0008F35B000870
:105A6000F35B0008F35B0008B15B0008FB681B6890
:105A7000B968184600F094FAFB681B689A69FB68DD
:105A80001B6842F008029A61FB681B689A69FB6810
:105A90001B6822F004029A61FB681B689969BB6865
:105AA0001A69FB681B680A439A61A5E0FB681B68DA
:105AB000B968184600F00EFBFB681B689A69FB6822
:105AC0001B6842F400629A61FB681B689A69FB6874
:105AD0001B6822F480629A61FB681B689969BB6845
