:020000040800F2
:1000000000000120891D0008690A00086F0A000825
:10001000750A00087B0A0008810A00080000000039
:10002000000000000000000000000000C1AA00085D
:10003000870A00080000000011AD000879AD000833
:10004000D91D0008D91D0008D91D0008D91D0008B8
:10005000D91D0008D91D0008D91D0008D91D0008A8
:10006000D91D0008D91D0008D91D0008D91D000898
:10007000D91D0008D91D0008D91D0008D91D000888
:10008000D91D0008D91D0008D91D0008D91D000878
:10009000D91D0008D91D0008D91D0008D91D000868
:1000A000950A0008D91D0008D91D0008BD0A0008DE
:1000B000D90A0008F50A0008110B0008D91D00082C
:1000C000D91D0008D91D0008D91D0008D91D000838
:1000D000D91D0008D91D0008D91D0008D91D000828
:1000E000D91D0008D91D0008D91D0008D91D000818
:1000F000D91D0008D91D00082D0B0008D91D0008C6
:10010000D91D00080000000000000000D91D0008F3
:10011000490B0008D91D00085D0B0008D91D000817
:10012000D91D0008D91D0008D91D0008D91D0008D7
:10013000D91D0008D91D00080000000000000000C3
:10014000D91D0008D91D0008D91D000800000000B5
:10015000000000000000000000000000000000009F
:10016000D91D0008D91D0008D91D0008D91D000897
:10017000D91D0008D91D0008D91D0008D91D000887
:10018000D91D0008D91D0008000000000000000073
:04019000D91D00086D
:1001A00010B5054C237833B9044B13B10448AFF3B1
:1001B00000800123237010BDE80000200000000033
:1001C00038C2000808B5034B1BB103490348AFF31D
:1001D000008008BD00000000EC00002038C20008CC
:1001E00001F0FF01102A2BDB10F0070F08D010F8E8
:1001F000013B013A8B422DD010F0070F42B3F6D1EC
:10020000F0B441EA012141EA014122F007047FF004
:1002100000070023F0E80256083C85EA010586EA5B
:10022000010685FA47F5A3FA87F586FA47F6A5FA97
:1002300087F68EB9EED1F0BC01F0FF0102F00702A3
:1002400032B110F8013B013A83EA010313B1F8D14E
:100250000020704701387047002D06BF354603382F
:10026000073815F0010F07D1013015F4807F02BF68
:10027000013015F4C03F0130F0BC0138704700BFB9
:1002800080B500AF194808F001F80346184A13601A
:10029000184A0021184807F0A5FD0346174A1360C5
:1002A000174A0021174807F09DFD0346164A1360C0
:1002B000164A0021164807F095FD0346154A1360BB
:1002C000154A0021154807F08DFD0346144A1360B6
:1002D000144807F0B9FE0346134A1360134807F0A9
:1002E000B3FE0346124A136000BF80BD00C600087B
:1002F0001401002070C50008350300080401002027
:1003000094C500087103000808010020B8C5000862
:10031000010400080C010020DCC500088504000869
:100320001001002010C600081801002020C6000897
:100330001C01002080B582B000AF7860094801F050
:10034000A7FD094801F0BEFD08480BF0A7F807F02B
:10035000F3FD0346184607F015FE4FF47A7007F0D8
:1003600045FEF1E75800002048000020C0C2000808
:1003700080B582B000AF7860164802F03BF9164BAA
:100380001B68194615480BF023F8154802F032F99E
:10039000114B5B68194613480BF01AF8124802F02B
:1003A00029F90D4B9B68194610480BF011F81048BD
:1003B00002F020F90F4802F01DF90F4802F01AF977
:1003C000054B5B6919460D480BF002F8322007F027
:1003D0000DFED1E70000002098040020D8C20008DC
:1003E0000C000020FCC200081800002024C30008F4
:1003F00024000020300000203C0000204CC30008F6
:1004000080B582B000AF78601A4B1B78572B0CD1A7
:10041000194B1B680121184607F068FE164B1B6834
:100420000221184607F0BAFE0FE0124B1B78552B3D
:100430000BD1114B1B680121184607F057FE0E4BDC
:100440001B680221184607F051FE0B4B1B6818462B
:1004500007F0E8FE034603F00103002B06D107482E
:100460000BF01CF80349064801F0F2FDFA2007F0F2
:10047000BDFDC9E7640000201801002070C300081A
:100480004800002080B584B000AF78600023FB7383
:100490000023BB737C4B1B78772B05D17B4B1B68F0
:1004A0000121184607F07AFE784B1B68184607F0C2
:1004B000B9FE034603F00103012B40F0DF807448CE
:1004C0000AF0ECFF7349744801F0A2FD6F4B1B6802
:1004D000184607F0A7FE034603F00203002B40F086
:1004E00093806E480AF0DAFF6D4B5B68FB736C4BD0
:1004F0009B68BB73684801F067FE02E069480AF038
:10050000CDFF674B5B68FA7B0C329342F6D3644BAA
:100510009B68BA7B0C329342F0D363480AF0BEFF6B
:1005200002E062480AF0BAFF5D4B5B68FA7B0C326E
:100530009342F6D85A4B9B68BA7B0C329342F0D860
:10054000554801F071FE052002F0C0F9524801F053
:1005500063FF5749504801F05BFD4F4801F0F8FE3A
:1005600002E054480AF09AFF4D4B9B680C2B03D9CC
:100570004B4B5B690F2BF4D8474801F055FE052023
:1005800002F0A4F9444801F047FF434801F012FF8C
:1005900000BF434B9B68042B03D9414B5B69042B81
:1005A000F7D83D4801F040FE052002F08FF93949A7
:1005B000394801F02DFD384801F02EFF364801F092
:1005C00063FE00BF364B5B68042BFBD8344B9B6843
:1005D000042BF7D8304801F027FE052002F076F909
:1005E0002D4801F019FF34480AF058FF274B1B68CB
:1005F0000121184607F0D2FD2649274801F008FDE1
:10060000214B53221A7039E0204B1B68184607F023
:1006100009FE2A480AF042FF02E01F4801F0D4FD1B
:100620001F4BDB680F2B03D81D4B1B690F2BF4D915
:10063000322002F04BF9184801F0EEFE02E01648B5
:1006400001F0B8FE164B5B69032BF8D8124801F095
:10065000E3FE02E0104801F07BFE114B1B69032B07
:10066000F8D817490C4801F0D3FC074B53221A70F5
:10067000064B1B680121184607F090FD4FF47A7075
:1006800007F0B4FC06E700BF64000020180100205A
:1006900084C300087000002048000020D0C3000878
:1006A00098040020E0C30008FCC3000814C400083C
:1006B0007800002028C4000844C4000880C4000852
:1006C0006800002080B58AB000AF07F11403002253
:1006D0001A605A609A60DA601A61414B5B69404A5D
:1006E00043F4002353613E4B5B6903F400233B61F9
:1006F0003B693B4B5B693A4A43F480035361384B97
:100700005B6903F48003FB60FB68354B5B69344A2B
:1007100043F400335361324B5B6903F40033BB6035
:10072000BB682F4B5B692E4A43F4802353612C4BEB
:100730005B6903F480237B607B6800224FF4E461F3
:100740004FF0904002F0CAFB002243F606412548D4
:1007500002F0C4FB00224FF44071234802F0BEFBBC
:100760004FF400537B614FF40413BB610023FB6122
:1007700007F1140319461C4802F026FA4FF4E4630B
:100780007B610123BB610023FB6100233B6207F116
:10079000140319464FF0904002F016FA43F6064350
:1007A0007B610123BB610023FB6100233B6207F1F6
:1007B000140319460B4802F007FA4FF440737B61AB
:1007C0000123BB610023FB6100233B6207F114039B
:1007D0001946054802F0F8F900BF2837BD4680BD2C
:1007E00000100240000400480008004880B500AF37
:1007F00002F036F800F01CF8FFF764FF00F096FAFC
:1008000000F064FB00F0FCFB00F096FC00F030FD13
:1008100000F0FEFD00F0C4FE01F008FA01F0D6F988
:1008200007F078FAFFF72CFD07F0A8FAFEE70000C2
:1008300080B5A6B000AF07F170032822002118464A
:100840000AF00CFF07F15C0300221A605A609A60FC
:10085000DA601A613B1D5822002118460AF0FEFE9C
:1008600002233B670123FB671023C7F88030002376
:10087000C7F8883007F17003184602F047FB0346BB
:10088000002B01D000F048F80F23FB6500233B66E6
:1008900000237B660023BB660023FB6607F15C0335
:1008A0000021184603F086FB0346002B01D000F020
:1008B00033F80F4B7B6000233B610023BB610023B7
:1008C000BB630023BB640023FB6400237B64002321
:1008D000FB6300233B643B1D184603F0D3FD034636
:1008E000002B01D000F018F800BF9837BD4680BD3E
:1008F0000A30F00080B582B000AF78607B681B687A
:10090000044A934201D101F0C1FF00BF0837BD4640
:1009100080BD00BF0010004080B400AF72B600BFC1
:10092000FEE7000080B582B000AF114B9B69104A12
:1009300043F0010393610E4B9B6903F001037B605D
:100940007B680B4BDB690A4A43F08053D361084B49
:10095000DB6903F080533B603B6800220F216FF09E
:10096000010002F08FF800BF0837BD4680BD00BF10
:100970000010024080B58EB000AF78600023FB62AB
:100980000023BB62334BDB69324A43F01003D3616F
:10099000304BDB6903F01003FB60FB6807F11002CA
:1009A00007F114031146184603F03AFD3B6AFB6257
:1009B000FB6A002B03D103F0EFFC786304E003F043
:1009C000EBFC03465B007B637B6B234AA2FB0323A8
:1009D0009B0C013BBB62214B214A1A601F4B40F22A
:1009E000E732DA601D4ABB6A53601C4B00221A6171
:1009F0001A4B00229A60194B00229A61174803F0A3
:100A00005FFF034687F8333097F83330002B1BD154
:100A1000124803F0ADFF034687F8333097F83330C0
:100A2000002B11D1362002F049F87B680F2B08D833
:100A300000227968362002F025F80A4A7B681360A4
:100A400002E0012387F8333097F8333018463837FF
:100A5000BD4680BD0010024083DE1B432001002004
:100A6000001000408000002080B400AFFEE780B49A
:100A700000AFFEE780B400AFFEE780B400AFFEE752
:100A800080B400AFFEE780B400AF00BFBD465DF8A4
:100A9000047B704780B500AF054B05221A700548EE
:100AA00004F04AFC044804F047FC00BF80BD00BFCE
:100AB000B004002070010020EC02002080B500AFDF
:100AC000034B00221A70034804F036FC00BF80BDBF
:100AD000B00400207001002080B500AF034B01225C
:100AE0001A70034804F028FC00BF80BDB004002049
:100AF000BC01002080B500AF034B02221A700348EE
:100B000004F01AFC00BF80BDB004002008020020E1
:100B100080B500AF034B03221A70034804F00CFCAD
:100B200000BF80BDB00400205402002080B500AF9B
:100B3000034B04221A70034804F0FEFB00BF80BD83
:100B4000B0040020A002002080B500AF024805F0EC
:100B500039FF00BF80BD00BF8403002080B500AF17
:100B6000024804F0E9FB00BF80BD00BF2001002067
:100B700080B483B000AF0346FB710F4B1B680E4A75
:100B800043F0807313600D4B1B680C4A43F0010364
:100B9000136000BF4FF060431B6803F00103002B9C
:100BA000F8D04FF06042FB79136000BF0C37BD46B0
:100BB0005DF8047B704700BFFCED00E0000E00E034
:100BC00080B586B000AFF860B9607A6000237B61C1
:100BD0000AE0AFF300800146BB685A1CBA60CAB293
:100BE0001A707B6901337B617A697B689A42F0DB1A
:100BF0007B6818461837BD4680BD80B586B000AF0B
:100C0000F860B9607A6000237B6109E0BB685A1C18
:100C1000BA601B781846FFF7ABFF7B6901337B6135
:100C20007A697B689A42F1DB7B6818461837BD46C3
:100C300080BD80B483B000AF78604FF0FF331846BA
:100C40000C37BD465DF8047B704780B483B000AFBD
:100C5000786039603B684FF400525A6000231846B0
:100C60000C37BD465DF8047B704780B483B000AF9D
:100C70007860012318460C37BD465DF8047B704749
:100C800080B485B000AFF860B9607A600023184680
:100C90001437BD465DF8047B7047000080B586B010
:100CA00000AF7860144A154BD31A7B617B693B61B6
:100CB000134B1B68002B02D1114B124A1A60104BC8
:100CC0001A687B6813443A699A4207D20AF06AFDAF
:100CD00003460C221A604FF0FF3309E0084B1B68F3
:100CE000FB60074B1A687B681344054A1360FB6876
:100CF00018461837BD4680BD0000012000040000E2
:100D00006C0100204028002080B400AF064BD3F8CF
:100D10008830054A43F47003C2F8883000BFBD46EE
:100D20005DF8047B704700BF00ED00E080B59EB029
:100D300000AF07F1680300221A605A609A60DA6017
:100D400007F15C0300221A605A609A6007F14003C1
:100D500000221A605A609A60DA601A615A619A61D8
:100D600007F1300300221A605A609A60DA603B1D76
:100D70002C22002118460AF071FC524B524A1A608C
:100D8000504B07225A604F4B00229A604D4B4FF652
:100D9000FF72DA604B4B00221A614A4B00225A6103
:100DA000484B00229A61474803F08AFD0346002B16
:100DB00001D0FFF7B1FD4FF48053BB6607F1680324
:100DC0001946404804F088FD0346002B01D0FFF788
:100DD000A3FD3C4803F03CFE0346002B01D0FFF787
:100DE0009BFD384804F03EF80346002B01D0FFF786
:100DF00093FD0023FB6500233B6600237B6607F120
:100E00005C0319462F4805F01BFC0346002B01D05C
:100E1000FFF782FD60233B6447F6BC737B640023CD
:100E2000BB640023FB6400233B6500237B65002338
:100E3000BB6507F1400300221946224804F038FC44
:100E40000346002B01D0FFF767FD00233B6301231E
:100E50007B630023BB630023FB6307F130030422A1
:100E60001946184804F087FB0346002B01D0FFF712
:100E700053FD00237B600023BB600023FB60002345
:100E80003B6100237B614FF40053BB610023FB6196
:100E900000233B624FF000737B620023BB620023A0
:100EA000FB623B1D1946074805F056FC0346002B24
:100EB00001D0FFF731FD034800F074FD00BF783723
:100EC000BD4680BD70010020002C014080B592B06D
:100ED00000AF07F1380300221A605A609A60DA60A6
:100EE00007F12C0300221A605A609A6007F1100380
:100EF00000221A605A609A60DA601A615A619A6137
:100F00003B4600221A605A609A60DA603B4B4FF011
:100F100080421A60394B07225A60384B00229A608F
:100F2000364B4FF6FF72DA60344B00221A61334BB6
:100F300000229A61314803F0C3FC0346002B01D024
:100F4000FFF7EAFC4FF48053BB6307F138031946FF
:100F50002A4804F0C1FC0346002B01D0FFF7DCFC5B
:100F6000264803F075FD0346002B01D0FFF7D4FCA3
:100F7000224803F077FF0346002B01D0FFF7CCFC9B
:100F80000023FB6200237B6307F12C0319461B48F7
:100F900005F056FB0346002B01D0FFF7BDFC602394
:100FA0003B6147F6BC737B610023BB6100233B625E
:100FB00007F1100300221946104804F079FB03469C
:100FC000002B01D0FFF7A8FC00233B6001237B60CE
:100FD0000023BB600023FB603B4604221946074800
:100FE00004F0C9FA0346002B01D0FFF795FC034833
:100FF00000F0D8FC00BF4837BD4680BDBC010020D2
:1010000080B592B000AF07F1380300221A605A6031
:101010009A60DA6007F12C0300221A605A609A6025
:1010200007F1100300221A605A609A60DA601A61B0
:101030005A619A613B4600221A605A609A60DA60EF
:101040003B4B3C4A1A603A4B07225A60384B00220D
:101050009A60374B4FF6FF72DA60354B00221A6107
:10106000334B00229A61324803F02AFC0346002BDE
:1010700001D0FFF751FC4FF48053BB6307F13803F5
:1010800019462B4804F028FC0346002B01D0FFF73B
:1010900043FC274803F0DCFC0346002B01D0FFF79C
:1010A0003BFC234803F0DEFE0346002B01D0FFF794
:1010B00033FC0023FB6200237B6307F12C031946FA
:1010C0001B4805F0BDFA0346002B01D0FFF724FCB6
:1010D00060233B6147F6BC737B610023BB61002347
:1010E0003B6207F1100300221946114804F0E0FAB0
:1010F0000346002B01D0FFF70FFC00233B600123C8
:101100007B600023BB600023FB603B460422194642
:10111000074804F030FA0346002B01D0FFF7FCFB30
:10112000034800F03FFC00BF4837BD4680BD00BF0C
:10113000080200200004004080B592B000AF07F123
:10114000380300221A605A609A60DA6007F12C03B3
:1011500000221A605A609A6007F1100300221A6098
:101160005A609A60DA601A615A619A613B460022BD
:101170001A605A609A60DA603B4B3C4A1A603A4BFC
:1011800007225A60384B00229A60374B4FF6FF72A5
:10119000DA60354B00221A61334B00229A613248E3
:1011A00003F08EFB0346002B01D0FFF7B5FB4FF495
:1011B0008053BB6307F1380319462B4804F08CFBBE
:1011C0000346002B01D0FFF7A7FB274803F040FCA4
:1011D0000346002B01D0FFF79FFB234803F042FE9C
:1011E0000346002B01D0FFF797FB0023FB6200238F
:1011F0007B6307F12C0319461B4805F021FA0346CF
:10120000002B01D0FFF788FB60233B6147F6BC73DE
:101210007B610023BB6100233B6207F110030022C6
:101220001946114804F044FA0346002B01D0FFF799
:1012300073FB00233B6001237B600023BB60002322
:10124000FB603B4604221946074804F094F9034624
:10125000002B01D0FFF760FB034800F0A3FB00BFA9
:101260004837BD4680BD00BF540200200008004042
:1012700080B59EB000AF07F1680300221A605A6083
:101280009A60DA6007F15C0300221A605A609A6083
:1012900007F1400300221A605A609A60DA601A610E
:1012A0005A619A6107F1300300221A605A609A600D
:1012B000DA603B1D2C22002118460AF0CFF9524B70
:1012C000524A1A60504B07225A604F4B00229A60D4
:1012D0004D4B4FF6FF72DA604B4B00221A614A4BBE
:1012E00000225A61484B00229A61474803F0E8FA0D
:1012F0000346002B01D0FFF70FFB4FF48053BB6672
:1013000007F168031946404804F0E6FA0346002B4B
:1013100001D0FFF701FB3C4803F09AFB0346002B8A
:1013200001D0FFF7F9FA384803F09CFD0346002B83
:1013300001D0FFF7F1FA0023FB6500233B66002391
:101340007B6607F15C0319462F4805F079F90346DF
:10135000002B01D0FFF7E0FA60233B6447F6BC7333
:101360007B640023BB640023FB6400233B650023F4
:101370007B650023BB6507F1400300221946224824
:1013800004F096F90346002B01D0FFF7C5FA0023BD
:101390003B6301237B630023BB630023FB6307F1F3
:1013A000300304221946184804F0E5F80346002BE0
:1013B00001D0FFF7B1FA00237B600023BB6000235C
:1013C000FB6000233B6100237B614FF40053BB6152
:1013D0000023FB6100233B624FF000737B6200231C
:1013E000BB620023FB623B1D1946074805F0B4F9B8
:1013F0000346002B01D0FFF78FFA034800F0D2FA22
:1014000000BF7837BD4680BDA002002000340140F7
:1014100080B59EB000AF07F1680300221A605A60E1
:101420009A60DA6007F15C0300221A605A609A60E1
:1014300007F1400300221A605A609A60DA601A616C
:101440005A619A6107F1300300221A605A609A606B
:10145000DA603B1D2C22002118460AF0FFF84E4BA3
:101460004E4A1A604C4B07225A604B4B00229A603E
:10147000494B4FF6FF72DA60474B00221A61464B28
:1014800000225A61444B00229A61434803F018FA43
:101490000346002B01D0FFF73FFA4FF48053BB66A1
:1014A00007F1680319463C4804F016FA0346002B7E
:1014B00001D0FFF731FA384803F0CAFA0346002B8F
:1014C00001D0FFF729FA344803F0CCFC0346002B87
:1014D00001D0FFF721FA0023FB6500237B6607F1AB
:1014E0005C0319462C4805F0ABF80346002B01D0ED
:1014F000FFF712FA60233B6447F6BC737B6400235A
:10150000BB640023FB6400233B6500237B65002351
:10151000BB6507F14003002219461F4804F0C8F8D4
:101520000346002B01D0FFF7F7F900233B630123AB
:101530007B630023BB630023FB6307F130030422BA
:101540001946154804F017F80346002B01D0FFF7A1
:10155000E3F900237B600023BB600023FB600023D2
:101560003B6100237B614FF40053BB610023FB61AF
:101570000023FB623B1D1946074805F0EDF80346C2
:10158000002B01D0FFF7C8F9034800F00BFA00BFA9
:101590007837BD4680BD00BFEC020020004001400E
:1015A00080B592B000AF07F12C0300221A605A6098
:1015B0009A60DA601A615A619A613B462C220021D6
:1015C00018460AF04BF8314B314A1A602F4B07226C
:1015D0005A602E4B00229A602C4B4FF6FF72DA6055
:1015E0002A4B00221A61294B00225A61274B002204
:1015F0009A61264803F064F90346002B01D0FFF7F7
:101600008BF9224803F024FA0346002B01D0FFF7A0
:1016100083F96023FB6247F6BC733B6300237B6363
:101620000023BB630023FB6300233B6400237B6434
:1016300007F12C0300221946144804F039F8034638
:10164000002B01D0FFF768F900233B6000237B608B
:101650000023BB600023FB6000233B614FF4005379
:101660007B610023BB610023BB623B4619460748F0
:1016700005F072F80346002B01D0FFF74DF903483F
:1016800000F090F900BF4837BD4680BD3803002008
:101690000044014080B594B000AF786007F13C038E
:1016A00000221A605A609A60DA601A617B681B68CF
:1016B000A74A934238D1A74B9B69A64A43F40063DB
:1016C0009361A44B9B6903F40063BB63BB6BA14BA9
:1016D0005B69A04A43F4002353619E4B5B6903F4AA
:1016E00000237B637B6B0223FB6302233B640023A9
:1016F0007B640023BB640223FB6407F13C031946AF
:10170000954801F061FA00220521182001F0BAF98C
:10171000182001F0D3F9002205211B2001F0B2F9B5
:101720001B2001F0CBF934E17B681B68B3F1804FDB
:1017300031D1884BDB69874A43F00103D361854B84
:10174000DB6903F001033B633B6B824B5B69814ABE
:1017500043F4003353617F4B5B6903F40033FB6256
:10176000FB6A0223FB6302233B6400237B640023A8
:10177000BB640123FB6407F13C0319464FF0904022
:1017800001F022FA002205211C2001F07BF91C2027
:1017900001F094F9FDE07B681B68704A934231D1F7
:1017A0006C4BDB696B4A43F00203D361694BDB6925
:1017B00003F00203BB62BB6A664B5B69654A43F494
:1017C00000335361634B5B6903F400337B627B6AD4
:1017D0001023FB6302233B6400237B640023BB6470
:1017E0000223FB6407F13C0319464FF0904001F0DF
:1017F000EBF9002205211D2001F044F91D2001F024
:101800005DF9C6E07B681B68554A934232D1514B63
:10181000DB69504A43F00403D3614E4BDB6903F0AC
:1018200004033B623B6A4B4B5B694A4A43F4003317
:101830005361484B5B6903F40033FB61FB694FF470
:101840008053FB6302233B6400237B640023BB645F
:101850000A23FB6407F13C0319464FF0904001F066
:10186000B3F9002205211E2001F00CF91E2001F021
:1018700025F98EE07B681B683A4A934230D1354B9C
:101880009B69344A43F400539361324B9B6903F4E0
:101890000053BB61BB692F4B5B692E4A43F40023A5
:1018A00053612C4B5B6903F400237B617B698023CC
:1018B000FB6302233B6400237B640023BB6404239B
:1018C000FB6407F13C031946234801F07DF900222F
:1018D00005212E2001F0D6F82E2001F0EFF858E077
:1018E0007B681B68204A934242D11A4B9B69194A74
:1018F00043F480339361174B9B6903F480333B615E
:101900003B69144B5B69134A43F480235361114BC9
:101910005B6903F48023FB60FB684FF40043FB63C7
:1019200002233B6400237B640023BB640123FB642C
:1019300007F13C0319460D4801F046F90022052144
:10194000182001F09FF8182001F0B8F821E000BF3E
:10195000002C014000100240000800480004004034
:1019600000080040003401400040014000040048ED
:101970007B681B68094A93420BD1094B9B69084A53
:1019800043F400339361064B9B6903F40033BB605F
:10199000BB6800BF5037BD4680BD00BF004401405A
:1019A0000010024080B58EB000AF786007F12403CC
:1019B00000221A605A609A60DA601A617B681B68BC
:1019C000794A93421CD1794B5B69784A43F40023EE
:1019D0005361764B5B6903F400233B623B6A01234E
:1019E0007B620223BB620223FB6203233B6302236D
:1019F0007B6307F1240319466D4801F0E5F8CFE059
:101A00007B681B68B3F1804F1DD1684B5B69674AE7
:101A100043F400335361654B5B6903F40033FB61AE
:101A2000FB6901237B620223BB620223FB62032367
:101A30003B6301237B6307F1240319464FF0904079
:101A400001F0C2F8ACE07B681B685A4A93421DD192
:101A5000564B5B69554A43F400335361534B5B6902
:101A600003F40033BB61BB6940237B620223BB628A
:101A70000223FB6203233B6302237B6307F12403FE
:101A800019464FF0904001F09FF889E07B681B6891
:101A9000494A93421ED1454B5B69444A43F40033A3
:101AA0005361424B5B6903F400337B617B694FF404
:101AB00000637B620223BB620223FB6203233B635E
:101AC0000A237B6307F1240319464FF0904001F08D
:101AD0007BF865E07B681B68384A93421CD1334B26
:101AE0005B69324A43F400235361304B5B6903F472
:101AF00000233B613B6940237B620223BB620223DC
:101B0000FB6203233B6304237B6307F12403194631
:101B1000274801F059F843E07B681B68284A934244
:101B20001DD1224B5B69214A43F4802353611F4B33
:101B30005B6903F48023FB60FB684FF480437B62A6
:101B40000223BB620223FB6203233B6301237B630B
:101B500007F1240319461B4801F036F820E07B68A2
:101B60001B68194A93421BD1104B5B690F4A43F41F
:101B7000802353610D4B5B6903F48023BB60BB681A
:101B800010237B620223BB620223FB6203233B63BD
:101B900001237B6307F1240319460A4801F014F876
:101BA00000BF3837BD4680BD002C01400010024008
:101BB00000080048000400400008004000340140D4
:101BC00000400140000400480044014080B500AFDF
:101BD000144B154A1A60134B4FF416525A60114BAE
:101BE00000229A600F4B0022DA600E4B00221A612D
:101BF0000C4B0C225A610B4B00229A61094B0022BC
:101C0000DA61084B00221A62064B00225A6205482C
:101C100004F046FE0346002B01D0FEF77DFE00BF18
:101C200080BD00BF84030020004C004080B500AFA1
:101C3000144B154A1A60134B4FF416425A60114B5D
:101C400000229A600F4B0022DA600E4B00221A61CC
:101C50000C4B0C225A610B4B00229A61094B00225B
:101C6000DA61084B00221A62064B00225A620548CC
:101C700004F016FE0346002B01D0FEF74DFE00BF18
:101C800080BD00BF0C0400200044004080B58CB033
:101C900000AF786007F11C0300221A605A609A6056
:101CA000DA601A617B681B68334A934231D1334B47
:101CB000DB69324A43F40023D361304BDB6903F420
:101CC0000023BB61BB692D4B5B692C4A43F40023A5
:101CD00053612A4B5B6903F400237B617B694FF4FA
:101CE0004063FB6102233B6200237B620323BB62F0
:101CF0000523FB6207F11C031946214800F064FF2D
:101D000000220521342000F0BDFE342000F0D6FE74
:101D10002DE07B681B681B4A934228D1174BDB6977
:101D2000164A43F40033D361144BDB6903F40033E8
:101D30003B613B69114B5B69104A43F400335361CB
:101D40000E4B5B6903F40033FB60FB680C23FB6103
:101D500002233B6200237B620023BB620723FB62FA
:101D600007F11C0319464FF0904000F02DFF00BF13
:101D70003037BD4680BD00BF004C0040001002401F
:101D80000008004800440040DFF834D0FEF7BCFFF4
:101D90000C480D490D4A002302E0D458C4500433C6
:101DA000C4188C42F9D30A4A0A4C002301E013609C
:101DB0000432A242FBD309F0FBFCFEF717FDFEE75D
:101DC0000000012000000020E8000020A4C6000858
:101DD000E80000203C280020FEE7000080B582B02B
:101DE00000AF7860274B1B781946274809F0F0FAB6
:101DF000244B1B78462B37D0224B1B78422B33D0F9
:101E0000204B1B78472B2FD01E4B1B78492B2BD0F8
:101E10001C4B1B78482B27D01A4B1B784A2B23D0FE
:101E2000184B1B78522B1FD0164B1B784C2B1BD0FA
:101E3000144B1B78532B17D0124B1B78232B13D02A
:101E4000104B1B78402B0FD00E4B1B78212B0BD047
:101E50000C4B1B78572B07D00A4B1B78552B03D004
:101E6000084B1B78772B03D1064B1A78074B1A7057
:101E700001220449786804F061FD00BF0837BD46BF
:101E800080BD00BF9404002090C4000864000020BE
:101E900080B582B000AF78607B68002B01D1012350
:101EA00009E07B6818687B681B799BB21A46044975
:101EB00004F044FD002318460837BD4680BD00BF2E
:101EC0009404002080B584B000AF78600023FB60EC
:101ED0007B68002B01D101237EE07B685B68002BCF
:101EE0000AD17B681B6893F83E30DBB2012B14BF2C
:101EF00001230023DBB245E07B685B68042B0AD139
:101F00007B681B6893F83F30DBB2012B14BF0123C1
:101F10000023DBB236E07B685B68082B0AD17B6864
:101F20001B6893F84030DBB2012B14BF0123002360
:101F3000DBB227E07B685B680C2B0AD17B681B68EF
:101F400093F84130DBB2012B14BF01230023DBB235
:101F500018E07B685B68102B0AD17B681B6893F8DC
:101F60004230DBB2012B14BF01230023DBB209E0B6
:101F70007B681B6893F84330DBB2012B14BF01234D
:101F80000023DBB2002B01D0012325E07B689B6896
:101F9000134AB2FBF3F3FB607B681B681B68FA68AB
:101FA000DA62FB6807EE903AB8EE677A7B68D3EDA9
:101FB000037A67EE277A7B681B681B68FCEEE77A7A
:101FC00017EE902A5A637B681A687B685B6819462B
:101FD000104602F09FFD002318461037BD4680BD15
:101FE00040420F0080B582B000AF78607B68002B64
:101FF00001D1012308E07B681A687B685B68194699
:10200000104602F093FE002318460837BD4680BDF7
:1020100080B582B000AF786039607B68002B02D059
:102020003B68002B01D101230EE07868FFF7DAFF4F
:102030003B681A687B689A603B685A687B68DA601C
:102040007868FFF73FFF002318460837BD4680BD7C
:1020500080B582B000AF786039607B68002B02D019
:102060003B68002B01D10123A3E03B681B78213B97
:10207000322B00F2998001A252F823F0A12100082E
:10208000A921000891210008A9210008A921000820
:10209000A9210008A9210008A9210008A9210008F8
:1020A000A9210008A9210008A9210008A9210008E8
:1020B000A9210008A9210008A9210008A9210008D8
:1020C000A9210008A9210008A9210008A9210008C8
:1020D000A9210008A9210008A9210008A9210008B8
:1020E000A9210008A9210008A9210008A9210008A8
:1020F000A9210008A921000899210008A9210008A8
:1021000051210008A9210008A9210008A9210008DF
:1021100049210008592100086921000861210008AF
:1021200071210008A921000881210008A9210008C7
:10213000A9210008A9210008A9210008A921000857
:102140007921000889210008786800F03DF82FE027
:10215000786800F069F82BE0786800F0C7F827E0AD
:10216000786800F091F823E0786800F023F91FE028
:10217000786800F0EDF81BE0786800F07FF917E070
:10218000786800F0ABF913E0786800F045F90FE0EB
:102190000A497868FFF73CFF09497868FFF738FF7C
:1021A00008497868FFF734FF786800F035F900BF18
:1021B000002318460837BD4680BD00BF68000020D8
:1021C000700000207800002080B582B000AF7860F9
:1021D0007B68002B01D101231DE0114809F05EF955
:1021E00000224FF480710F4800F078FE00224FF477
:1021F00000710C4800F072FE01224FF400714FF0A4
:10220000904000F06BFE00224FF480614FF0904050
:1022100000F064FE002318460837BD4680BD00BFAD
:10222000B0C400080008004880B582B000AF7860F4
:102230007B68002B01D101231DE0114809F02EF924
:1022400000224FF480710F4800F048FE00224FF446
:1022500000710C4800F042FE00224FF400714FF074
:10226000904000F03BFE01224FF480614FF090401F
:1022700000F034FE002318460837BD4680BD00BF7D
:10228000C4C400080008004880B582B000AF786080
:102290007B68002B01D1012320E0124809F0FEF8F1
:1022A00001224FF48071104800F018FE00224FF414
:1022B00000710D4800F012FE642000F007FB0122BF
:1022C0004FF400714FF0904000F008FE00224FF4F0
:1022D00080614FF0904000F001FE0023184608375F
:1022E000BD4680BDD0C400080008004880B582B05B
:1022F00000AF78607B68002B01D1012320E01248F9
:1023000009F0CCF800224FF48071104800F0E6FD8F
:1023100001224FF400710D4800F0E0FD642000F050
:10232000D5FA01224FF400714FF0904000F0D6FD35
:1023300000224FF480614FF0904000F0CFFD002369
:1023400018460837BD4680BDE4C4000800080048B0
:1023500080B582B000AF78607B68002B01D101238B
:1023600020E0124809F09AF801224FF480711048D9
:1023700000F0B4FD00224FF400710D4800F0AEFDF6
:10238000642000F0A3FA00224FF400714FF0904057
:1023900000F0A4FD01224FF480614FF0904000F066
:1023A0009DFD002318460837BD4680BDF4C40008D3
:1023B0000008004880B582B000AF78607B68002BD1
:1023C00001D1012320E0124809F068F800224FF4FF
:1023D0008071104800F082FD01224FF400710D4819
:1023E00000F07CFD642000F071FA00224FF40071CF
:1023F0004FF0904000F072FD01224FF480614FF0E9
:10240000904000F06BFD002318460837BD4680BDA4
:1024100008C500080008004880B582B000AF7860A9
:102420007B68002B01D1012320E0124809F036F827
:1024300000224FF48071104800F050FD00224FF44C
:1024400000710D4800F04AFD322000F03FFA0122F1
:102450004FF400714FF0904000F040FD01224FF426
:1024600080614FF0904000F039FD00231846083796
:10247000BD4680BD18C500080008004880B582B080
:1024800000AF78607B68002B01D101231DE011486B
:1024900009F004F801224FF480710F4800F01EFD8E
:1024A00000224FF400710C4800F018FD00224FF498
:1024B00000714FF0904000F011FD00224FF4806158
:1024C0004FF0904000F00AFD002318460837BD4643
:1024D00080BD00BF20C500080008004880B582B05C
:1024E00000AF78607B68002B01D101231DE011480B
:1024F00008F0D4FF00224FF480710F4800F0EEFC8A
:1025000001224FF400710C4800F0E8FC00224FF467
:1025100000714FF0904000F0E1FC00224FF4806128
:102520004FF0904000F0DAFC002318460837BD4613
:1025300080BD00BF2CC500080008004890B585B0DC
:1025400002AF78607B681B7F022B45D1244B1B7840
:10255000DBB21A46234B9B5C002B14D1204B1B781B
:10256000DBB29B00204A13441D4A1278D2B21146B6
:102570001C4A0A441946786800F0E4F8002178689B
:1025800002F0D4FB28E0164B1B78DBB21A46154B41
:102590009B5C012B20D1124B1B78DBB29B00124AB3
:1025A00099180F4B1B78DBB29B00104A1A440C4B56
:1025B0001B78DBB29B000E481844094B1B78DBB23A
:1025C0001C46084B234400930346786800F0E4F867
:1025D0000421786802F0F2FD00BF0C37BD4690BDC3
:1025E000B0040020B4040020BC040020D404002067
:1025F000EC04002080B582B000AF78607B68002BCF
:1026000001D101230FE09FED0A0A42F210717868B0
:1026100000F010F87B681A687B689B6819461046C2
:1026200002F082FC002318460837BD4680BD00BF7B
:102630006F12833A80B584B000AFF860B96087ED5F
:10264000010AFB68002B01D1012377E0FB685B687E
:10265000002B0AD1FB681B6893F83E30DBB2012BDC
:1026600014BF01230023DBB245E0FB685B68042B49
:102670000AD1FB681B6893F83F30DBB2012B14BF13
:1026800001230023DBB236E0FB685B68082B0AD12C
:10269000FB681B6893F84030DBB2012B14BF0123A9
:1026A0000023DBB227E0FB685B680C2B0AD1FB68D8
:1026B0001B6893F84130DBB2012B14BF01230023C8
:1026C000DBB218E0FB685B68102B0AD1FB681B6863
:1026D00093F84230DBB2012B14BF01230023DBB29D
:1026E00009E0FB681B6893F84330DBB2012B14BF91
:1026F00001230023DBB2002B01D001231EE0FB6885
:102700001B681B68BA68DA62BB6807EE903AB8EEDD
:10271000677AD7ED017A67EE277AFB681B681B683A
:10272000FCEEE77A17EE902A5A63FB681A68FB689A
:102730005B681946104602F0EDF900231846103781
:10274000BD4680BD80B584B000AFF860B9607A60E6
:102750000421F86803F08AF90246BB681A60FB6836
:102760001B684FF6FF72DA627B6801221A70FB6801
:102770001B681A6AFB681B6822F0A0021A62FB68D9
:102780001B681A6AFB681B6842F020021A6200BFCD
:102790001037BD4680BD000080B584B000AFF86042
:1027A000B9607A603B600421F86803F05FF9024683
:1027B0007B681A60FB681B6800225A627B681A6893
:1027C000BB681B689A4207D37B681A68BB681B68A2
:1027D000D21A3B681A6011E07B681A68BB681B68F4
:1027E000D31A03F57F43FF333A681360184B1B7805
:1027F000DBB201331946174808F0EAFD3B681B6855
:1028000007EE903AB8EE677ADFED136AC7EE267AE4
:102810000F4B1B78DBB21A46FCEEE77A17EE901AE4
:102820000E4B43F82210BB6900221A70FB681B682C
:102830001A6AFB681B6822F0A0021A62FB681A6819
:10284000FB681B68126A1A6200BF1037BD4680BD64
:10285000B004002038C50008000068429804002039
:1028600080B500AF084B1B68074A43F010031360A4
:10287000032000F0FCF80F20FEF77CF8FEF752F87A
:102880000023184680BD00BF0020024080B400AF86
:10289000064B1B781A46064B1B681344044A136008
:1028A00000BFBD465DF8047B704700BF8400002078
:1028B0000405002080B400AF034B1B681846BD46DA
:1028C0005DF8047B704700BF0405002080B584B02C
:1028D00000AF7860FFF7EEFFB8607B68FB60FB68D5
:1028E000B3F1FF3F05D00A4B1B781A46FB6813442F
:1028F000FB6000BFFFF7DEFF0246BB68D31AFA6831
:102900009A42F7D800BF00BF1037BD4680BD00BF58
:102910008400002080B485B000AF78607B6803F04D
:102920000703FB600C4BDB68BB60BA684FF6FF0324
:102930001340BB60FB681A02BB68134343F0BF63DC
:1029400043F40033BB60044ABB68D36000BF143754
:10295000BD465DF8047B704700ED00E080B400AF39
:10296000044BDB681B0A03F007031846BD465DF8FD
:10297000047B704700ED00E080B483B000AF0346F5
:10298000FB7197F90730002B0BDBFB7903F01F027B
:10299000074997F907305B09012000FA02F241F874
:1029A000232000BF0C37BD465DF8047B704700BF95
:1029B00000E100E080B483B000AF03463960FB71F2
:1029C00097F90730002B0ADB3B68DAB20C4997F91C
:1029D00007301201D2B20B4483F800230AE03B68AF
:1029E000DAB20849FB7903F00F03043B1201D2B2BB
:1029F0000B441A7600BF0C37BD465DF8047B704768
:102A000000E100E000ED00E080B489B000AFF860C4
:102A1000B9607A60FB6803F00703FB61FB69C3F1EF
:102A20000703042B28BF0423BB61FB690433062B77
:102A300002D9FB69033B00E000237B614FF0FF32CA
:102A4000BB6902FA03F3DA43BB681A407B699A4018
:102A50004FF0FF317B6901FA03F3D9437B680B40E8
:102A6000134318462437BD465DF8047B704780B594
:102A700082B000AF78607868FFF74CFF00BF08377E
:102A8000BD4680BD80B586B000AF0346B9607A60B0
:102A9000FB7300237B61FFF761FF78617A68B96897
:102AA0007869FFF7B1FF024697F90F3011461846D3
:102AB000FFF780FF00BF1837BD4680BD80B582B0EC
:102AC00000AF0346FB7197F907301846FFF754FF34
:102AD00000BF0837BD4680BD80B483B000AF7860CA
:102AE0007B6893F82130022B08D07B6804229A631C
:102AF0007B68002283F82020012320E07B681B688C
:102B00001A687B681B6822F00E021A607B681B68DB
:102B10001A687B681B6822F001021A607B681A6CD5
:102B20007B68DB6B012101FA02F25A607B680122AB
:102B300083F821207B68002283F820200023184698
:102B40000C37BD465DF8047B704780B584B000AF9C
:102B500078600023FB737B6893F82130022B05D04B
:102B60007B6804229A630123FB7327E07B681B6860
:102B70001A687B681B6822F00E021A607B681B686B
:102B80001A687B681B6822F001021A607B681A6C65
:102B90007B68DB6B012101FA02F25A607B6801223B
:102BA00083F821207B68002283F820207B685B6B00
:102BB000002B03D07B685B6B78689847FB7B1846DB
:102BC0001037BD4680BD000080B487B000AF78608C
:102BD000396000237B6160E13B681A6801217B69F1
:102BE00001FA03F31340FB60FB68002B00F05281F5
:102BF0003B685B6803F00303012B05D03B685B680F
:102C000003F00303022B30D17B689B683B617B6937
:102C10005B00032202FA03F3DB433A6913403B6192
:102C20003B68DA687B695B0002FA03F33A69134395
:102C30003B617B683A699A607B685B683B61012213
:102C40007B6902FA03F3DB433A6913403B613B685B
:102C50005B681B0903F001027B6902FA03F33A691E
:102C600013433B617B683A695A603B685B6803F0D9
:102C70000303032B17D07B68DB683B617B695B0038
:102C8000032202FA03F3DB433A6913403B613B68DA
:102C90009A687B695B0002FA03F33A6913433B616C
:102CA0007B683A69DA603B685B6803F00303022BD8
:102CB00023D17B69DA087B68083253F822303B6104
:102CC0007B6903F007039B000F2202FA03F3DB4347
:102CD0003A6913403B613B681A697B6903F007035B
:102CE0009B0002FA03F33A6913433B617B69DA08FC
:102CF0007B680832396943F822107B681B683B61A6
:102D00007B695B00032202FA03F3DB433A69134059
:102D10003B613B685B6803F003027B695B0002FA7E
:102D200003F33A6913433B617B683A691A603B6875
:102D30005B6803F44033002B00F0AC805E4B9B6972
:102D40005D4A43F0010393615B4B9B6903F0010310
:102D5000BB60BB68594A7B699B08023352F8233039
:102D60003B617B6903F003039B000F2202FA03F32C
:102D7000DB433A6913403B617B68B3F1904F25D048
:102D80007B684F4A93421FD07B684E4A934219D0CA
:102D90007B684D4A934213D07B684C4A93420DD0D6
:102DA0007B684B4A934207D07B684A4A934201D1E1
:102DB00006230CE007230AE0052308E0042306E0CD
:102DC000032304E0022302E0012300E000237A69E8
:102DD00002F00302920093403A6913433B61374982
:102DE0007B699B0802333A6941F823203A4B9B6880
:102DF0003B61FB68DB433A6913403B613B685B68BE
:102E000003F48013002B03D03A69FB6813433B6142
:102E1000314A3B699360304BDB683B61FB68DB43C5
:102E20003A6913403B613B685B6803F40013002B75
:102E300003D03A69FB6813433B61274A3B69D3607F
:102E4000254B5B683B61FB68DB433A6913403B61A0
:102E50003B685B6803F40033002B03D03A69FB68DE
:102E600013433B611C4A3B6953601B4B1B683B612E
:102E7000FB68DB433A6913403B613B685B6803F4E2
:102E80008033002B03D03A69FB6813433B61124A3D
:102E90003B6913607B6901337B613B681A687B691E
:102EA00022FA03F3002B7FF497AE00BF00BF1C375C
:102EB000BD465DF8047B70470010024000000140F1
:102EC0000004004800080048000C004800100048BA
:102ED00000140048001800480004014080B483B08A
:102EE00000AF78600B467B8013467B707B78002BAD
:102EF00003D07A887B689A6102E07A887B689A625C
:102F000000BF0C37BD465DF8047B704780B5ADF55A
:102F1000027D00AF07F50273A3F50173186007F592
:102F20000273A3F501731B68002B02D1012301F08A
:102F30003AB807F50273A3F501731B681B6803F029
:102F40000103002B00F06F81B54B5B6803F00C03AD
:102F5000042B0CD0B24B5B6803F00C03082B5CD144
:102F6000AF4B5B6803F4C033B3F5803F55D14FF4EA
:102F70000033C7F8F431D7F8F43193FAA3F3C7F864
:102F8000F031D7F8F031B3FA83F3DBB25B09DBB28F
:102F900043F00103DBB2012B02D1A14B1B6815E00A
:102FA0004FF40033C7F8EC31D7F8EC3193FAA3F3C0
:102FB000C7F8E8314FF40033C7F8E431D7F8E4310B
:102FC00093FAA3F3C7F8E031954B5B6A4FF40032F4
:102FD000C7F8DC21D7F8DC2192FAA2F2C7F8D82191
:102FE000D7F8D821B2FA82F2D2B242F02002D2B29D
:102FF00002F01F02012101FA02F21340002B00F03F
:10300000118107F50273A3F501731B685B68002B40
:1030100040F00881012300F0C6BF07F50273A3F555
:1030200001731B685B68B3F5803F06D17C4B1B685E
:103030007B4A43F48033136036E007F50273A3F54F
:1030400001731B685B68002B0CD1754B1B68744ABD
:1030500023F480331360724B1B68714A23F480237E
:10306000136021E007F50273A3F501731B685B6829
:10307000B3F5A02F0CD16A4B1B68694A43F4802337
:103080001360674B1B68664A43F4803313600BE0A0
:10309000634B1B68624A23F480331360604B1B68E8
:1030A0005F4A23F48023136007F50273A3F50173CD
:1030B0001B685B68002B59D0FFF7FCFBC7F80002C8
:1030C0000AE0FFF7F7FB0246D7F80032D31A642B69
:1030D00002D9032300F067BF4FF40033C7F8D4319F
:1030E000D7F8D43193FAA3F3C7F8D031D7F8D03159
:1030F000B3FA83F3DBB25B09DBB243F00103DBB26B
:10310000012B02D1464B1B6815E04FF40033C7F882
:10311000CC31D7F8CC3193FAA3F3C7F8C8314FF4C8
:103120000033C7F8C431D7F8C43193FAA3F3C7F812
:10313000C0313B4B5B6A4FF40032C7F8BC21D7F873
:10314000BC2192FAA2F2C7F8B821D7F8B821B2FA96
:1031500082F2D2B242F02002D2B202F01F0201216A
:1031600001FA02F21340002BABD05CE0FFF7A2FBA8
:10317000C7F800020AE0FFF79DFB0246D7F80032CD
:10318000D31A642B02D9032300F00DBF4FF4003390
:10319000C7F8B431D7F8B43193FAA3F3C7F8B03114
:1031A000D7F8B031B3FA83F3DBB25B09DBB243F09B
:1031B0000103DBB2012B02D1194B1B6815E04FF460
:1031C0000033C7F8AC31D7F8AC3193FAA3F3C7F8A2
:1031D000A8314FF40033C7F8A431D7F8A43193FADB
:1031E000A3F3C7F8A0310E4B5B6A4FF40032C7F867
:1031F0009C21D7F89C2192FAA2F2C7F89821D7F81F
:103200009821B2FA82F2D2B242F02002D2B202F097
:103210001F02012101FA02F21340002BABD102E0A0
:103220000010024000BF07F50273A3F501731B688D
:103230001B6803F00203002B00F07F81A74B5B6843
:1032400003F00C03002B0CD0A44B5B6803F00C03C1
:10325000082B73D1A14B5B6803F4C033B3F5004F67
:103260006CD10223C7F89431D7F8943193FAA3F3C1
:10327000C7F89031D7F89031B3FA83F3DBB25B092A
:10328000DBB243F00103DBB2012B02D1934B1B688D
:1032900013E00223C7F88C31D7F88C3193FAA3F3EB
:1032A000C7F888310223C7F88431D7F8843193FAFC
:1032B000A3F3C7F88031894B5B6A0222C7F87C21EF
:1032C000D7F87C2192FAA2F2C7F87821D7F87821B2
:1032D000B2FA82F2D2B242F02002D2B202F01F025F
:1032E000012101FA02F21340002B0AD007F5027304
:1032F000A3F501731B68DB68012B02D0012300F0EA
:1033000052BE764B1B6823F0F80207F50273A3F553
:1033100001731B681B69F821C7F87411D7F8741181
:1033200091FAA1F1C7F87011D7F87011B1FA81F1D3
:10333000C9B28B40694913430B60FEE007F5027385
:10334000A3F501731B68DB68002B00F08880012364
:10335000C7F86C31D7F86C3193FAA3F3C7F868312A
:10336000D7F86831B3FA83F3DBB203F1845303F582
:1033700084139B001A4601231360FFF79BFAC7F8DA
:1033800000020AE0FFF796FA0246D7F80032D31A95
:10339000022B02D9032300F006BE0223C7F86431D2
:1033A000D7F8643193FAA3F3C7F86031D7F86031E6
:1033B000B3FA83F3DBB25B09DBB243F00103DBB2A8
:1033C000012B02D1454B1B6813E00223C7F85C3187
:1033D000D7F85C3193FAA3F3C7F858310223C7F842
:1033E0005431D7F8543193FAA3F3C7F850313B4B1B
:1033F0005B6A0222C7F84C21D7F84C2192FAA2F25C
:10340000C7F84821D7F84821B2FA82F2D2B242F086
:103410002002D2B202F01F02012101FA02F213408F
:10342000002BAFD02D4B1B6823F0F80207F5027379
:10343000A3F501731B681B69F821C7F84411D7F87D
:10344000441191FAA1F1C7F84011D7F84011B1FA2F
:1034500081F1C9B28B40214913430B606DE0012318
:10346000C7F83C31D7F83C3193FAA3F3C7F83831A9
:10347000D7F83831B3FA83F3DBB203F1845303F5A1
:1034800084139B001A4600231360FFF713FAC7F852
:1034900000020AE0FFF70EFA0246D7F80032D31A0C
:1034A000022B02D9032300F07EBD0223C7F834317A
:1034B000D7F8343193FAA3F3C7F83031D7F8303165
:1034C000B3FA83F3DBB25B09DBB243F00103DBB297
:1034D000012B05D1014B1B6816E000BF0010024014
:1034E0000223C7F82C31D7F82C3193FAA3F3C7F88D
:1034F00028310223C7F82431D7F8243193FAA3F3F3
:10350000C7F82031BF4B5B6A0222C7F81C21D7F8ED
:103510001C2192FAA2F2C7F81821D7F81821B2FAA2
:1035200082F2D2B242F02002D2B202F01F02012196
:1035300001FA02F21340002BACD107F50273A3F598
:1035400001731B681B6803F00803002B00F0138154
:1035500007F50273A3F501731B685B69002B7CD030
:103560000123C7F81431D7F8143193FAA3F3C7F83D
:103570001031D7F81031B3FA83F3DBB21A46A24BFD
:1035800013449B001A4601231360FFF793F9C7F811
:1035900000020AE0FFF78EF90246D7F80032D31A8C
:1035A000022B02D9032300F0FEBC0223C7F80C3122
:1035B000D7F80C3193FAA3F207F50273A3F58073E1
:1035C0001A6007F50273A3F5827302221A6007F5E9
:1035D0000273A3F582731B6893FAA3F207F50273D3
:1035E000A3F584731A6007F50273A3F586730222AC
:1035F0001A6007F50273A3F586731B6893FAA3F2AA
:1036000007F50273A3F588731A607E4B5A6A07F5B3
:103610000273A3F58A730221196007F50273A3F5FB
:103620008A731B6893FAA3F107F50273A3F58C73F1
:10363000196007F50273A3F58C731B68B3FA83F363
:10364000DBB243F06003DBB203F01F03012101FA98
:1036500003F31340002B9DD08DE007F50273A3F513
:103660008E7301221A6007F50273A3F58E731B682F
:1036700093FAA3F207F50273A3F590731A6007F5A6
:103680000273A3F590731B68B3FA83F3DBB21A4697
:103690005D4B13449B001A4600231360FFF70AF9A1
:1036A000C7F800020AE0FFF705F90246D7F8003232
:1036B000D31A022B02D9032300F075BC07F502735D
:1036C000A3F5927302221A6007F50273A3F59273B1
:1036D0001B6893FAA3F207F50273A3F594731A60BB
:1036E00007F50273A3F5967302221A6007F50273B9
:1036F000A3F596731B6893FAA3F207F50273A3F57B
:1037000098731A6007F50273A3F59A7302221A6080
:1037100007F50273A3F59A731B6893FAA3F207F5F2
:103720000273A3F59C731A60364B5A6A07F502734D
:10373000A3F59E730221196007F50273A3F59E732A
:103740001B6893FAA3F107F50273A3F5A073196040
:1037500007F50273A3F5A0731B68B3FA83F3DBB21A
:1037600043F06003DBB203F01F03012101FA03F30E
:103770001340002B97D107F50273A3F501731B6863
:103780001B6803F00403002B00F0A581002387F8D9
:1037900007321C4BDB6903F08053002B16D1194B09
:1037A000DB69184A43F08053D361164BDB6903F0A1
:1037B000805207F50273A3F5FE731A6007F50273D2
:1037C000A3F5FE731B68012387F807320F4B1B68B4
:1037D00003F48073002B21D10C4B1B680B4A43F47C
:1037E00080731360FFF766F8C7F8000210E0FFF778
:1037F00061F80246D7F80032D31A642B08D90323A4
:10380000D1E300BF00100240208190100070004002
:103810008D4B1B6803F48073002BE8D007F502730F
:10382000A3F501731B689B68012B06D1874B1B6AAC
:10383000864A43F00103136235E007F50273A3F5EE
:1038400001731B689B68002B0CD1804B1B6A7F4A5D
:1038500023F0010313627D4B1B6A7C4A23F00403AF
:10386000136220E007F50273A3F501731B689B68E0
:10387000052B0CD1754B1B6A744A43F00403136289
:10388000724B1B6A714A43F0010313620BE06F4BEA
:103890001B6A6E4A23F0010313626C4B1B6A6B4A6E
:1038A00023F00403136207F50273A3F501731B6889
:1038B0009B68002B00F08180FEF7FCFFC7F8000238
:1038C0000BE0FEF7F7FF0246D7F80032D31A41F2B9
:1038D0008832934201D9032365E307F50273A3F508
:1038E000A27302221A6007F50273A3F5A2731B6884
:1038F00093FAA3F207F50273A3F5A4731A6007F510
:103900000273A3F5A67302221A6007F50273A3F5EA
:10391000A6731B6893FAA3F207F50273A3F5A873C5
:103920001A6007F50273A3F5A8731B68B3FA83F353
:10393000DBB25B09DBB243F00203DBB2022B02D144
:10394000424B1B6A13E007F50273A3F5AA73022228
:103950001A6007F50273A3F5AA731B6893FAA3F222
:1039600007F50273A3F5AC731A60384B5B6A07F571
:103970000272A2F5AE720221116007F50272A2F581
:10398000AE72126892FAA2F107F50272A2F5B07255
:10399000116007F50272A2F5B0721268B2FA82F2F3
:1039A000D2B242F04002D2B202F01F02012101FA6B
:1039B00002F21340002B84D083E0FEF77BFFC7F8B0
:1039C00000020BE0FEF776FF0246D7F80032D31A6A
:1039D00041F28832934201D90323E4E207F50273EE
:1039E000A3F5B27302221A6007F50273A3F5B2734E
:1039F0001B6893FAA3F207F50273A3F5B4731A6078
:103A000007F50273A3F5B67302221A6007F5027375
:103A1000A3F5B6731B6893FAA3F207F50273A3F537
:103A2000B8731A6007F50273A3F5B8731B68B3FA8D
:103A300083F3DBB25B09DBB243F00203DBB2022BA0
:103A400006D1024B1B6A17E00070004000100240D4
:103A500007F50273A3F5BA7302221A6007F5027321
:103A6000A3F5BA731B6893FAA3F207F50273A3F5E3
:103A7000BC731A60B34B5B6A07F50272A2F5BE72A3
:103A80000221116007F50272A2F5BE72126892FA65
:103A9000A2F107F50272A2F5C072116007F5027279
:103AA000A2F5C0721268B2FA82F2D2B242F04002BB
:103AB000D2B202F01F02012101FA02F21340002BE0
:103AC00080D197F80732012B05D19E4BDB699D4AC7
:103AD00023F08053D36107F50273A3F501731B68CC
:103AE0009B69002B00F05E82964B5B6803F00C0331
:103AF000082B00F01F8207F50273A3F501731B6802
:103B00009B69022B40F0708107F50273A3F5C27325
:103B10004FF080721A6007F50273A3F5C2731B6839
:103B200093FAA3F207F50273A3F5C4731A6007F5BD
:103B30000273A3F5C4731B68B3FA83F3DBB203F11A
:103B4000845303F584139B001A4600231360FEF789
:103B5000B1FEC7F8000209E0FEF7ACFE0246D7F856
:103B60000032D31A022B01D903231CE207F502739A
:103B7000A3F5C6734FF000721A6007F50273A3F540
:103B8000C6731B6893FAA3F207F50273A3F5C87313
:103B90001A6007F50273A3F5C8731B68B3FA83F3C1
:103BA000DBB25B09DBB243F00103DBB2012B02D1D4
:103BB000644B1B6827E007F50273A3F5CA734FF047
:103BC00000721A6007F50273A3F5CA731B6893FAB3
:103BD000A3F207F50273A3F5CC731A6007F502731D
:103BE000A3F5CE734FF000721A6007F50273A3F5C8
:103BF000CE731B6893FAA3F207F50273A3F5D07393
:103C00001A60504B5B6A07F50272A2F5D2724FF050
:103C10000071116007F50272A2F5D272126892FA71
:103C2000A2F107F50272A2F5D472116007F50272D3
:103C3000A2F5D4721268B2FA82F2D2B242F0200235
:103C4000D2B202F01F02012101FA02F21340002B4E
:103C500082D13C4BDB6A23F00F0207F50273A3F518
:103C600001731B685B6A37491343CB62354B5B6852
:103C700023F4761207F50273A3F501731B68196A22
:103C800007F50273A3F501731B68DB690B432D492C
:103C900013434B6007F50273A3F5D6734FF08072A0
:103CA0001A6007F50273A3F5D6731B6893FAA3F2A3
:103CB00007F50273A3F5D8731A6007F50273A3F52D
:103CC000D8731B68B3FA83F3DBB203F1845303F5B3
:103CD00084139B001A4601231360FEF7EBFDC7F81F
:103CE000000209E0FEF7E6FD0246D7F80032D31ADB
:103CF000022B01D9032356E107F50273A3F5DA730A
:103D00004FF000721A6007F50273A3F5DA731B68AF
:103D100093FAA3F207F50273A3F5DC731A6007F5B3
:103D20000273A3F5DC731B68B3FA83F3DBB25B09A0
:103D3000DBB243F00103DBB2012B05D1014B1B6861
:103D40002AE000BF0010024007F50273A3F5DE73FE
:103D50004FF000721A6007F50273A3F5DE731B685B
:103D600093FAA3F207F50273A3F5E0731A6007F55F
:103D70000273A3F5E2734FF000721A6007F5027345
:103D8000A3F5E2731B6893FAA3F207F50273A3F598
:103D9000E4731A60864B5B6A07F50272A2F5E6725D
:103DA0004FF00071116007F50272A2F5E672126819
:103DB00092FAA2F107F50272A2F5E872116007F516
:103DC0000272A2F5E8721268B2FA82F2D2B242F03E
:103DD0002002D2B202F01F02012101FA02F21340C6
:103DE000002B3FF47FAFDDE007F50273A3F5EA7324
:103DF0004FF080721A6007F50273A3F5EA731B682F
:103E000093FAA3F207F50273A3F5EC731A6007F5B2
:103E10000273A3F5EC731B68B3FA83F3DBB203F10F
:103E2000845303F584139B001A4600231360FEF7A6
:103E300041FDC7F8000209E0FEF73CFD0246D7F855
:103E40000032D31A022B01D90323ACE007F5027329
:103E5000A3F5EE734FF000721A6007F50273A3F535
:103E6000EE731B6893FAA3F207F50273A3F5F073E0
:103E70001A6007F50273A3F5F0731B68B3FA83F3B6
:103E8000DBB25B09DBB243F00103DBB2012B02D1F1
:103E9000474B1B6827E007F50273A3F5F2734FF059
:103EA00000721A6007F50273A3F5F2731B6893FAA8
:103EB000A3F207F50273A3F5F4731A6007F5027312
:103EC000A3F5F6734FF000721A6007F50273A3F5BD
:103ED000F6731B6893FAA3F207F50273A3F5F87360
:103EE0001A60334B5B6A07F50272A2F5FA724FF063
:103EF0000071116007F50272A2F5FA72126892FA67
:103F0000A2F107F50272A2F5FC72116007F50272C8
:103F1000A2F5FC721268B2FA82F2D2B242F020022A
:103F2000D2B202F01F02012101FA02F21340002B6B
:103F300082D137E007F50273A3F501731B689B6913
:103F4000012B01D101232EE0194B5B68C7F8FC312E
:103F5000174BDB6AC7F8F831D7F8FC3103F4C032ED
:103F600007F50273A3F501731B68DB699A4217D149
:103F7000D7F8FC3103F4701207F50273A3F501734F
:103F80001B681B6A9A420BD1D7F8F83103F00F0275
:103F900007F50273A3F501731B685B6A9A4201D0AF
:103FA000012300E00023184607F50277BD4680BDD7
:103FB0000010024080B59EB000AF786039600023E9
:103FC0007B677B68002B01D1012362E1904B1B686A
:103FD00003F007033A689A4210D98D4B1B6823F00F
:103FE00007028B493B6813430B60894B1B6803F046
:103FF00007033A689A4201D001234AE17B681B68B3
:1040000003F00203002B08D0824B5B6823F0F00220
:104010007B689B687F4913434B607B681B6803F098
:104020000103002B00F0DC807B685B68012B3CD136
:104030004FF400333B673B6F93FAA3F3FB66FB6ED1
:10404000B3FA83F3DBB25B09DBB243F00103DBB20B
:10405000012B02D16F4B1B680FE04FF40033BB669E
:10406000BB6E93FAA3F37B664FF400333B663B6E63
:1040700093FAA3F3FB65674B5B6A4FF40032BA65B2
:10408000BA6D92FAA2F27A657A6DB2FA82F2D2B27F
:1040900042F02002D2B202F01F02012101FA02F224
:1040A0001340002B7BD10123F3E07B685B68022B7C
:1040B0003CD14FF000733B653B6D93FAA3F3FB6477
:1040C000FB6CB3FA83F3DBB25B09DBB243F00103B1
:1040D000DBB2012B02D14F4B1B680FE04FF0007396
:1040E000BB64BB6C93FAA3F37B644FF000733B6437
:1040F0003B6C93FAA3F3FB63464B5B6A4FF0007291
:10410000BA63BA6B92FAA2F27A637A6BB2FA82F26B
:10411000D2B242F02002D2B202F01F02012101FA13
:1041200002F21340002B3AD10123B2E002233B6399
:104130003B6B93FAA3F3FB62FB6AB3FA83F3DBB244
:104140005B09DBB243F00103DBB2012B02D1314B3F
:104150001B680DE00223BB62BB6A93FAA3F37B6288
:1041600002233B623B6A93FAA3F3FB61294B5B6A30
:104170000222BA61BA6992FAA2F27A617A69B2FA53
:1041800082F2D2B242F02002D2B202F01F0201212A
:1041900001FA02F21340002B01D1012379E01D4BFB
:1041A0005B6823F003027B685B681A4913434B602A
:1041B000FEF780FB78670AE0FEF77CFB02467B6F28
:1041C000D31A41F28832934201D9032361E0114BA3
:1041D0005B6803F00C027B685B689B009A42EBD142
:1041E0000B4B1B6803F007033A689A4214D2084B42
:1041F0001B6823F0070206493B6813430B60044B1E
:104200001B6803F007033A689A4205D0012340E097
:1042100000200240001002407B681B6803F004038A
:10422000002B08D01D4B5B6823F4E0627B68DB68E1
:104230001A4913434B607B681B6803F00803002B8B
:1042400009D0164B5B6823F460527B681B69DB0066
:10425000124913434B6000F029F801460F4B5B688D
:1042600003F0F003F0223A613A6992FAA2F2FA609E
:10427000FA68B2FA82F2D2B2D340094AD35C21FA88
:1042800003F3084A1360084B1B681846FCF772FBDF
:10429000002318467837BD4680BD00BF001002409D
:1042A00030C60008600000208000002080B48BB081
:1042B00000AF0023FB610023BB6100237B6200236E
:1042C0007B6100233B622A4B5B68FB61FB6903F067
:1042D0000C03042B02D0082B03D03FE0254B3B629C
:1042E0003FE0FB6903F470134FF47012BA60BA68D0
:1042F00092FAA2F27A607A68B2FA82F2D2B2D3402B
:104300001D4AD35C7B611A4BDB6A03F00F030F225B
:104310003A613A6992FAA2F2FA60FA68B2FA82F263
:10432000D2B2D340154AD35CBB61FB6903F480333E
:10433000002B08D00F4ABB69B2FBF3F27B6902FB8A
:1043400003F37B6207E00B4ABB69B2FBF3F27B69C4
:1043500002FB03F37B627B6A3B6202E0054B3B623C
:1043600000BF3B6A18462C37BD465DF8047B70479A
:104370000010024000127A0048C6000858C6000823
:1043800080B400AF034B1B681846BD465DF8047B44
:10439000704700BF6000002080B582B000AFFFF71B
:1043A000EFFF01460B4B5B6803F4E0634FF4E06200
:1043B0007A607A6892FAA2F23A603A68B2FA82F2C5
:1043C000D2B2D340044AD35C21FA03F3184608372B
:1043D000BD4680BD0010024040C6000880B582B0D6
:1043E00000AFFFF7CDFF01460B4B5B6803F4605352
:1043F0004FF460527A607A6892FAA2F23A603A68B0
:10440000B2FA82F2D2B2D340044AD35C21FA03F367
:1044100018460837BD4680BD0010024040C600085F
:1044200080B483B000AF786039607B680F221A6077
:10443000124B5B6803F003027B685A600F4B5B68AA
:1044400003F0F0027B689A600C4B5B6803F4E06257
:104450007B68DA60094B5B68DB0803F4E0627B6829
:104460001A61074B1B6803F007023B681A6000BF24
:104470000C37BD465DF8047B704700BF001002405A
:104480000020024080B592B000AF786000233B640A
:104490000023FB63002387F847307B681B6803F425
:1044A0008033002B00F0D4804E4BDB6903F0805347
:1044B000002B0ED14B4BDB694A4A43F08053D3614A
:1044C000484BDB6903F08053BB60BB68012387F86E
:1044D0004730454B1B6803F48073002B18D1424BC7
:1044E0001B68414A43F480731360FEF7E3F93864B4
:1044F00008E0FEF7DFF902463B6CD31A642B01D9C2
:104500000323D6E1384B1B6803F48073002BF0D0F3
:10451000344B1B6A03F44073FB63FB6B002B00F00E
:1045200084807B685B6803F44073FA6B9A427CD0AA
:104530002C4B1B6A23F44073FB634FF480333B63C3
:104540003B6B93FAA3F3FB62FB6AB3FA83F3DBB230
:104550001A46264B13449B001A46012313604FF45E
:104560008033BB63BB6B93FAA3F37B637B6BB3FAC0
:1045700083F3DBB21A461D4B13449B001A460023FB
:104580001360184AFB6B1362FB6B03F00103002BF3
:104590004BD0FEF78FF938640AE0FEF78BF902463C
:1045A0003B6CD31A41F28832934201D9032380E154
:1045B0000223BB62BB6A93FAA3F37B6202233B62D2
:1045C0003B6A93FAA3F3FB61FB69B3FA83F3DBB2B3
:1045D0005B09DBB243F00203DBB2022B08D1014BD3
:1045E0001B6A0DE000100240007000400081901036
:1045F0000223BB61BB6993FAA3F37B619A4B5B6AAD
:1046000002223A613A6992FAA2F2FA60FA68B2FAC0
:1046100082F2D2B242F04002D2B202F01F02012175
:1046200001FA02F21340002BB7D08F4B1B6A23F420
:1046300040727B685B688C4913430B6297F8473084
:10464000012B05D1884BDB69874A23F08053D36166
:104650007B681B6803F00103002B08D0824B1B6BA7
:1046600023F003027B689B687F4913430B637B68DD
:104670001B6803F00203002B08D07B4B1B6B23F459
:1046800040327B68DB68784913430B637B681B68A7
:1046900003F00403002B08D0734B1B6B23F4402260
:1046A0007B681B69704913430B637B681B6803F0CD
:1046B0002003002B08D06C4B1B6B23F010027B688F
:1046C000DB69694913430B637B681B6803F40033A0
:1046D000002B08D0644B5B6823F480027B685B6D21
:1046E000614913434B607B681B6803F04003002B58
:1046F00008D05D4B1B6B23F020027B681B6A5A4974
:1047000013430B637B681B6803F48023002B08D0E2
:10471000554B1B6B23F040027B685B6A5249134385
:104720000B637B681B6803F00803002B08D04E4B1B
:104730001B6B23F440127B685B694B4913430B638B
:104740007B681B6803F01003002B08D0464B1B6BE3
:1047500023F440027B689B69434913430B637B68E6
:104760001B6803F40073002B08D03F4B5B6823F4F5
:1047700000027B681B6B3C4913434B607B681B68E2
:1047800003F08003002B08D0374BDB6A23F4F87268
:104790007B689B6A34491343CB627B681B6803F4D4
:1047A0008073002B08D0304BDB6A23F478527B688F
:1047B000DB6A2D491343CB627B681B6803F480538B
:1047C000002B08D0284B1B6B23F480727B685B6B3B
:1047D000254913430B637B681B6803F40053002BCC
:1047E00008D0214B1B6B23F400727B681B6C1E49A5
:1047F00013430B637B681B6803F48013002B08D002
:10480000194B1B6B23F080727B689B6B164913431B
:104810000B637B681B6803F40013002B08D0124B5A
:104820001B6B23F000727B68DB6B0F4913430B6338
:104830007B681B6803F48003002B08D00A4B1B6BBA
:1048400023F480627B685B6C074913430B637B68CE
:104850001B6803F40003002B0CD0034B1B6B23F4E9
:1048600000627B6802E000BF001002409B6C1349AD
:1048700013430B637B681B6803F08073002B08D025
:104880000E4B1B6B23F400527B68DB6C0B4913430C
:104890000B637B681B6803F00073002B08D0074B89
:1048A0001B6B23F400427B681B6D044913430B63AD
:1048B000002318464837BD4680BD00BF00100240A7
:1048C00080B582B000AF78607B68002B01D10123F6
:1048D00049E07B6893F83D30DBB2002B06D17B6862
:1048E000002283F83C207868FCF7D4FE7B68022223
:1048F00083F83D207B681A687B68043319461046AC
:1049000001F016F97B68012283F848207B680122B8
:1049100083F83E207B68012283F83F207B680122D8
:1049200083F840207B68012283F841207B680122C4
:1049300083F842207B68012283F843207B680122B0
:1049400083F844207B68012283F845207B6801229C
:1049500083F846207B68012283F847207B68012288
:1049600083F83D20002318460837BD4680BD00006F
:1049700080B485B000AF78607B6893F83D30DBB2DF
:10498000012B01D001234FE07B68022283F83D20F8
:104990007B681B68DA687B681B6842F00102DA609A
:1049A0007B681B68234A93421DD07B681B68B3F168
:1049B000804F18D07B681B681F4A934213D07B68D6
:1049C0001B681E4A93420ED07B681B681C4A9342A8
:1049D00009D07B681B681B4A934204D07B681B6824
:1049E000194A934215D17B681B689A68174B13408C
:1049F000FB60FB68062B15D0FB68B3F5803F11D038
:104A00007B681B681A687B681B6842F001021A60A9
:104A100008E07B681B681A687B681B6842F001022B
:104A20001A6000E000BF002318461437BD465DF849
:104A3000047B7047002C0140000400400008004047
:104A400000340140004001400050014007000100D7
:104A500080B582B000AF78607B68002B01D1012364
:104A600049E07B6893F83D30DBB2002B06D17B68D0
:104A7000002283F83C20786800F041F87B6802222D
:104A800083F83D207B681A687B680433194610461A
:104A900001F04EF87B68012283F848207B680122F0
:104AA00083F83E207B68012283F83F207B68012247
:104AB00083F840207B68012283F841207B68012233
:104AC00083F842207B68012283F843207B6801221F
:104AD00083F844207B68012283F845207B6801220B
:104AE00083F846207B68012283F847207B680122F7
:104AF00083F83D20002318460837BD4680BD80B4AA
:104B000083B000AF786000BF0C37BD465DF8047B12
:104B10007047000080B584B000AF786039603B68B2
:104B2000002B09D17B6893F83E30DBB2012B14BF18
:104B300001230023DBB23CE03B68042B09D17B68F6
:104B400093F83F30DBB2012B14BF01230023DBB20B
:104B50002FE03B68082B09D17B6893F84030DBB22B
:104B6000012B14BF01230023DBB222E03B680C2B96
:104B700009D17B6893F84130DBB2012B14BF0123CC
:104B80000023DBB215E03B68102B09D17B6893F85A
:104B90004230DBB2012B14BF01230023DBB208E05B
:104BA0007B6893F84330DBB2012B14BF0123002351
:104BB000DBB2002B01D00123A1E03B68002B04D124
:104BC0007B68022283F83E2023E03B68042B04D15B
:104BD0007B68022283F83F201BE03B68082B04D14E
:104BE0007B68022283F8402013E03B680C2B04D141
:104BF0007B68022283F841200BE03B68102B04D134
:104C00007B68022283F8422003E07B68022283F85B
:104C100043207B681B6801223968184601F0EAFCD2
:104C20007B681B68384A934218D07B681B68374AF8
:104C3000934213D07B681B68354A93420ED07B6841
:104C40001B68344A934209D07B681B68324A9342FE
:104C500004D07B681B68314A934201D1012300E0F4
:104C60000023002B07D07B681B685A6C7B681B688D
:104C700042F400425A647B681B68234A93421DD069
:104C80007B681B68B3F1804F18D07B681B68244A8F
:104C9000934213D07B681B68224A93420ED07B68F4
:104CA0001B681A4A934209D07B681B68184A9342D2
:104CB00004D07B681B68194A934215D17B681B6836
:104CC0009A68194B1340FB60FB68062B15D0FB68F4
:104CD000B3F5803F11D07B681B681A687B681B683E
:104CE00042F001021A6008E07B681B681A687B6862
:104CF0001B6842F001021A6000E000BF0023184662
:104D00001037BD4680BD00BF002C0140003401407B
:104D10000040014000440140004801400050014073
:104D200000040040000800400700010080B582B088
:104D300000AF786039607B681B68002239681846CC
:104D400001F058FC7B681B68404A934218D07B688E
:104D50001B683F4A934213D07B681B683D4A9342CD
:104D60000ED07B681B683C4A934209D07B681B6865
:104D70003A4A934204D07B681B68394A934201D176
:104D8000012300E00023002B17D07B681B681A6A00
:104D900041F211131340002B0FD17B681B681A6A74
:104DA00040F244431340002B07D17B681B685A6CC8
:104DB0007B681B6822F400425A647B681B681A6A8D
:104DC00041F211131340002B0FD17B681B681A6A44
:104DD00040F244431340002B07D17B681B681A68DC
:104DE0007B681B6822F001021A603B68002B04D12B
:104DF0007B68012283F83E2023E03B68042B04D12A
:104E00007B68012283F83F201BE03B68082B04D11C
:104E10007B68012283F8402013E03B680C2B04D10F
:104E20007B68012283F841200BE03B68102B04D102
:104E30007B68012283F8422003E07B68012283F82B
:104E40004320002318460837BD4680BD002C014092
:104E5000003401400040014000440140004801404E
:104E60000050014080B582B000AF78607B68002BB5
:104E700001D1012349E07B6893F83D30DBB2002B80
:104E800006D17B68002283F83C20786800F041F866
:104E90007B68022283F83D207B681A687B680433B4
:104EA0001946104600F044FE7B68012283F8482032
:104EB0007B68012283F83E207B68012283F83F2033
:104EC0007B68012283F840207B68012283F841201F
:104ED0007B68012283F842207B68012283F843200B
:104EE0007B68012283F844207B68012283F84520F7
:104EF0007B68012283F846207B68012283F84720E3
:104F00007B68012283F83D20002318460837BD4600
:104F100080BD80B483B000AF786000BF0C37BD4661
:104F20005DF8047B7047000080B584B000AF786006
:104F300039600023FB733B68002B04D17B6893F836
:104F40003E30DBB223E03B68042B04D17B6893F84E
:104F50003F30DBB21BE03B68082B04D17B6893F841
:104F60004030DBB213E03B680C2B04D17B6893F834
:104F70004130DBB20BE03B68102B04D17B6893F827
:104F80004230DBB203E07B6893F84330DBB2BB73A3
:104F90003B68002B04D17B6893F84430DBB213E00C
:104FA0003B68042B04D17B6893F84530DBB20BE0FF
:104FB0003B68082B04D17B6893F84630DBB203E0F2
:104FC0007B6893F84730DBB27B73BB7B012B02D14C
:104FD0007B7B012B01D00123DDE03B68002B04D15A
:104FE0007B68022283F83E2023E03B68042B04D137
:104FF0007B68022283F83F201BE03B68082B04D12A
:105000007B68022283F8402013E03B680C2B04D11C
:105010007B68022283F841200BE03B68102B04D10F
:105020007B68022283F8422003E07B68022283F837
:1050300043203B68002B04D17B68022283F8442084
:1050400013E03B68042B04D17B68022283F84520DF
:105050000BE03B68082B04D17B68022283F84620D2
:1050600003E07B68022283F847203B680C2B41D881
:1050700001A252F823F000BFAD500008F55000081F
:10508000F5500008F5500008BF500008F550000822
:10509000F5500008F5500008D1500008F550000800
:1050A000F5500008F5500008E35000087B681B68C5
:1050B000DA687B681B6842F00202DA601DE07B68F8
:1050C0001B68DA687B681B6842F00402DA6014E04F
:1050D0007B681B68DA687B681B6842F00802DA604C
:1050E0000BE07B681B68DA687B681B6842F0100283
:1050F000DA6002E00123FB7300BFFB7B002B49D188
:105100007B681B6801223968184601F073FA7B68D6
:105110001B68234A93421DD07B681B68B3F1804F04
:1051200018D07B681B681F4A934213D07B681B68AA
:105130001D4A93420ED07B681B681C4A934209D0DB
:105140007B681B681A4A934204D07B681B68194A23
:10515000934215D17B681B689A68174B1340BB605C
:10516000BB68062B15D0BB68B3F5803F11D07B68B8
:105170001B681A687B681B6842F001021A6008E02D
:105180007B681B681A687B681B6842F001021A6022
:1051900000E000BFFB7B18461037BD4680BD00BF56
:1051A000002C014000040040000800400034014091
:1051B00000400140005001400700010080B584B06C
:1051C00000AF786039600023FB733B680C2B41D83B
:1051D00001A252F823F000BF0D52000855520008FA
:1051E00055520008555200081F5200085552000839
:1051F0005552000855520008315200085552000817
:105200005552000855520008435200087B681B683D
:10521000DA687B681B6822F00202DA601DE07B68B6
:105220001B68DA687B681B6822F00402DA6014E00D
:105230007B681B68DA687B681B6822F00802DA600A
:105240000BE07B681B68DA687B681B6822F0100241
:10525000DA6002E00123FB7300BFFB7B002B66D109
:105260007B681B6800223968184601F0C3F97B6827
:105270001B681A6A41F211131340002B0FD17B688F
:105280001B681A6A40F244431340002B07D17B6825
:105290001B681A687B681B6822F001021A603B6871
:1052A000002B04D17B68012283F83E2023E03B6879
:1052B000042B04D17B68012283F83F201BE03B686C
:1052C000082B04D17B68012283F8402013E03B685F
:1052D0000C2B04D17B68012283F841200BE03B6852
:1052E000102B04D17B68012283F8422003E07B6805
:1052F000012283F843203B68002B04D17B68012204
:1053000083F8442013E03B68042B04D17B6801221E
:1053100083F845200BE03B68082B04D17B68012211
:1053200083F8462003E07B68012283F84720FB7B5B
:1053300018461037BD4680BD80B582B000AF78609A
:105340007B681B681B6903F00203022B22D17B6878
:105350001B68DB6803F00203022B1BD17B681B6810
:105360006FF002021A617B6801221A777B681B6862
:105370009B6903F00303002B03D07868FDF7DEF888
:1053800005E0786800F0B6FB786800F0BDFB7B684C
:1053900000221A777B681B681B6903F00403042B47
:1053A00022D17B681B68DB6803F00403042B1BD14C
:1053B0007B681B686FF004021A617B6802221A770F
:1053C0007B681B689B6903F44073002B03D07868EB
:1053D000FDF7B4F805E0786800F08CFB786800F021
:1053E00093FB7B6800221A777B681B681B6903F0BC
:1053F0000803082B22D17B681B68DB6803F00803D5
:10540000082B1BD17B681B686FF008021A617B6850
:1054100004221A777B681B68DB6903F00303002B07
:1054200003D07868FDF78AF805E0786800F062FB41
:10543000786800F069FB7B6800221A777B681B683C
:105440001B6903F01003102B22D17B681B68DB68FB
:1054500003F01003102B1BD17B681B686FF0100248
:105460001A617B6808221A777B681B68DB6903F482
:105470004073002B03D07868FDF760F805E078688A
:1054800000F038FB786800F03FFB7B6800221A7759
:105490007B681B681B6903F00103012B0ED17B683D
:1054A0001B68DB6803F00103012B07D17B681B68D5
:1054B0006FF001021A617868FBF71CFA7B681B68C1
:1054C0001B6903F08003802B0ED17B681B68DB68AF
:1054D00003F08003802B07D17B681B686FF080028C
:1054E0001A61786801F0C8F97B681B681B6903F4CE
:1054F0008073B3F5807F0ED17B681B68DB6803F097
:105500008003802B07D17B681B686FF480721A615F
:10551000786801F0BBF97B681B681B6903F04003E6
:10552000402B0ED17B681B68DB6803F04003402BE7
:1055300007D17B681B686FF040021A61786800F041
:10554000EDFA7B681B681B6903F02003202B0ED14A
:105550007B681B68DB6803F02003202B07D17B6886
:105560001B686FF020021A61786801F07BF900BFB8
:105570000837BD4680BD80B586B000AFF860B96021
:105580007A600023FB75FB6893F83C30012B01D156
:10559000022388E0FB68012283F83C207B68002B13
:1055A0001BD1FB681868BB681968BB685A68BB6880
:1055B000DB6800F061FEFB681B689A69FB681B688A
:1055C00022F00C029A61FB681B689969BB689A68B3
:1055D000FB681B680A439A6160E07B68042B1CD15E
:1055E000FB681868BB681968BB685A68BB68DB68E9
:1055F00000F0DFFEFB681B689A69FB681B6822F4F9
:1056000040629A61FB681B689969BB689B681A02D3
:10561000FB681B680A439A6140E07B68082B1BD13A
:10562000FB681868BB681968BB685A68BB68DB68A8
:1056300000F02CFFFB681B68DA69FB681B6822F02E
:105640000C02DA61FB681B68D969BB689A68FB6861
:105650001B680A43DA6121E07B680C2B1CD1FB68D4
:105660001868BB681968BB685A68BB68DB6800F0DB
:1056700049FFFB681B68DA69FB681B6822F440621B
:10568000DA61FB681B68D969BB689B681A02FB6812
:105690001B680A43DA6101E00123FB75FB68002205
:1056A00083F83C20FB7D18461837BD4680BD0000BE
:1056B00080B586B000AFF860B9607A600023FB75F2
:1056C000FB6893F83C30012B01D10223FFE0FB681B
:1056D000012283F83C207B68142B00F2F08001A2A9
:1056E00052F823F039570008BF580008BF58000887
:1056F000BF58000879570008BF580008BF58000875
:10570000BF580008BB570008BF580008BF58000822
:10571000BF580008FB570008BF580008BF580008D2
:10572000BF5800083D580008BF580008BF5800087F
:10573000BF5800087D580008FB681B68B968184608
:1057400000F094FAFB681B689A69FB681B6842F0DA
:1057500008029A61FB681B689A69FB681B6822F063
:1057600004029A61FB681B689969BB681A69FB6847
:105770001B680A439A61A5E0FB681B68B968184674
:1057800000F00EFBFB681B689A69FB681B6842F41B
:1057900000629A61FB681B689A69FB681B6822F4C7
:1057A00080629A61FB681B689969BB681B691A0271
:1057B000FB681B680A439A6184E0FB681B68B96850
:1057C000184600F081FBFB681B68DA69FB681B6800
:1057D00042F00802DA61FB681B68DA69FB681B6843
:1057E00022F00402DA61FB681B68D969BB681A6998
:1057F000FB681B680A43DA6164E0FB681B68B968F0
:10580000184600F0F3FBFB681B68DA69FB681B684D
:1058100042F40062DA61FB681B68DA69FB681B68A6
:1058200022F48062DA61FB681B68D969BB681B6976
:105830001A02FB681B680A43DA6143E0FB681B68D5
:10584000B968184600F042FCFB681B685A6DFB689B
:105850001B6842F008025A65FB681B685A6DFB68BA
:105860001B6822F004025A65FB681B68596DBB680F
:105870001A69FB681B680A435A6523E0FB681B68CA
:10588000B968184600F08CFCFB681B685A6DFB6811
:105890001B6842F400625A65FB681B685A6DFB681E
:1058A0001B6822F480625A65FB681B68596DBB68EF
:1058B0001B691A02FB681B680A435A6502E0012350
:1058C000FB7500BFFB68002283F83C20FB7D184677
:1058D0001837BD4680BD00BF80B584B000AF78608A
:1058E00039600023FB737B6893F83C30012B01D1B6
:1058F0000223B6E07B68012283F83C207B68022209
:1059000083F83D207B681B689B68BB60BB6823F401
:10591000803323F07703BB60BB6823F47F43BB6015
:105920007B681B68BA689A603B681B68B3F5005FC8
:105930003ED0B3F5005F00F28780B3F5805F00F0E2
:105940008680B3F5805F7FD8702B1AD0702B7BD800
:10595000602B50D0602B77D8502B3CD0502B73D875
:10596000402B58D0402B6FD8302B64D0302B6BD8C5
:10597000202B60D0202B67D8002B5CD0102B5AD066
:1059800062E07B6818683B6899683B685A683B68C6
:10599000DB6800F00FFE7B681B689B68BB60BB6820
:1059A00043F07703BB607B681B68BA689A604FE07E
:1059B0007B6818683B6899683B685A683B68DB6895
:1059C00000F0F8FD7B681B689A687B681B6842F4EE
:1059D00080429A603CE07B6818683B6859683B6885
:1059E000DB681A4600F0B6FC7B681B68502118463D
:1059F00000F0C5FD2CE07B6818683B6859683B687F
:105A0000DB681A4600F012FD7B681B6860211846AF
:105A100000F0B5FD1CE07B6818683B6859683B687E
:105A2000DB681A4600F096FC7B681B68402118462C
:105A300000F0A5FD0CE07B681A683B681B681946FE
:105A4000104600F09CFD03E00123FB7300E000BF63
:105A50007B68012283F83D207B68002283F83C208C
:105A6000FB7B18461037BD4680BD000080B485B072
:105A700000AF786039600023FB603B680C2B31D8A5
:105A800001A252F823F000BFBD5A0008E55A0008F1
:105A9000E55A0008E55A0008C75A0008E55A000808
:105AA000E55A0008E55A0008D15A0008E55A0008EE
:105AB000E55A0008E55A0008DB5A00087B681B68B5
:105AC0005B6BFB600FE07B681B689B6BFB600AE015
:105AD0007B681B68DB6BFB6005E07B681B681B6CED
